{"abi":[{"type":"constructor","inputs":[{"name":"_cardGame","type":"address","internalType":"address"},{"name":"_vrfCoordinator","type":"address","internalType":"address"},{"name":"_keyHash","type":"bytes32","internalType":"bytes32"},{"name":"_subscriptionId","type":"uint256","internalType":"uint256"}],"stateMutability":"nonpayable"},{"type":"function","name":"callbackGasLimit","inputs":[],"outputs":[{"name":"","type":"uint32","internalType":"uint32"}],"stateMutability":"view"},{"type":"function","name":"cardGame","inputs":[],"outputs":[{"name":"","type":"address","internalType":"contract CardGame"}],"stateMutability":"view"},{"type":"function","name":"keyHash","inputs":[],"outputs":[{"name":"","type":"bytes32","internalType":"bytes32"}],"stateMutability":"view"},{"type":"function","name":"numWords","inputs":[],"outputs":[{"name":"","type":"uint32","internalType":"uint32"}],"stateMutability":"view"},{"type":"function","name":"rawFulfillRandomWords","inputs":[{"name":"requestId","type":"uint256","internalType":"uint256"},{"name":"randomWords","type":"uint256[]","internalType":"uint256[]"}],"outputs":[],"stateMutability":"nonpayable"},{"type":"function","name":"requestConfirmations","inputs":[],"outputs":[{"name":"","type":"uint16","internalType":"uint16"}],"stateMutability":"view"},{"type":"function","name":"requestIdToPlayer","inputs":[{"name":"","type":"uint256","internalType":"uint256"}],"outputs":[{"name":"","type":"address","internalType":"address"}],"stateMutability":"view"},{"type":"function","name":"requestIdToPlayerPool","inputs":[{"name":"","type":"uint256","internalType":"uint256"},{"name":"","type":"uint256","internalType":"uint256"}],"outputs":[{"name":"","type":"address","internalType":"address"}],"stateMutability":"view"},{"type":"function","name":"requestOpponent","inputs":[{"name":"knownPlayers","type":"address[]","internalType":"address[]"}],"outputs":[],"stateMutability":"nonpayable"},{"type":"function","name":"subscriptionId","inputs":[],"outputs":[{"name":"","type":"uint256","internalType":"uint256"}],"stateMutability":"view"},{"type":"event","name":"BattleResolved","inputs":[{"name":"player1","type":"address","indexed":true,"internalType":"address"},{"name":"player2","type":"address","indexed":true,"internalType":"address"},{"name":"winner","type":"address","indexed":false,"internalType":"address"}],"anonymous":false},{"type":"event","name":"RewardGiven","inputs":[{"name":"winner","type":"address","indexed":false,"internalType":"address"},{"name":"tokenId","type":"uint256","indexed":false,"internalType":"uint256"}],"anonymous":false},{"type":"error","name":"OnlyCoordinatorCanFulfill","inputs":[{"name":"have","type":"address","internalType":"address"},{"name":"want","type":"address","internalType":"address"}]}],"bytecode":{"object":"0x60a060405262030d4060045f6101000a81548163ffffffff021916908363ffffffff16021790555060036004806101000a81548161ffff021916908361ffff1602179055506002600460066101000a81548163ffffffff021916908363ffffffff160217905550348015610071575f5ffd5b506040516125fa3803806125fa83398181016040528101906100939190610223565b828073ffffffffffffffffffffffffffffffffffffffff1660808173ffffffffffffffffffffffffffffffffffffffff168152505050835f5f6101000a81548173ffffffffffffffffffffffffffffffffffffffff021916908373ffffffffffffffffffffffffffffffffffffffff1602179055508260015f6101000a81548173ffffffffffffffffffffffffffffffffffffffff021916908373ffffffffffffffffffffffffffffffffffffffff160217905550816003819055508060028190555050505050610287565b5f5ffd5b5f73ffffffffffffffffffffffffffffffffffffffff82169050919050565b5f61018c82610163565b9050919050565b61019c81610182565b81146101a6575f5ffd5b50565b5f815190506101b781610193565b92915050565b5f819050919050565b6101cf816101bd565b81146101d9575f5ffd5b50565b5f815190506101ea816101c6565b92915050565b5f819050919050565b610202816101f0565b811461020c575f5ffd5b50565b5f8151905061021d816101f9565b92915050565b5f5f5f5f6080858703121561023b5761023a61015f565b5b5f610248878288016101a9565b9450506020610259878288016101a9565b935050604061026a878288016101dc565b925050606061027b8782880161020f565b91505092959194509250565b6080516123546102a65f395f81816101f4015261024801526123545ff3fe608060405234801561000f575f5ffd5b506004361061009c575f3560e01c806361728f391161006457806361728f39146101325780637ccfd7fc14610150578063aea05e721461016e578063b0fb162f1461019e578063cc6d0775146101bc5761009c565b806309c1ba2e146100a05780631fe543e3146100be57806324f74697146100da5780632fcc3613146100f85780634e6b63d314610114575b5f5ffd5b6100a86101ec565b6040516100b59190611803565b60405180910390f35b6100d860048036038101906100d391906119a7565b6101f2565b005b6100e26102b2565b6040516100ef9190611a1f565b60405180910390f35b610112600480360381019061010d9190611a91565b6102c7565b005b61011c610536565b6040516101299190611b56565b60405180910390f35b61013a61055a565b6040516101479190611b87565b60405180910390f35b610158610560565b6040516101659190611a1f565b60405180910390f35b61018860048036038101906101839190611ba0565b610576565b6040516101959190611bfe565b60405180910390f35b6101a66105be565b6040516101b39190611c33565b60405180910390f35b6101d660048036038101906101d19190611c4c565b6105d0565b6040516101e39190611bfe565b60405180910390f35b60025481565b7f000000000000000000000000000000000000000000000000000000000000000073ffffffffffffffffffffffffffffffffffffffff163373ffffffffffffffffffffffffffffffffffffffff16146102a457337f00000000000000000000000000000000000000000000000000000000000000006040517f1cf993f400000000000000000000000000000000000000000000000000000000815260040161029b929190611c77565b60405180910390fd5b6102ae8282610600565b5050565b60045f9054906101000a900463ffffffff1681565b60035f5f9054906101000a900473ffffffffffffffffffffffffffffffffffffffff1673ffffffffffffffffffffffffffffffffffffffff166370a08231336040518263ffffffff1660e01b81526004016103229190611bfe565b602060405180830381865afa15801561033d573d5f5f3e3d5ffd5b505050506040513d601f19601f820116820180604052508101906103619190611cb2565b10156103a2576040517f08c379a000000000000000000000000000000000000000000000000000000000815260040161039990611d37565b60405180910390fd5b5f82829050116103e7576040517f08c379a00000000000000000000000000000000000000000000000000000000081526004016103de90611d9f565b60405180910390fd5b5f60015f9054906101000a900473ffffffffffffffffffffffffffffffffffffffff1673ffffffffffffffffffffffffffffffffffffffff16635d3b1d3060035460025460048054906101000a900461ffff1660045f9054906101000a900463ffffffff16600460069054906101000a900463ffffffff166040518663ffffffff1660e01b815260040161047f959493929190611ddf565b6020604051808303815f875af115801561049b573d5f5f3e3d5ffd5b505050506040513d601f19601f820116820180604052508101906104bf9190611cb2565b90503360055f8381526020019081526020015f205f6101000a81548173ffffffffffffffffffffffffffffffffffffffff021916908373ffffffffffffffffffffffffffffffffffffffff160217905550828260065f8481526020019081526020015f2091906105309291906116a0565b50505050565b5f5f9054906101000a900473ffffffffffffffffffffffffffffffffffffffff1681565b60035481565b600460069054906101000a900463ffffffff1681565b6006602052815f5260405f20818154811061058f575f80fd5b905f5260205f20015f915091509054906101000a900473ffffffffffffffffffffffffffffffffffffffff1681565b60048054906101000a900461ffff1681565b6005602052805f5260405f205f915054906101000a900473ffffffffffffffffffffffffffffffffffffffff1681565b5f60055f8481526020019081526020015f205f9054906101000a900473ffffffffffffffffffffffffffffffffffffffff1690505f60065f8581526020019081526020015f208054806020026020016040519081016040528092919081815260200182805480156106c357602002820191905f5260205f20905b815f9054906101000a900473ffffffffffffffffffffffffffffffffffffffff1673ffffffffffffffffffffffffffffffffffffffff168152602001906001019080831161067a575b505050505090505f6106f0845f815181106106e1576106e0611e30565b5b60200260200101518484610c98565b90505f73ffffffffffffffffffffffffffffffffffffffff168173ffffffffffffffffffffffffffffffffffffffff1614806107c3575060035f5f9054906101000a900473ffffffffffffffffffffffffffffffffffffffff1673ffffffffffffffffffffffffffffffffffffffff166370a08231836040518263ffffffff1660e01b81526004016107829190611bfe565b602060405180830381865afa15801561079d573d5f5f3e3d5ffd5b505050506040513d601f19601f820116820180604052508101906107c19190611cb2565b105b156107d057505050610c94565b5f5f5f9054906101000a900473ffffffffffffffffffffffffffffffffffffffff1673ffffffffffffffffffffffffffffffffffffffff16638462151c856040518263ffffffff1660e01b815260040161082a9190611bfe565b5f60405180830381865afa158015610844573d5f5f3e3d5ffd5b505050506040513d5f823e3d601f19601f8201168201806040525081019061086c9190611ef2565b90505f5f5f9054906101000a900473ffffffffffffffffffffffffffffffffffffffff1673ffffffffffffffffffffffffffffffffffffffff16638462151c846040518263ffffffff1660e01b81526004016108c89190611bfe565b5f60405180830381865afa1580156108e2573d5f5f3e3d5ffd5b505050506040513d5f823e3d601f19601f8201168201806040525081019061090a9190611ef2565b90505f8151835161091b9190611f66565b90505f8167ffffffffffffffff8111156109385761093761186b565b5b6040519080825280602002602001820160405280156109665781602001602082028036833780820191505090505b5090505f5f90505b84518110156109be5784818151811061098a57610989611e30565b5b60200260200101518282815181106109a5576109a4611e30565b5b602002602001018181525050808060010191505061096e565b505f5f90505b8351811015610a20578381815181106109e0576109df611e30565b5b6020026020010151828287516109f69190611f66565b81518110610a0757610a06611e30565b5b60200260200101818152505080806001019150506109c4565b505f610a46828a5f81518110610a3957610a38611e30565b5b6020026020010151610df1565b90505f600367ffffffffffffffff811115610a6457610a6361186b565b5b604051908082528060200260200182016040528015610a925781602001602082028036833780820191505090505b5090505f600367ffffffffffffffff811115610ab157610ab061186b565b5b604051908082528060200260200182016040528015610adf5781602001602082028036833780820191505090505b5090505f5f90505b6003811015610b7d57838181518110610b0357610b02611e30565b5b6020026020010151838281518110610b1e57610b1d611e30565b5b60200260200101818152505083600382610b389190611f66565b81518110610b4957610b48611e30565b5b6020026020010151828281518110610b6457610b63611e30565b5b6020026020010181815250508080600101915050610ae7565b505f610b8b8b848b85610ee7565b90508873ffffffffffffffffffffffffffffffffffffffff168b73ffffffffffffffffffffffffffffffffffffffff167fbc462ccb055ff2620d6cfcc021a954e86692320308527e9d65effbe0494ad34783604051610bea9190611bfe565b60405180910390a35f73ffffffffffffffffffffffffffffffffffffffff168173ffffffffffffffffffffffffffffffffffffffff1614610c88575f610c4b828e600181518110610c3e57610c3d611e30565b5b6020026020010151611366565b90507f3ad0c8d1bbd63d54c5f14180eae95cab7c2420b2dbb90603a6e5d206668f52ec8282604051610c7e929190611f99565b60405180910390a1505b50505050505050505050505b5050565b5f600282511015610cab575f9050610dea565b5f5f90505b8251811015610de5575f83518287610cc89190611f66565b610cd29190611fed565b90505f848281518110610ce857610ce7611e30565b5b602002602001015190508573ffffffffffffffffffffffffffffffffffffffff168173ffffffffffffffffffffffffffffffffffffffff1614158015610dc6575060035f5f9054906101000a900473ffffffffffffffffffffffffffffffffffffffff1673ffffffffffffffffffffffffffffffffffffffff166370a08231836040518263ffffffff1660e01b8152600401610d849190611bfe565b602060405180830381865afa158015610d9f573d5f5f3e3d5ffd5b505050506040513d601f19601f82011682018060405250810190610dc39190611cb2565b10155b15610dd657809350505050610dea565b50508080600101915050610cb0565b505f90505b9392505050565b60605f60018451610e02919061201d565b90505b5f811115610edd575f600182610e1b9190611f66565b84610e269190611fed565b9050848181518110610e3b57610e3a611e30565b5b6020026020010151858381518110610e5657610e55611e30565b5b6020026020010151868481518110610e7157610e70611e30565b5b60200260200101878481518110610e8b57610e8a611e30565b5b60200260200101828152508281525050508382604051602001610eaf929190612050565b604051602081830303815290604052805190602001205f1c9350508080610ed590612077565b915050610e05565b5082905092915050565b5f5f600390505f600390505f5f90505f5f90505f5f90505f5f9050610f0a61173d565b610f1261173d565b5f5f90505b60038110156110c7575f5f9054906101000a900473ffffffffffffffffffffffffffffffffffffffff1673ffffffffffffffffffffffffffffffffffffffff1663d44888fe8e8381518110610f6f57610f6e611e30565b5b60200260200101516040518263ffffffff1660e01b8152600401610f939190611803565b60a060405180830381865afa158015610fae573d5f5f3e3d5ffd5b505050506040513d601f19601f82011682018060405250810190610fd291906121ca565b838260038110610fe557610fe4611e30565b5b60200201819052505f5f9054906101000a900473ffffffffffffffffffffffffffffffffffffffff1673ffffffffffffffffffffffffffffffffffffffff1663d44888fe8c838151811061103c5761103b611e30565b5b60200260200101516040518263ffffffff1660e01b81526004016110609190611803565b60a060405180830381865afa15801561107b573d5f5f3e3d5ffd5b505050506040513d601f19601f8201168201806040525081019061109f91906121ca565b8282600381106110b2576110b1611e30565b5b60200201819052508080600101915050610f17565b505b6003861080156110d95750600385105b15611322575f8287600381106110f2576110f1611e30565b5b602002015190505f82876003811061110d5761110c611e30565b5b602002015190505f826060015160ff1690505f826060015160ff1690505f5f890361113f57846080015160ff16611141565b885b90505f5f890361115857846080015160ff1661115a565b885b905061116e8660200151866020015161142e565b156111835760028461118091906121f5565b93505b6111958560200151876020015161142e565b156111aa576002836111a791906121f5565b92505b6111ba865f0151865f0151611567565b156111db5760026003856111ce91906121f5565b6111d89190612236565b93505b6111eb855f0151875f0151611567565b1561120c5760026003846111ff91906121f5565b6112099190612236565b92505b5b5f8211801561121b57505f81115b156112615781831061122f575f915061123e565b828261123b919061201d565b91505b80841061124d575f905061125c565b8381611259919061201d565b90505b61120d565b5f821115801561127057505f81115b1561129c578b8061128090612266565b9c50508d8061128e90612077565b9e50505f9950809850611317565b5f81111580156112ab57505f82115b156112d7578a806112bb90612266565b9b50508c806112c990612077565b9d50505f9850819950611316565b8b806112e290612266565b9c50508d806112f090612077565b9e50508a806112fe90612266565b9b50508c8061130c90612077565b9d50505f99505f98505b5b5050505050506110c9565b8688111561133a578c9850505050505050505061135e565b87871115611352578a9850505050505050505061135e565b5f985050505050505050505b949350505050565b5f5f60016003846113779190611fed565b6113819190611f66565b90505f5f5f9054906101000a900473ffffffffffffffffffffffffffffffffffffffff1673ffffffffffffffffffffffffffffffffffffffff16639d44f4e28686856040518463ffffffff1660e01b81526004016113e1939291906122bc565b6020604051808303815f875af11580156113fd573d5f5f3e3d5ffd5b505050506040513d601f19601f820116820180604052508101906114219190611cb2565b9050809250505092915050565b5f600280811115611442576114416122f1565b5b836002811115611455576114546122f1565b5b148015611486575060016002811115611471576114706122f1565b5b826002811115611484576114836122f1565b5b145b156114945760019050611561565b600160028111156114a8576114a76122f1565b5b8360028111156114bb576114ba6122f1565b5b1480156114eb57505f60028111156114d6576114d56122f1565b5b8260028111156114e9576114e86122f1565b5b145b156114f95760019050611561565b5f600281111561150c5761150b6122f1565b5b83600281111561151f5761151e6122f1565b5b14801561154f575060028081111561153a576115396122f1565b5b82600281111561154d5761154c6122f1565b5b145b1561155d5760019050611561565b5f90505b92915050565b5f60028081111561157b5761157a6122f1565b5b83600281111561158e5761158d6122f1565b5b1480156115be57505f60028111156115a9576115a86122f1565b5b8260028111156115bc576115bb6122f1565b5b145b156115cc576001905061169a565b5f60028111156115df576115de6122f1565b5b8360028111156115f2576115f16122f1565b5b14801561162357506001600281111561160e5761160d6122f1565b5b826002811115611621576116206122f1565b5b145b15611631576001905061169a565b60016002811115611645576116446122f1565b5b836002811115611658576116576122f1565b5b1480156116885750600280811115611673576116726122f1565b5b826002811115611686576116856122f1565b5b145b15611696576001905061169a565b5f90505b92915050565b828054828255905f5260205f2090810192821561172c579160200282015b8281111561172b57823573ffffffffffffffffffffffffffffffffffffffff16825f6101000a81548173ffffffffffffffffffffffffffffffffffffffff021916908373ffffffffffffffffffffffffffffffffffffffff160217905550916020019190600101906116be565b5b509050611739919061176a565b5090565b60405180606001604052806003905b611754611785565b81526020019060019003908161174c5790505090565b5b80821115611781575f815f90555060010161176b565b5090565b6040518060a001604052805f60028111156117a3576117a26122f1565b5b81526020015f60028111156117bb576117ba6122f1565b5b81526020015f60038111156117d3576117d26122f1565b5b81526020015f60ff1681526020015f60ff1681525090565b5f819050919050565b6117fd816117eb565b82525050565b5f6020820190506118165f8301846117f4565b92915050565b5f604051905090565b5f5ffd5b5f5ffd5b611836816117eb565b8114611840575f5ffd5b50565b5f813590506118518161182d565b92915050565b5f5ffd5b5f601f19601f8301169050919050565b7f4e487b71000000000000000000000000000000000000000000000000000000005f52604160045260245ffd5b6118a18261185b565b810181811067ffffffffffffffff821117156118c0576118bf61186b565b5b80604052505050565b5f6118d261181c565b90506118de8282611898565b919050565b5f67ffffffffffffffff8211156118fd576118fc61186b565b5b602082029050602081019050919050565b5f5ffd5b5f61192461191f846118e3565b6118c9565b905080838252602082019050602084028301858111156119475761194661190e565b5b835b81811015611970578061195c8882611843565b845260208401935050602081019050611949565b5050509392505050565b5f82601f83011261198e5761198d611857565b5b813561199e848260208601611912565b91505092915050565b5f5f604083850312156119bd576119bc611825565b5b5f6119ca85828601611843565b925050602083013567ffffffffffffffff8111156119eb576119ea611829565b5b6119f78582860161197a565b9150509250929050565b5f63ffffffff82169050919050565b611a1981611a01565b82525050565b5f602082019050611a325f830184611a10565b92915050565b5f5ffd5b5f5f83601f840112611a5157611a50611857565b5b8235905067ffffffffffffffff811115611a6e57611a6d611a38565b5b602083019150836020820283011115611a8a57611a8961190e565b5b9250929050565b5f5f60208385031215611aa757611aa6611825565b5b5f83013567ffffffffffffffff811115611ac457611ac3611829565b5b611ad085828601611a3c565b92509250509250929050565b5f73ffffffffffffffffffffffffffffffffffffffff82169050919050565b5f819050919050565b5f611b1e611b19611b1484611adc565b611afb565b611adc565b9050919050565b5f611b2f82611b04565b9050919050565b5f611b4082611b25565b9050919050565b611b5081611b36565b82525050565b5f602082019050611b695f830184611b47565b92915050565b5f819050919050565b611b8181611b6f565b82525050565b5f602082019050611b9a5f830184611b78565b92915050565b5f5f60408385031215611bb657611bb5611825565b5b5f611bc385828601611843565b9250506020611bd485828601611843565b9150509250929050565b5f611be882611adc565b9050919050565b611bf881611bde565b82525050565b5f602082019050611c115f830184611bef565b92915050565b5f61ffff82169050919050565b611c2d81611c17565b82525050565b5f602082019050611c465f830184611c24565b92915050565b5f60208284031215611c6157611c60611825565b5b5f611c6e84828501611843565b91505092915050565b5f604082019050611c8a5f830185611bef565b611c976020830184611bef565b9392505050565b5f81519050611cac8161182d565b92915050565b5f60208284031215611cc757611cc6611825565b5b5f611cd484828501611c9e565b91505092915050565b5f82825260208201905092915050565b7f4e656564206174206c65617374203320636172647300000000000000000000005f82015250565b5f611d21601583611cdd565b9150611d2c82611ced565b602082019050919050565b5f6020820190508181035f830152611d4e81611d15565b9050919050565b7f4f70706f6e656e7420706f6f6c20697320656d707479000000000000000000005f82015250565b5f611d89601683611cdd565b9150611d9482611d55565b602082019050919050565b5f6020820190508181035f830152611db681611d7d565b9050919050565b5f67ffffffffffffffff82169050919050565b611dd981611dbd565b82525050565b5f60a082019050611df25f830188611b78565b611dff6020830187611dd0565b611e0c6040830186611c24565b611e196060830185611a10565b611e266080830184611a10565b9695505050505050565b7f4e487b71000000000000000000000000000000000000000000000000000000005f52603260045260245ffd5b5f611e6f611e6a846118e3565b6118c9565b90508083825260208201905060208402830185811115611e9257611e9161190e565b5b835b81811015611ebb5780611ea78882611c9e565b845260208401935050602081019050611e94565b5050509392505050565b5f82601f830112611ed957611ed8611857565b5b8151611ee9848260208601611e5d565b91505092915050565b5f60208284031215611f0757611f06611825565b5b5f82015167ffffffffffffffff811115611f2457611f23611829565b5b611f3084828501611ec5565b91505092915050565b7f4e487b71000000000000000000000000000000000000000000000000000000005f52601160045260245ffd5b5f611f70826117eb565b9150611f7b836117eb565b9250828201905080821115611f9357611f92611f39565b5b92915050565b5f604082019050611fac5f830185611bef565b611fb960208301846117f4565b9392505050565b7f4e487b71000000000000000000000000000000000000000000000000000000005f52601260045260245ffd5b5f611ff7826117eb565b9150612002836117eb565b92508261201257612011611fc0565b5b828206905092915050565b5f612027826117eb565b9150612032836117eb565b925082820390508181111561204a57612049611f39565b5b92915050565b5f6040820190506120635f8301856117f4565b61207060208301846117f4565b9392505050565b5f612081826117eb565b91505f820361209357612092611f39565b5b600182039050919050565b5f5ffd5b600381106120ae575f5ffd5b50565b5f815190506120bf816120a2565b92915050565b600381106120d1575f5ffd5b50565b5f815190506120e2816120c5565b92915050565b600481106120f4575f5ffd5b50565b5f81519050612105816120e8565b92915050565b5f60ff82169050919050565b6121208161210b565b811461212a575f5ffd5b50565b5f8151905061213b81612117565b92915050565b5f60a082840312156121565761215561209e565b5b61216060a06118c9565b90505f61216f848285016120b1565b5f830152506020612182848285016120d4565b6020830152506040612196848285016120f7565b60408301525060606121aa8482850161212d565b60608301525060806121be8482850161212d565b60808301525092915050565b5f60a082840312156121df576121de611825565b5b5f6121ec84828501612141565b91505092915050565b5f6121ff826117eb565b915061220a836117eb565b9250828202612218816117eb565b9150828204841483151761222f5761222e611f39565b5b5092915050565b5f612240826117eb565b915061224b836117eb565b92508261225b5761225a611fc0565b5b828204905092915050565b5f612270826117eb565b91507fffffffffffffffffffffffffffffffffffffffffffffffffffffffffffffffff82036122a2576122a1611f39565b5b600182019050919050565b6122b68161210b565b82525050565b5f6060820190506122cf5f830186611bef565b6122dc60208301856117f4565b6122e960408301846122ad565b949350505050565b7f4e487b71000000000000000000000000000000000000000000000000000000005f52602160045260245ffdfea26469706673582212203b408d9b745f4fde35f63c42e864b52a483f30cb8cefd6abbdf93bbdd9778eb764736f6c634300081e0033","linkReferences":{}},"methodIdentifiers":{"callbackGasLimit()":"24f74697","cardGame()":"4e6b63d3","keyHash()":"61728f39","numWords()":"7ccfd7fc","rawFulfillRandomWords(uint256,uint256[])":"1fe543e3","requestConfirmations()":"b0fb162f","requestIdToPlayer(uint256)":"cc6d0775","requestIdToPlayerPool(uint256,uint256)":"aea05e72","requestOpponent(address[])":"2fcc3613","subscriptionId()":"09c1ba2e"},"id":43}