{"abi":[{"type":"constructor","inputs":[{"name":"_cardGameAddress","type":"address","internalType":"address"}],"stateMutability":"nonpayable"},{"type":"function","name":"battleAgainstComputer","inputs":[{"name":"playerCards","type":"uint256[3]","internalType":"uint256[3]"},{"name":"computerCards","type":"tuple[3]","internalType":"struct CardGame.CardStats[3]","components":[{"name":"classType","type":"uint8","internalType":"enum CardGame.Class"},{"name":"element","type":"uint8","internalType":"enum CardGame.Element"},{"name":"rarity","type":"uint8","internalType":"enum CardGame.Rarity"},{"name":"attack","type":"uint8","internalType":"uint8"},{"name":"defense","type":"uint8","internalType":"uint8"}]}],"outputs":[{"name":"winner","type":"string","internalType":"string"}],"stateMutability":"view"},{"type":"function","name":"cardGame","inputs":[],"outputs":[{"name":"","type":"address","internalType":"contract CardGame"}],"stateMutability":"view"},{"type":"function","name":"initiatePvPBattle","inputs":[{"name":"opponent","type":"address","internalType":"address"},{"name":"cardIds","type":"uint256[]","internalType":"uint256[]"}],"outputs":[],"stateMutability":"nonpayable"},{"type":"function","name":"pendingBattles","inputs":[{"name":"","type":"address","internalType":"address"}],"outputs":[{"name":"player","type":"address","internalType":"address"}],"stateMutability":"view"},{"type":"function","name":"resolvedBattles","inputs":[{"name":"","type":"bytes32","internalType":"bytes32"}],"outputs":[{"name":"","type":"bool","internalType":"bool"}],"stateMutability":"view"},{"type":"event","name":"BattleCompleted","inputs":[{"name":"player1","type":"address","indexed":true,"internalType":"address"},{"name":"player2","type":"address","indexed":true,"internalType":"address"},{"name":"winner","type":"address","indexed":false,"internalType":"address"}],"anonymous":false}],"bytecode":{"object":"0x608060405234801561000f575f5ffd5b50604051611d22380380611d22833981810160405281019061003191906100d4565b805f5f6101000a81548173ffffffffffffffffffffffffffffffffffffffff021916908373ffffffffffffffffffffffffffffffffffffffff160217905550506100ff565b5f5ffd5b5f73ffffffffffffffffffffffffffffffffffffffff82169050919050565b5f6100a38261007a565b9050919050565b6100b381610099565b81146100bd575f5ffd5b50565b5f815190506100ce816100aa565b92915050565b5f602082840312156100e9576100e8610076565b5b5f6100f6848285016100c0565b91505092915050565b611c168061010c5f395ff3fe608060405234801561000f575f5ffd5b5060043610610055575f3560e01c80634e6b63d31461005957806359e985551461007757806360bf1aba146100a75780636c1041a8146100d75780636ccedf77146100f3575b5f5ffd5b610061610123565b60405161006e91906111c9565b60405180910390f35b610091600480360381019061008c919061122e565b610147565b60405161009e9190611268565b60405180910390f35b6100c160048036038101906100bc91906112b4565b610180565b6040516100ce91906112f9565b60405180910390f35b6100f160048036038101906100ec9190611373565b61019d565b005b61010d60048036038101906101089190611412565b61067d565b60405161011a91906114c1565b60405180910390f35b5f5f9054906101000a900473ffffffffffffffffffffffffffffffffffffffff1681565b6001602052805f5260405f205f91509050805f015f9054906101000a900473ffffffffffffffffffffffffffffffffffffffff16905081565b6002602052805f5260405f205f915054906101000a900460ff1681565b600382829050146101e3576040517f08c379a00000000000000000000000000000000000000000000000000000000081526004016101da9061152b565b60405180910390fd5b3373ffffffffffffffffffffffffffffffffffffffff168373ffffffffffffffffffffffffffffffffffffffff1603610251576040517f08c379a000000000000000000000000000000000000000000000000000000000815260040161024890611593565b60405180910390fd5b60405180604001604052803373ffffffffffffffffffffffffffffffffffffffff1681526020018383808060200260200160405190810160405280939291908181526020018383602002808284375f81840152601f19601f8201169050808301925050505050505081525060015f3373ffffffffffffffffffffffffffffffffffffffff1673ffffffffffffffffffffffffffffffffffffffff1681526020019081526020015f205f820151815f015f6101000a81548173ffffffffffffffffffffffffffffffffffffffff021916908373ffffffffffffffffffffffffffffffffffffffff1602179055506020820151816001019080519060200190610359929190611077565b509050508273ffffffffffffffffffffffffffffffffffffffff1660015f8573ffffffffffffffffffffffffffffffffffffffff1673ffffffffffffffffffffffffffffffffffffffff1681526020019081526020015f205f015f9054906101000a900473ffffffffffffffffffffffffffffffffffffffff1673ffffffffffffffffffffffffffffffffffffffff1603610678575f60015f8573ffffffffffffffffffffffffffffffffffffffff1673ffffffffffffffffffffffffffffffffffffffff1681526020019081526020015f2060010180548060200260200160405190810160405280929190818152602001828054801561047757602002820191905f5260205f20905b815481526020019060010190808311610463575b505050505090505f8383808060200260200160405190810160405280939291908181526020018383602002808284375f81840152601f19601f8201169050808301925050505050505090505f6104cf33838886610bf1565b90508573ffffffffffffffffffffffffffffffffffffffff163373ffffffffffffffffffffffffffffffffffffffff167fe318cd9c03c37c933577dadf40ff165d042b12e1dca9487536f20fffaead2e918360405161052e9190611268565b60405180910390a35f338760405160200161054a9291906115f6565b604051602081830303815290604052805190602001209050600160025f8381526020019081526020015f205f6101000a81548160ff02191690831515021790555060015f3373ffffffffffffffffffffffffffffffffffffffff1673ffffffffffffffffffffffffffffffffffffffff1681526020019081526020015f205f5f82015f6101000a81549073ffffffffffffffffffffffffffffffffffffffff0219169055600182015f6105fd91906110c2565b505060015f8873ffffffffffffffffffffffffffffffffffffffff1673ffffffffffffffffffffffffffffffffffffffff1681526020019081526020015f205f5f82015f6101000a81549073ffffffffffffffffffffffffffffffffffffffff0219169055600182015f61067191906110c2565b5050505050505b505050565b60606106876110e0565b61068f6110e0565b5f5f90505b600381101561082c5760028582600381106106b2576106b1611621565b5b60a002015f0160208101906106c79190611671565b60028111156106d9576106d861169c565b5b60ff16111561071d576040517f08c379a000000000000000000000000000000000000000000000000000000000815260040161071490611713565b60405180910390fd5b600285826003811061073257610731611621565b5b60a0020160200160208101906107489190611754565b600281111561075a5761075961169c565b5b60ff16111561079e576040517f08c379a0000000000000000000000000000000000000000000000000000000008152600401610795906117c9565b60405180910390fd5b60038582600381106107b3576107b2611621565b5b60a0020160400160208101906107c9919061180a565b60038111156107db576107da61169c565b5b60ff16111561081f576040517f08c379a00000000000000000000000000000000000000000000000000000000081526004016108169061187f565b60405180910390fd5b8080600101915050610694565b505f5f90505b600381101561094e575f5f5f9054906101000a900473ffffffffffffffffffffffffffffffffffffffff1673ffffffffffffffffffffffffffffffffffffffff1663d44888fe88846003811061088b5761088a611621565b5b60200201356040518263ffffffff1660e01b81526004016108ac91906118b5565b60a060405180830381865afa1580156108c7573d5f5f3e3d5ffd5b505050506040513d601f19601f820116820180604052508101906108eb9190611a45565b90506040518060600160405280826060015160ff168152602001826080015160ff16815260200161091f8360400151610f9b565b60ff1681525084836003811061093857610937611621565b5b6020020181905250508080600101915050610832565b505f5f90505b60038110156109e8575f85826003811061097157610970611621565b5b60a002018036038101906109859190611b0d565b90506040518060600160405280826060015160ff168152602001826080015160ff1681526020016109b98360400151610f9b565b60ff168152508383600381106109d2576109d1611621565b5b6020020181905250508080600101915050610954565b505f5f90505f5f90505f5f90505b6003811015610b1b575f858260038110610a1357610a12611621565b5b602002015160400151868360038110610a2f57610a2e611621565b5b602002015160200151878460038110610a4b57610a4a611621565b5b60200201515f0151610a5d9190611b65565b610a679190611b65565b60ff1690505f858360038110610a8057610a7f611621565b5b602002015160400151868460038110610a9c57610a9b611621565b5b602002015160200151878560038110610ab857610ab7611621565b5b60200201515f0151610aca9190611b65565b610ad49190611b65565b60ff16905080821115610af4578480610aec90611b99565b955050610b0c565b81811115610b0b578380610b0790611b99565b9450505b5b505080806001019150506109f6565b5080821115610b65576040518060400160405280600681526020017f506c617965720000000000000000000000000000000000000000000000000000815250945050505050610beb565b81811115610bae576040518060400160405280600881526020017f436f6d7075746572000000000000000000000000000000000000000000000000815250945050505050610beb565b6040518060400160405280600481526020017f44726177000000000000000000000000000000000000000000000000000000008152509450505050505b92915050565b5f610bfa6110e0565b610c026110e0565b5f5f90505b6003811015610e2f575f5f5f9054906101000a900473ffffffffffffffffffffffffffffffffffffffff1673ffffffffffffffffffffffffffffffffffffffff1663d44888fe898481518110610c6057610c5f611621565b5b60200260200101516040518263ffffffff1660e01b8152600401610c8491906118b5565b60a060405180830381865afa158015610c9f573d5f5f3e3d5ffd5b505050506040513d601f19601f82011682018060405250810190610cc39190611a45565b90505f5f5f9054906101000a900473ffffffffffffffffffffffffffffffffffffffff1673ffffffffffffffffffffffffffffffffffffffff1663d44888fe888581518110610d1557610d14611621565b5b60200260200101516040518263ffffffff1660e01b8152600401610d3991906118b5565b60a060405180830381865afa158015610d54573d5f5f3e3d5ffd5b505050506040513d601f19601f82011682018060405250810190610d789190611a45565b90506040518060600160405280836060015160ff168152602001836080015160ff168152602001610dac8460400151610f9b565b60ff16815250858460038110610dc557610dc4611621565b5b60200201819052506040518060600160405280826060015160ff168152602001826080015160ff168152602001610dff8360400151610f9b565b60ff16815250848460038110610e1857610e17611621565b5b602002018190525050508080600101915050610c07565b505f5f90505f5f90505f5f90505b6003811015610f62575f858260038110610e5a57610e59611621565b5b602002015160400151868360038110610e7657610e75611621565b5b602002015160200151878460038110610e9257610e91611621565b5b60200201515f0151610ea49190611b65565b610eae9190611b65565b60ff1690505f858360038110610ec757610ec6611621565b5b602002015160400151868460038110610ee357610ee2611621565b5b602002015160200151878560038110610eff57610efe611621565b5b60200201515f0151610f119190611b65565b610f1b9190611b65565b60ff16905080821115610f3b578480610f3390611b99565b955050610f53565b81811115610f52578380610f4e90611b99565b9450505b5b50508080600101915050610e3d565b5080821115610f775788945050505050610f93565b81811115610f8b5786945050505050610f93565b5f9450505050505b949350505050565b5f5f6003811115610faf57610fae61169c565b5b826003811115610fc257610fc161169c565b5b03610fd05760019050611072565b60016003811115610fe457610fe361169c565b5b826003811115610ff757610ff661169c565b5b036110055760029050611072565b600260038111156110195761101861169c565b5b82600381111561102c5761102b61169c565b5b0361103a5760039050611072565b60038081111561104d5761104c61169c565b5b8260038111156110605761105f61169c565b5b0361106e5760059050611072565b5f90505b919050565b828054828255905f5260205f209081019282156110b1579160200282015b828111156110b0578251825591602001919060010190611095565b5b5090506110be919061110d565b5090565b5080545f8255905f5260205f20908101906110dd919061110d565b50565b60405180606001604052806003905b6110f7611128565b8152602001906001900390816110ef5790505090565b5b80821115611124575f815f90555060010161110e565b5090565b60405180606001604052805f60ff1681526020015f60ff1681526020015f60ff1681525090565b5f73ffffffffffffffffffffffffffffffffffffffff82169050919050565b5f819050919050565b5f61119161118c6111878461114f565b61116e565b61114f565b9050919050565b5f6111a282611177565b9050919050565b5f6111b382611198565b9050919050565b6111c3816111a9565b82525050565b5f6020820190506111dc5f8301846111ba565b92915050565b5f604051905090565b5f5ffd5b5f5ffd5b5f6111fd8261114f565b9050919050565b61120d816111f3565b8114611217575f5ffd5b50565b5f8135905061122881611204565b92915050565b5f60208284031215611243576112426111eb565b5b5f6112508482850161121a565b91505092915050565b611262816111f3565b82525050565b5f60208201905061127b5f830184611259565b92915050565b5f819050919050565b61129381611281565b811461129d575f5ffd5b50565b5f813590506112ae8161128a565b92915050565b5f602082840312156112c9576112c86111eb565b5b5f6112d6848285016112a0565b91505092915050565b5f8115159050919050565b6112f3816112df565b82525050565b5f60208201905061130c5f8301846112ea565b92915050565b5f5ffd5b5f5ffd5b5f5ffd5b5f5f83601f84011261133357611332611312565b5b8235905067ffffffffffffffff8111156113505761134f611316565b5b60208301915083602082028301111561136c5761136b61131a565b5b9250929050565b5f5f5f6040848603121561138a576113896111eb565b5b5f6113978682870161121a565b935050602084013567ffffffffffffffff8111156113b8576113b76111ef565b5b6113c48682870161131e565b92509250509250925092565b5f819050826020600302820111156113eb576113ea61131a565b5b92915050565b5f8190508260a06003028201111561140c5761140b61131a565b5b92915050565b5f5f6102408385031215611429576114286111eb565b5b5f611436858286016113d0565b9250506060611447858286016113f1565b9150509250929050565b5f81519050919050565b5f82825260208201905092915050565b8281835e5f83830152505050565b5f601f19601f8301169050919050565b5f61149382611451565b61149d818561145b565b93506114ad81856020860161146b565b6114b681611479565b840191505092915050565b5f6020820190508181035f8301526114d98184611489565b905092915050565b7f4d7573742073656c6563742065786163746c79203320636172647300000000005f82015250565b5f611515601b8361145b565b9150611520826114e1565b602082019050919050565b5f6020820190508181035f83015261154281611509565b9050919050565b7f43616e277420626174746c6520796f757273656c6600000000000000000000005f82015250565b5f61157d60158361145b565b915061158882611549565b602082019050919050565b5f6020820190508181035f8301526115aa81611571565b9050919050565b5f8160601b9050919050565b5f6115c7826115b1565b9050919050565b5f6115d8826115bd565b9050919050565b6115f06115eb826111f3565b6115ce565b82525050565b5f61160182856115df565b60148201915061161182846115df565b6014820191508190509392505050565b7f4e487b71000000000000000000000000000000000000000000000000000000005f52603260045260245ffd5b6003811061165a575f5ffd5b50565b5f8135905061166b8161164e565b92915050565b5f60208284031215611686576116856111eb565b5b5f6116938482850161165d565b91505092915050565b7f4e487b71000000000000000000000000000000000000000000000000000000005f52602160045260245ffd5b7f496e76616c696420636c617373547970650000000000000000000000000000005f82015250565b5f6116fd60118361145b565b9150611708826116c9565b602082019050919050565b5f6020820190508181035f83015261172a816116f1565b9050919050565b6003811061173d575f5ffd5b50565b5f8135905061174e81611731565b92915050565b5f60208284031215611769576117686111eb565b5b5f61177684828501611740565b91505092915050565b7f496e76616c696420656c656d656e7400000000000000000000000000000000005f82015250565b5f6117b3600f8361145b565b91506117be8261177f565b602082019050919050565b5f6020820190508181035f8301526117e0816117a7565b9050919050565b600481106117f3575f5ffd5b50565b5f81359050611804816117e7565b92915050565b5f6020828403121561181f5761181e6111eb565b5b5f61182c848285016117f6565b91505092915050565b7f496e76616c6964207261726974790000000000000000000000000000000000005f82015250565b5f611869600e8361145b565b915061187482611835565b602082019050919050565b5f6020820190508181035f8301526118968161185d565b9050919050565b5f819050919050565b6118af8161189d565b82525050565b5f6020820190506118c85f8301846118a6565b92915050565b5f5ffd5b7f4e487b71000000000000000000000000000000000000000000000000000000005f52604160045260245ffd5b61190882611479565b810181811067ffffffffffffffff82111715611927576119266118d2565b5b80604052505050565b5f6119396111e2565b905061194582826118ff565b919050565b5f815190506119588161164e565b92915050565b5f8151905061196c81611731565b92915050565b5f81519050611980816117e7565b92915050565b5f60ff82169050919050565b61199b81611986565b81146119a5575f5ffd5b50565b5f815190506119b681611992565b92915050565b5f60a082840312156119d1576119d06118ce565b5b6119db60a0611930565b90505f6119ea8482850161194a565b5f8301525060206119fd8482850161195e565b6020830152506040611a1184828501611972565b6040830152506060611a25848285016119a8565b6060830152506080611a39848285016119a8565b60808301525092915050565b5f60a08284031215611a5a57611a596111eb565b5b5f611a67848285016119bc565b91505092915050565b5f81359050611a7e81611992565b92915050565b5f60a08284031215611a9957611a986118ce565b5b611aa360a0611930565b90505f611ab28482850161165d565b5f830152506020611ac584828501611740565b6020830152506040611ad9848285016117f6565b6040830152506060611aed84828501611a70565b6060830152506080611b0184828501611a70565b60808301525092915050565b5f60a08284031215611b2257611b216111eb565b5b5f611b2f84828501611a84565b91505092915050565b7f4e487b71000000000000000000000000000000000000000000000000000000005f52601160045260245ffd5b5f611b6f82611986565b9150611b7a83611986565b9250828201905060ff811115611b9357611b92611b38565b5b92915050565b5f611ba38261189d565b91507fffffffffffffffffffffffffffffffffffffffffffffffffffffffffffffffff8203611bd557611bd4611b38565b5b60018201905091905056fea2646970667358221220a47a12ff57965575a4ac5453310e1cb682531ab208eada2bafd1185138fcbab764736f6c634300081e0033","linkReferences":{}},"methodIdentifiers":{"battleAgainstComputer(uint256[3],(uint8,uint8,uint8,uint8,uint8)[3])":"6ccedf77","cardGame()":"4e6b63d3","initiatePvPBattle(address,uint256[])":"6c1041a8","pendingBattles(address)":"59e98555","resolvedBattles(bytes32)":"60bf1aba"},"id":35}