{"abi":[{"type":"constructor","inputs":[],"stateMutability":"nonpayable"},{"type":"function","name":"approve","inputs":[{"name":"to","type":"address","internalType":"address"},{"name":"tokenId","type":"uint256","internalType":"uint256"}],"outputs":[],"stateMutability":"nonpayable"},{"type":"function","name":"balanceOf","inputs":[{"name":"owner","type":"address","internalType":"address"}],"outputs":[{"name":"","type":"uint256","internalType":"uint256"}],"stateMutability":"view"},{"type":"function","name":"cardStats","inputs":[{"name":"","type":"uint256","internalType":"uint256"}],"outputs":[{"name":"classType","type":"uint8","internalType":"enum CardGame.Class"},{"name":"element","type":"uint8","internalType":"enum CardGame.Element"},{"name":"rarity","type":"uint8","internalType":"enum CardGame.Rarity"},{"name":"attack","type":"uint8","internalType":"uint8"},{"name":"defense","type":"uint8","internalType":"uint8"}],"stateMutability":"view"},{"type":"function","name":"claimStarterPack","inputs":[],"outputs":[],"stateMutability":"nonpayable"},{"type":"function","name":"getApproved","inputs":[{"name":"tokenId","type":"uint256","internalType":"uint256"}],"outputs":[{"name":"","type":"address","internalType":"address"}],"stateMutability":"view"},{"type":"function","name":"getCardStats","inputs":[{"name":"tokenId","type":"uint256","internalType":"uint256"}],"outputs":[{"name":"","type":"tuple","internalType":"struct CardGame.CardStats","components":[{"name":"classType","type":"uint8","internalType":"enum CardGame.Class"},{"name":"element","type":"uint8","internalType":"enum CardGame.Element"},{"name":"rarity","type":"uint8","internalType":"enum CardGame.Rarity"},{"name":"attack","type":"uint8","internalType":"uint8"},{"name":"defense","type":"uint8","internalType":"uint8"}]}],"stateMutability":"view"},{"type":"function","name":"hasClaimedStarterPack","inputs":[{"name":"","type":"address","internalType":"address"}],"outputs":[{"name":"","type":"bool","internalType":"bool"}],"stateMutability":"view"},{"type":"function","name":"isApprovedForAll","inputs":[{"name":"owner","type":"address","internalType":"address"},{"name":"operator","type":"address","internalType":"address"}],"outputs":[{"name":"","type":"bool","internalType":"bool"}],"stateMutability":"view"},{"type":"function","name":"name","inputs":[],"outputs":[{"name":"","type":"string","internalType":"string"}],"stateMutability":"view"},{"type":"function","name":"nextTokenId","inputs":[],"outputs":[{"name":"","type":"uint256","internalType":"uint256"}],"stateMutability":"view"},{"type":"function","name":"owner","inputs":[],"outputs":[{"name":"","type":"address","internalType":"address"}],"stateMutability":"view"},{"type":"function","name":"ownerOf","inputs":[{"name":"tokenId","type":"uint256","internalType":"uint256"}],"outputs":[{"name":"","type":"address","internalType":"address"}],"stateMutability":"view"},{"type":"function","name":"renounceOwnership","inputs":[],"outputs":[],"stateMutability":"nonpayable"},{"type":"function","name":"safeTransferFrom","inputs":[{"name":"from","type":"address","internalType":"address"},{"name":"to","type":"address","internalType":"address"},{"name":"tokenId","type":"uint256","internalType":"uint256"}],"outputs":[],"stateMutability":"nonpayable"},{"type":"function","name":"safeTransferFrom","inputs":[{"name":"from","type":"address","internalType":"address"},{"name":"to","type":"address","internalType":"address"},{"name":"tokenId","type":"uint256","internalType":"uint256"},{"name":"data","type":"bytes","internalType":"bytes"}],"outputs":[],"stateMutability":"nonpayable"},{"type":"function","name":"setApprovalForAll","inputs":[{"name":"operator","type":"address","internalType":"address"},{"name":"approved","type":"bool","internalType":"bool"}],"outputs":[],"stateMutability":"nonpayable"},{"type":"function","name":"supportsInterface","inputs":[{"name":"interfaceId","type":"bytes4","internalType":"bytes4"}],"outputs":[{"name":"","type":"bool","internalType":"bool"}],"stateMutability":"view"},{"type":"function","name":"symbol","inputs":[],"outputs":[{"name":"","type":"string","internalType":"string"}],"stateMutability":"view"},{"type":"function","name":"tokenURI","inputs":[{"name":"tokenId","type":"uint256","internalType":"uint256"}],"outputs":[{"name":"","type":"string","internalType":"string"}],"stateMutability":"view"},{"type":"function","name":"tokensOfOwner","inputs":[{"name":"owner","type":"address","internalType":"address"}],"outputs":[{"name":"","type":"uint256[]","internalType":"uint256[]"}],"stateMutability":"view"},{"type":"function","name":"transferFrom","inputs":[{"name":"from","type":"address","internalType":"address"},{"name":"to","type":"address","internalType":"address"},{"name":"tokenId","type":"uint256","internalType":"uint256"}],"outputs":[],"stateMutability":"nonpayable"},{"type":"function","name":"transferOwnership","inputs":[{"name":"newOwner","type":"address","internalType":"address"}],"outputs":[],"stateMutability":"nonpayable"},{"type":"event","name":"Approval","inputs":[{"name":"owner","type":"address","indexed":true,"internalType":"address"},{"name":"approved","type":"address","indexed":true,"internalType":"address"},{"name":"tokenId","type":"uint256","indexed":true,"internalType":"uint256"}],"anonymous":false},{"type":"event","name":"ApprovalForAll","inputs":[{"name":"owner","type":"address","indexed":true,"internalType":"address"},{"name":"operator","type":"address","indexed":true,"internalType":"address"},{"name":"approved","type":"bool","indexed":false,"internalType":"bool"}],"anonymous":false},{"type":"event","name":"BatchMetadataUpdate","inputs":[{"name":"_fromTokenId","type":"uint256","indexed":false,"internalType":"uint256"},{"name":"_toTokenId","type":"uint256","indexed":false,"internalType":"uint256"}],"anonymous":false},{"type":"event","name":"MetadataUpdate","inputs":[{"name":"_tokenId","type":"uint256","indexed":false,"internalType":"uint256"}],"anonymous":false},{"type":"event","name":"OwnershipTransferred","inputs":[{"name":"previousOwner","type":"address","indexed":true,"internalType":"address"},{"name":"newOwner","type":"address","indexed":true,"internalType":"address"}],"anonymous":false},{"type":"event","name":"StarterPackClaimed","inputs":[{"name":"user","type":"address","indexed":true,"internalType":"address"},{"name":"hasClaimedStarterPack","type":"bool","indexed":false,"internalType":"bool"}],"anonymous":false},{"type":"event","name":"Transfer","inputs":[{"name":"from","type":"address","indexed":true,"internalType":"address"},{"name":"to","type":"address","indexed":true,"internalType":"address"},{"name":"tokenId","type":"uint256","indexed":true,"internalType":"uint256"}],"anonymous":false},{"type":"error","name":"ERC721IncorrectOwner","inputs":[{"name":"sender","type":"address","internalType":"address"},{"name":"tokenId","type":"uint256","internalType":"uint256"},{"name":"owner","type":"address","internalType":"address"}]},{"type":"error","name":"ERC721InsufficientApproval","inputs":[{"name":"operator","type":"address","internalType":"address"},{"name":"tokenId","type":"uint256","internalType":"uint256"}]},{"type":"error","name":"ERC721InvalidApprover","inputs":[{"name":"approver","type":"address","internalType":"address"}]},{"type":"error","name":"ERC721InvalidOperator","inputs":[{"name":"operator","type":"address","internalType":"address"}]},{"type":"error","name":"ERC721InvalidOwner","inputs":[{"name":"owner","type":"address","internalType":"address"}]},{"type":"error","name":"ERC721InvalidReceiver","inputs":[{"name":"receiver","type":"address","internalType":"address"}]},{"type":"error","name":"ERC721InvalidSender","inputs":[{"name":"sender","type":"address","internalType":"address"}]},{"type":"error","name":"ERC721NonexistentToken","inputs":[{"name":"tokenId","type":"uint256","internalType":"uint256"}]},{"type":"error","name":"OwnableInvalidOwner","inputs":[{"name":"owner","type":"address","internalType":"address"}]},{"type":"error","name":"OwnableUnauthorizedAccount","inputs":[{"name":"account","type":"address","internalType":"address"}]}],"bytecode":{"object":"0x60806040526001600855348015610014575f5ffd5b50336040518060400160405280600a81526020017f426174746c6543617264000000000000000000000000000000000000000000008152506040518060400160405280600481526020017f4243524400000000000000000000000000000000000000000000000000000000815250815f90816100909190610428565b5080600190816100a09190610428565b5050505f73ffffffffffffffffffffffffffffffffffffffff168173ffffffffffffffffffffffffffffffffffffffff1603610113575f6040517f1e4fbdf700000000000000000000000000000000000000000000000000000000815260040161010a9190610536565b60405180910390fd5b6101228161012860201b60201c565b5061054f565b5f60075f9054906101000a900473ffffffffffffffffffffffffffffffffffffffff1690508160075f6101000a81548173ffffffffffffffffffffffffffffffffffffffff021916908373ffffffffffffffffffffffffffffffffffffffff1602179055508173ffffffffffffffffffffffffffffffffffffffff168173ffffffffffffffffffffffffffffffffffffffff167f8be0079c531659141344cd1fd0a4f28419497f9722a3daafe3b4186f6b6457e060405160405180910390a35050565b5f81519050919050565b7f4e487b71000000000000000000000000000000000000000000000000000000005f52604160045260245ffd5b7f4e487b71000000000000000000000000000000000000000000000000000000005f52602260045260245ffd5b5f600282049050600182168061026657607f821691505b60208210810361027957610278610222565b5b50919050565b5f819050815f5260205f209050919050565b5f6020601f8301049050919050565b5f82821b905092915050565b5f600883026102db7fffffffffffffffffffffffffffffffffffffffffffffffffffffffffffffffff826102a0565b6102e586836102a0565b95508019841693508086168417925050509392505050565b5f819050919050565b5f819050919050565b5f61032961032461031f846102fd565b610306565b6102fd565b9050919050565b5f819050919050565b6103428361030f565b61035661034e82610330565b8484546102ac565b825550505050565b5f5f905090565b61036d61035e565b610378818484610339565b505050565b5b8181101561039b576103905f82610365565b60018101905061037e565b5050565b601f8211156103e0576103b18161027f565b6103ba84610291565b810160208510156103c9578190505b6103dd6103d585610291565b83018261037d565b50505b505050565b5f82821c905092915050565b5f6104005f19846008026103e5565b1980831691505092915050565b5f61041883836103f1565b9150826002028217905092915050565b610431826101eb565b67ffffffffffffffff81111561044a576104496101f5565b5b610454825461024f565b61045f82828561039f565b5f60209050601f831160018114610490575f841561047e578287015190505b610488858261040d565b8655506104ef565b601f19841661049e8661027f565b5f5b828110156104c5578489015182556001820191506020850194506020810190506104a0565b868310156104e257848901516104de601f8916826103f1565b8355505b6001600288020188555050505b505050505050565b5f73ffffffffffffffffffffffffffffffffffffffff82169050919050565b5f610520826104f7565b9050919050565b61053081610516565b82525050565b5f6020820190506105495f830184610527565b92915050565b6132128061055c5f395ff3fe608060405234801561000f575f5ffd5b5060043610610140575f3560e01c80638462151c116100b6578063b88d4fde1161007a578063b88d4fde14610364578063c87b56dd14610380578063d44888fe146103b0578063e86badf4146103e0578063e985e9c514610410578063f2fde38b1461044057610140565b80638462151c146102d25780638da5cb5b1461030257806395d89b41146103205780639cd51d251461033e578063a22cb4651461034857610140565b806342842e0e1161010857806342842e0e146101fa5780634c77fe2a146102165780636352211e1461024a57806370a082311461027a578063715018a6146102aa57806375794a3c146102b457610140565b806301ffc9a71461014457806306fdde0314610174578063081812fc14610192578063095ea7b3146101c257806323b872dd146101de575b5f5ffd5b61015e6004803603810190610159919061227c565b61045c565b60405161016b91906122c1565b60405180910390f35b61017c6104bc565b604051610189919061234a565b60405180910390f35b6101ac60048036038101906101a7919061239d565b61054b565b6040516101b99190612407565b60405180910390f35b6101dc60048036038101906101d7919061244a565b610566565b005b6101f860048036038101906101f39190612488565b61057c565b005b610214600480360381019061020f9190612488565b61067b565b005b610230600480360381019061022b919061239d565b61069a565b6040516102419594939291906125f2565b60405180910390f35b610264600480360381019061025f919061239d565b610708565b6040516102719190612407565b60405180910390f35b610294600480360381019061028f9190612643565b610719565b6040516102a1919061267d565b60405180910390f35b6102b26107cf565b005b6102bc6107e2565b6040516102c9919061267d565b60405180910390f35b6102ec60048036038101906102e79190612643565b6107e8565b6040516102f9919061274d565b60405180910390f35b61030a610962565b6040516103179190612407565b60405180910390f35b61032861098a565b604051610335919061234a565b60405180910390f35b610346610a1a565b005b610362600480360381019061035d9190612797565b610b73565b005b61037e60048036038101906103799190612901565b610b89565b005b61039a6004803603810190610395919061239d565b610bae565b6040516103a7919061234a565b60405180910390f35b6103ca60048036038101906103c5919061239d565b610cb9565b6040516103d79190612a23565b60405180910390f35b6103fa60048036038101906103f59190612643565b610dc9565b60405161040791906122c1565b60405180910390f35b61042a60048036038101906104259190612a3c565b610de6565b60405161043791906122c1565b60405180910390f35b61045a60048036038101906104559190612643565b610e74565b005b5f634906490660e01b7bffffffffffffffffffffffffffffffffffffffffffffffffffffffff1916827bffffffffffffffffffffffffffffffffffffffffffffffffffffffff191614806104b557506104b482610ef8565b5b9050919050565b60605f80546104ca90612aa7565b80601f01602080910402602001604051908101604052809291908181526020018280546104f690612aa7565b80156105415780601f1061051857610100808354040283529160200191610541565b820191905f5260205f20905b81548152906001019060200180831161052457829003601f168201915b5050505050905090565b5f61055582610fd9565b5061055f8261105f565b9050919050565b6105788282610573611098565b61109f565b5050565b5f73ffffffffffffffffffffffffffffffffffffffff168273ffffffffffffffffffffffffffffffffffffffff16036105ec575f6040517f64a0ae920000000000000000000000000000000000000000000000000000000081526004016105e39190612407565b60405180910390fd5b5f6105ff83836105fa611098565b6110b1565b90508373ffffffffffffffffffffffffffffffffffffffff168173ffffffffffffffffffffffffffffffffffffffff1614610675578382826040517f64283d7b00000000000000000000000000000000000000000000000000000000815260040161066c93929190612ad7565b60405180910390fd5b50505050565b61069583838360405180602001604052805f815250610b89565b505050565b6009602052805f5260405f205f91509050805f015f9054906101000a900460ff1690805f0160019054906101000a900460ff1690805f0160029054906101000a900460ff1690805f0160039054906101000a900460ff1690805f0160049054906101000a900460ff16905085565b5f61071282610fd9565b9050919050565b5f5f73ffffffffffffffffffffffffffffffffffffffff168273ffffffffffffffffffffffffffffffffffffffff160361078a575f6040517f89c62b640000000000000000000000000000000000000000000000000000000081526004016107819190612407565b60405180910390fd5b60035f8373ffffffffffffffffffffffffffffffffffffffff1673ffffffffffffffffffffffffffffffffffffffff1681526020019081526020015f20549050919050565b6107d76112bc565b6107e05f611343565b565b60085481565b60605f6107f483610719565b90505f8167ffffffffffffffff811115610811576108106127dd565b5b60405190808252806020026020018201604052801561083f5781602001602082028036833780820191505090505b5090505f5f90505f61271090505f600190505b81811115801561086157508483105b15610955573073ffffffffffffffffffffffffffffffffffffffff16636352211e826040518263ffffffff1660e01b815260040161089f919061267d565b602060405180830381865afa9250505080156108d957506040513d601f19601f820116820180604052508101906108d69190612b20565b60015b15610942578773ffffffffffffffffffffffffffffffffffffffff168173ffffffffffffffffffffffffffffffffffffffff1603610940578185858151811061092557610924612b4b565b5b602002602001018181525050838061093c90612ba5565b9450505b505b808061094d90612ba5565b915050610852565b5082945050505050919050565b5f60075f9054906101000a900473ffffffffffffffffffffffffffffffffffffffff16905090565b60606001805461099990612aa7565b80601f01602080910402602001604051908101604052809291908181526020018280546109c590612aa7565b8015610a105780601f106109e757610100808354040283529160200191610a10565b820191905f5260205f20905b8154815290600101906020018083116109f357829003601f168201915b5050505050905090565b5f600a5f3373ffffffffffffffffffffffffffffffffffffffff1673ffffffffffffffffffffffffffffffffffffffff1681526020019081526020015f205f9054906101000a900460ff1690508015610aa8576040517f08c379a0000000000000000000000000000000000000000000000000000000008152600401610a9f90612c36565b60405180910390fd5b3373ffffffffffffffffffffffffffffffffffffffff167f07dcc58b329a6d4c410612d6fe28ef59fc1efe3ecdfc0cfb8263732e1bd7b21082604051610aee91906122c1565b60405180910390a25f5f90505b6005811015610b1a57610b0d33611406565b8080600101915050610afb565b506001600a5f3373ffffffffffffffffffffffffffffffffffffffff1673ffffffffffffffffffffffffffffffffffffffff1681526020019081526020015f205f6101000a81548160ff02191690831515021790555050565b610b85610b7e611098565b8383611551565b5050565b610b9484848461057c565b610ba8610b9f611098565b858585856116ba565b50505050565b6060610bb982610fd9565b505f60065f8481526020019081526020015f208054610bd790612aa7565b80601f0160208091040260200160405190810160405280929190818152602001828054610c0390612aa7565b8015610c4e5780601f10610c2557610100808354040283529160200191610c4e565b820191905f5260205f20905b815481529060010190602001808311610c3157829003601f168201915b505050505090505f610c5e611866565b90505f815103610c72578192505050610cb4565b5f82511115610ca6578082604051602001610c8e929190612c8e565b60405160208183030381529060405292505050610cb4565b610caf8461187c565b925050505b919050565b610cc16121b0565b60095f8381526020019081526020015f206040518060a00160405290815f82015f9054906101000a900460ff166002811115610d0057610cff6124d8565b5b6002811115610d1257610d116124d8565b5b81526020015f820160019054906101000a900460ff166002811115610d3a57610d396124d8565b5b6002811115610d4c57610d4b6124d8565b5b81526020015f820160029054906101000a900460ff166003811115610d7457610d736124d8565b5b6003811115610d8657610d856124d8565b5b81526020015f820160039054906101000a900460ff1660ff1660ff1681526020015f820160049054906101000a900460ff1660ff1660ff16815250509050919050565b600a602052805f5260405f205f915054906101000a900460ff1681565b5f60055f8473ffffffffffffffffffffffffffffffffffffffff1673ffffffffffffffffffffffffffffffffffffffff1681526020019081526020015f205f8373ffffffffffffffffffffffffffffffffffffffff1673ffffffffffffffffffffffffffffffffffffffff1681526020019081526020015f205f9054906101000a900460ff16905092915050565b610e7c6112bc565b5f73ffffffffffffffffffffffffffffffffffffffff168173ffffffffffffffffffffffffffffffffffffffff1603610eec575f6040517f1e4fbdf7000000000000000000000000000000000000000000000000000000008152600401610ee39190612407565b60405180910390fd5b610ef581611343565b50565b5f7f80ac58cd000000000000000000000000000000000000000000000000000000007bffffffffffffffffffffffffffffffffffffffffffffffffffffffff1916827bffffffffffffffffffffffffffffffffffffffffffffffffffffffff19161480610fc257507f5b5e139f000000000000000000000000000000000000000000000000000000007bffffffffffffffffffffffffffffffffffffffffffffffffffffffff1916827bffffffffffffffffffffffffffffffffffffffffffffffffffffffff1916145b80610fd25750610fd1826118e2565b5b9050919050565b5f5f610fe48361194b565b90505f73ffffffffffffffffffffffffffffffffffffffff168173ffffffffffffffffffffffffffffffffffffffff160361105657826040517f7e27328900000000000000000000000000000000000000000000000000000000815260040161104d919061267d565b60405180910390fd5b80915050919050565b5f60045f8381526020019081526020015f205f9054906101000a900473ffffffffffffffffffffffffffffffffffffffff169050919050565b5f33905090565b6110ac8383836001611984565b505050565b5f5f6110bc8461194b565b90505f73ffffffffffffffffffffffffffffffffffffffff168373ffffffffffffffffffffffffffffffffffffffff16146110fd576110fc818486611b43565b5b5f73ffffffffffffffffffffffffffffffffffffffff168173ffffffffffffffffffffffffffffffffffffffff16146111885761113c5f855f5f611984565b600160035f8373ffffffffffffffffffffffffffffffffffffffff1673ffffffffffffffffffffffffffffffffffffffff1681526020019081526020015f205f82825403925050819055505b5f73ffffffffffffffffffffffffffffffffffffffff168573ffffffffffffffffffffffffffffffffffffffff161461120757600160035f8773ffffffffffffffffffffffffffffffffffffffff1673ffffffffffffffffffffffffffffffffffffffff1681526020019081526020015f205f82825401925050819055505b8460025f8681526020019081526020015f205f6101000a81548173ffffffffffffffffffffffffffffffffffffffff021916908373ffffffffffffffffffffffffffffffffffffffff160217905550838573ffffffffffffffffffffffffffffffffffffffff168273ffffffffffffffffffffffffffffffffffffffff167fddf252ad1be2c89b69c2b068fc378daa952ba7f163c4a11628f55a4df523b3ef60405160405180910390a4809150509392505050565b6112c4611098565b73ffffffffffffffffffffffffffffffffffffffff166112e2610962565b73ffffffffffffffffffffffffffffffffffffffff161461134157611305611098565b6040517f118cdaa70000000000000000000000000000000000000000000000000000000081526004016113389190612407565b60405180910390fd5b565b5f60075f9054906101000a900473ffffffffffffffffffffffffffffffffffffffff1690508160075f6101000a81548173ffffffffffffffffffffffffffffffffffffffff021916908373ffffffffffffffffffffffffffffffffffffffff1602179055508173ffffffffffffffffffffffffffffffffffffffff168173ffffffffffffffffffffffffffffffffffffffff167f8be0079c531659141344cd1fd0a4f28419497f9722a3daafe3b4186f6b6457e060405160405180910390a35050565b5f60085f81548092919061141990612ba5565b9190505590505f61142a825f611c06565b90508060095f8481526020019081526020015f205f820151815f015f6101000a81548160ff02191690836002811115611466576114656124d8565b5b02179055506020820151815f0160016101000a81548160ff02191690836002811115611495576114946124d8565b5b02179055506040820151815f0160026101000a81548160ff021916908360038111156114c4576114c36124d8565b5b02179055506060820151815f0160036101000a81548160ff021916908360ff1602179055506080820151815f0160046101000a81548160ff021916908360ff1602179055509050506115168383611d48565b5f61152083611d65565b6040516020016115309190612d45565b604051602081830303815290604052905061154b8382611e2f565b50505050565b5f73ffffffffffffffffffffffffffffffffffffffff168273ffffffffffffffffffffffffffffffffffffffff16036115c157816040517f5b08ba180000000000000000000000000000000000000000000000000000000081526004016115b89190612407565b60405180910390fd5b8060055f8573ffffffffffffffffffffffffffffffffffffffff1673ffffffffffffffffffffffffffffffffffffffff1681526020019081526020015f205f8473ffffffffffffffffffffffffffffffffffffffff1673ffffffffffffffffffffffffffffffffffffffff1681526020019081526020015f205f6101000a81548160ff0219169083151502179055508173ffffffffffffffffffffffffffffffffffffffff168373ffffffffffffffffffffffffffffffffffffffff167f17307eab39ab6107e8899845ad3d59bd9653f200f220920489ca2b5937696c31836040516116ad91906122c1565b60405180910390a3505050565b5f8373ffffffffffffffffffffffffffffffffffffffff163b111561185f578273ffffffffffffffffffffffffffffffffffffffff1663150b7a02868685856040518563ffffffff1660e01b81526004016117189493929190612dc3565b6020604051808303815f875af192505050801561175357506040513d601f19601f820116820180604052508101906117509190612e21565b60015b6117d4573d805f8114611781576040519150601f19603f3d011682016040523d82523d5f602084013e611786565b606091505b505f8151036117cc57836040517f64a0ae920000000000000000000000000000000000000000000000000000000081526004016117c39190612407565b60405180910390fd5b805181602001fd5b63150b7a0260e01b7bffffffffffffffffffffffffffffffffffffffffffffffffffffffff1916817bffffffffffffffffffffffffffffffffffffffffffffffffffffffff19161461185d57836040517f64a0ae920000000000000000000000000000000000000000000000000000000081526004016118549190612407565b60405180910390fd5b505b5050505050565b606060405180602001604052805f815250905090565b606061188782610fd9565b505f611891611866565b90505f8151116118af5760405180602001604052805f8152506118da565b806118b984611d65565b6040516020016118ca929190612c8e565b6040516020818303038152906040525b915050919050565b5f7f01ffc9a7000000000000000000000000000000000000000000000000000000007bffffffffffffffffffffffffffffffffffffffffffffffffffffffff1916827bffffffffffffffffffffffffffffffffffffffffffffffffffffffff1916149050919050565b5f60025f8381526020019081526020015f205f9054906101000a900473ffffffffffffffffffffffffffffffffffffffff169050919050565b80806119bc57505f73ffffffffffffffffffffffffffffffffffffffff168273ffffffffffffffffffffffffffffffffffffffff1614155b15611aee575f6119cb84610fd9565b90505f73ffffffffffffffffffffffffffffffffffffffff168373ffffffffffffffffffffffffffffffffffffffff1614158015611a3557508273ffffffffffffffffffffffffffffffffffffffff168173ffffffffffffffffffffffffffffffffffffffff1614155b8015611a485750611a468184610de6565b155b15611a8a57826040517fa9fbf51f000000000000000000000000000000000000000000000000000000008152600401611a819190612407565b60405180910390fd5b8115611aec57838573ffffffffffffffffffffffffffffffffffffffff168273ffffffffffffffffffffffffffffffffffffffff167f8c5be1e5ebec7d5bd14f71427d1e84f3dd0314c0f7b2291e5b200ac8c7c3b92560405160405180910390a45b505b8360045f8581526020019081526020015f205f6101000a81548173ffffffffffffffffffffffffffffffffffffffff021916908373ffffffffffffffffffffffffffffffffffffffff16021790555050505050565b611b4e838383611e89565b611c01575f73ffffffffffffffffffffffffffffffffffffffff168373ffffffffffffffffffffffffffffffffffffffff1603611bc257806040517f7e273289000000000000000000000000000000000000000000000000000000008152600401611bb9919061267d565b60405180910390fd5b81816040517f177e802f000000000000000000000000000000000000000000000000000000008152600401611bf8929190612e4c565b60405180910390fd5b505050565b611c0e6121b0565b5f83604051602001611c209190612e93565b604051602081830303815290604052805190602001205f1c90505f600382611c489190612eda565b6002811115611c5a57611c596124d8565b5b90505f6003600a84611c6c9190612f0a565b611c769190612eda565b6002811115611c8857611c876124d8565b5b90505f600590505f600385611c9d9190612eda565b8260ff16611cab9190612f3a565b90505f6003606487611cbd9190612f0a565b611cc79190612eda565b8360ff16611cd59190612f3a565b90506040518060a00160405280866002811115611cf557611cf46124d8565b5b8152602001856002811115611d0d57611d0c6124d8565b5b8152602001896003811115611d2557611d246124d8565b5b81526020018360ff1681526020018260ff16815250965050505050505092915050565b611d61828260405180602001604052805f815250611f49565b5050565b60605f6001611d7384611f6c565b0190505f8167ffffffffffffffff811115611d9157611d906127dd565b5b6040519080825280601f01601f191660200182016040528015611dc35781602001600182028036833780820191505090505b5090505f82602001820190505b600115611e24578080600190039150507f3031323334353637383961626364656600000000000000000000000000000000600a86061a8153600a8581611e1957611e18612ead565b5b0494505f8503611dd0575b819350505050919050565b8060065f8481526020019081526020015f209081611e4d919061310d565b507ff8e1a15aba9398e019f0b49df1a4fde98ee17ae345cb5f6b5e2c27f5033e8ce782604051611e7d919061267d565b60405180910390a15050565b5f5f73ffffffffffffffffffffffffffffffffffffffff168373ffffffffffffffffffffffffffffffffffffffff1614158015611f4057508273ffffffffffffffffffffffffffffffffffffffff168473ffffffffffffffffffffffffffffffffffffffff161480611f015750611f008484610de6565b5b80611f3f57508273ffffffffffffffffffffffffffffffffffffffff16611f278361105f565b73ffffffffffffffffffffffffffffffffffffffff16145b5b90509392505050565b611f5383836120bd565b611f67611f5e611098565b5f8585856116ba565b505050565b5f5f5f90507a184f03e93ff9f4daa797ed6e38ed64bf6a1f0100000000000000008310611fc8577a184f03e93ff9f4daa797ed6e38ed64bf6a1f0100000000000000008381611fbe57611fbd612ead565b5b0492506040810190505b6d04ee2d6d415b85acef81000000008310612005576d04ee2d6d415b85acef81000000008381611ffb57611ffa612ead565b5b0492506020810190505b662386f26fc10000831061203457662386f26fc10000838161202a57612029612ead565b5b0492506010810190505b6305f5e100831061205d576305f5e100838161205357612052612ead565b5b0492506008810190505b612710831061208257612710838161207857612077612ead565b5b0492506004810190505b606483106120a5576064838161209b5761209a612ead565b5b0492506002810190505b600a83106120b4576001810190505b80915050919050565b5f73ffffffffffffffffffffffffffffffffffffffff168273ffffffffffffffffffffffffffffffffffffffff160361212d575f6040517f64a0ae920000000000000000000000000000000000000000000000000000000081526004016121249190612407565b60405180910390fd5b5f61213983835f6110b1565b90505f73ffffffffffffffffffffffffffffffffffffffff168173ffffffffffffffffffffffffffffffffffffffff16146121ab575f6040517f73c6ac6e0000000000000000000000000000000000000000000000000000000081526004016121a29190612407565b60405180910390fd5b505050565b6040518060a001604052805f60028111156121ce576121cd6124d8565b5b81526020015f60028111156121e6576121e56124d8565b5b81526020015f60038111156121fe576121fd6124d8565b5b81526020015f60ff1681526020015f60ff1681525090565b5f604051905090565b5f5ffd5b5f5ffd5b5f7fffffffff0000000000000000000000000000000000000000000000000000000082169050919050565b61225b81612227565b8114612265575f5ffd5b50565b5f8135905061227681612252565b92915050565b5f602082840312156122915761229061221f565b5b5f61229e84828501612268565b91505092915050565b5f8115159050919050565b6122bb816122a7565b82525050565b5f6020820190506122d45f8301846122b2565b92915050565b5f81519050919050565b5f82825260208201905092915050565b8281835e5f83830152505050565b5f601f19601f8301169050919050565b5f61231c826122da565b61232681856122e4565b93506123368185602086016122f4565b61233f81612302565b840191505092915050565b5f6020820190508181035f8301526123628184612312565b905092915050565b5f819050919050565b61237c8161236a565b8114612386575f5ffd5b50565b5f8135905061239781612373565b92915050565b5f602082840312156123b2576123b161221f565b5b5f6123bf84828501612389565b91505092915050565b5f73ffffffffffffffffffffffffffffffffffffffff82169050919050565b5f6123f1826123c8565b9050919050565b612401816123e7565b82525050565b5f60208201905061241a5f8301846123f8565b92915050565b612429816123e7565b8114612433575f5ffd5b50565b5f8135905061244481612420565b92915050565b5f5f604083850312156124605761245f61221f565b5b5f61246d85828601612436565b925050602061247e85828601612389565b9150509250929050565b5f5f5f6060848603121561249f5761249e61221f565b5b5f6124ac86828701612436565b93505060206124bd86828701612436565b92505060406124ce86828701612389565b9150509250925092565b7f4e487b71000000000000000000000000000000000000000000000000000000005f52602160045260245ffd5b60038110612516576125156124d8565b5b50565b5f81905061252682612505565b919050565b5f61253582612519565b9050919050565b6125458161252b565b82525050565b6003811061255c5761255b6124d8565b5b50565b5f81905061256c8261254b565b919050565b5f61257b8261255f565b9050919050565b61258b81612571565b82525050565b600481106125a2576125a16124d8565b5b50565b5f8190506125b282612591565b919050565b5f6125c1826125a5565b9050919050565b6125d1816125b7565b82525050565b5f60ff82169050919050565b6125ec816125d7565b82525050565b5f60a0820190506126055f83018861253c565b6126126020830187612582565b61261f60408301866125c8565b61262c60608301856125e3565b61263960808301846125e3565b9695505050505050565b5f602082840312156126585761265761221f565b5b5f61266584828501612436565b91505092915050565b6126778161236a565b82525050565b5f6020820190506126905f83018461266e565b92915050565b5f81519050919050565b5f82825260208201905092915050565b5f819050602082019050919050565b6126c88161236a565b82525050565b5f6126d983836126bf565b60208301905092915050565b5f602082019050919050565b5f6126fb82612696565b61270581856126a0565b9350612710836126b0565b805f5b8381101561274057815161272788826126ce565b9750612732836126e5565b925050600181019050612713565b5085935050505092915050565b5f6020820190508181035f83015261276581846126f1565b905092915050565b612776816122a7565b8114612780575f5ffd5b50565b5f813590506127918161276d565b92915050565b5f5f604083850312156127ad576127ac61221f565b5b5f6127ba85828601612436565b92505060206127cb85828601612783565b9150509250929050565b5f5ffd5b5f5ffd5b7f4e487b71000000000000000000000000000000000000000000000000000000005f52604160045260245ffd5b61281382612302565b810181811067ffffffffffffffff82111715612832576128316127dd565b5b80604052505050565b5f612844612216565b9050612850828261280a565b919050565b5f67ffffffffffffffff82111561286f5761286e6127dd565b5b61287882612302565b9050602081019050919050565b828183375f83830152505050565b5f6128a56128a084612855565b61283b565b9050828152602081018484840111156128c1576128c06127d9565b5b6128cc848285612885565b509392505050565b5f82601f8301126128e8576128e76127d5565b5b81356128f8848260208601612893565b91505092915050565b5f5f5f5f608085870312156129195761291861221f565b5b5f61292687828801612436565b945050602061293787828801612436565b935050604061294887828801612389565b925050606085013567ffffffffffffffff81111561296957612968612223565b5b612975878288016128d4565b91505092959194509250565b61298a8161252b565b82525050565b61299981612571565b82525050565b6129a8816125b7565b82525050565b6129b7816125d7565b82525050565b60a082015f8201516129d15f850182612981565b5060208201516129e46020850182612990565b5060408201516129f7604085018261299f565b506060820151612a0a60608501826129ae565b506080820151612a1d60808501826129ae565b50505050565b5f60a082019050612a365f8301846129bd565b92915050565b5f5f60408385031215612a5257612a5161221f565b5b5f612a5f85828601612436565b9250506020612a7085828601612436565b9150509250929050565b7f4e487b71000000000000000000000000000000000000000000000000000000005f52602260045260245ffd5b5f6002820490506001821680612abe57607f821691505b602082108103612ad157612ad0612a7a565b5b50919050565b5f606082019050612aea5f8301866123f8565b612af7602083018561266e565b612b0460408301846123f8565b949350505050565b5f81519050612b1a81612420565b92915050565b5f60208284031215612b3557612b3461221f565b5b5f612b4284828501612b0c565b91505092915050565b7f4e487b71000000000000000000000000000000000000000000000000000000005f52603260045260245ffd5b7f4e487b71000000000000000000000000000000000000000000000000000000005f52601160045260245ffd5b5f612baf8261236a565b91507fffffffffffffffffffffffffffffffffffffffffffffffffffffffffffffffff8203612be157612be0612b78565b5b600182019050919050565b7f416c726561647920636c61696d656400000000000000000000000000000000005f82015250565b5f612c20600f836122e4565b9150612c2b82612bec565b602082019050919050565b5f6020820190508181035f830152612c4d81612c14565b9050919050565b5f81905092915050565b5f612c68826122da565b612c728185612c54565b9350612c828185602086016122f4565b80840191505092915050565b5f612c998285612c5e565b9150612ca58284612c5e565b91508190509392505050565b7f697066733a2f2f516d2e2e2e2f000000000000000000000000000000000000005f82015250565b5f612ce5600d83612c54565b9150612cf082612cb1565b600d82019050919050565b7f2e6a736f6e0000000000000000000000000000000000000000000000000000005f82015250565b5f612d2f600583612c54565b9150612d3a82612cfb565b600582019050919050565b5f612d4f82612cd9565b9150612d5b8284612c5e565b9150612d6682612d23565b915081905092915050565b5f81519050919050565b5f82825260208201905092915050565b5f612d9582612d71565b612d9f8185612d7b565b9350612daf8185602086016122f4565b612db881612302565b840191505092915050565b5f608082019050612dd65f8301876123f8565b612de360208301866123f8565b612df0604083018561266e565b8181036060830152612e028184612d8b565b905095945050505050565b5f81519050612e1b81612252565b92915050565b5f60208284031215612e3657612e3561221f565b5b5f612e4384828501612e0d565b91505092915050565b5f604082019050612e5f5f8301856123f8565b612e6c602083018461266e565b9392505050565b5f819050919050565b612e8d612e888261236a565b612e73565b82525050565b5f612e9e8284612e7c565b60208201915081905092915050565b7f4e487b71000000000000000000000000000000000000000000000000000000005f52601260045260245ffd5b5f612ee48261236a565b9150612eef8361236a565b925082612eff57612efe612ead565b5b828206905092915050565b5f612f148261236a565b9150612f1f8361236a565b925082612f2f57612f2e612ead565b5b828204905092915050565b5f612f448261236a565b9150612f4f8361236a565b9250828201905080821115612f6757612f66612b78565b5b92915050565b5f819050815f5260205f209050919050565b5f6020601f8301049050919050565b5f82821b905092915050565b5f60088302612fc97fffffffffffffffffffffffffffffffffffffffffffffffffffffffffffffffff82612f8e565b612fd38683612f8e565b95508019841693508086168417925050509392505050565b5f819050919050565b5f61300e6130096130048461236a565b612feb565b61236a565b9050919050565b5f819050919050565b61302783612ff4565b61303b61303382613015565b848454612f9a565b825550505050565b5f5f905090565b613052613043565b61305d81848461301e565b505050565b5b81811015613080576130755f8261304a565b600181019050613063565b5050565b601f8211156130c55761309681612f6d565b61309f84612f7f565b810160208510156130ae578190505b6130c26130ba85612f7f565b830182613062565b50505b505050565b5f82821c905092915050565b5f6130e55f19846008026130ca565b1980831691505092915050565b5f6130fd83836130d6565b9150826002028217905092915050565b613116826122da565b67ffffffffffffffff81111561312f5761312e6127dd565b5b6131398254612aa7565b613144828285613084565b5f60209050601f831160018114613175575f8415613163578287015190505b61316d85826130f2565b8655506131d4565b601f19841661318386612f6d565b5f5b828110156131aa57848901518255600182019150602085019450602081019050613185565b868310156131c757848901516131c3601f8916826130d6565b8355505b6001600288020188555050505b50505050505056fea2646970667358221220ec0165ec86c51ab260c4f4bf40e563e5dc4a5648b0a3ecd22e6e7760f31e13d264736f6c634300081e0033","linkReferences":{}},"methodIdentifiers":{"approve(address,uint256)":"095ea7b3","balanceOf(address)":"70a08231","cardStats(uint256)":"4c77fe2a","claimStarterPack()":"9cd51d25","getApproved(uint256)":"081812fc","getCardStats(uint256)":"d44888fe","hasClaimedStarterPack(address)":"e86badf4","isApprovedForAll(address,address)":"e985e9c5","name()":"06fdde03","nextTokenId()":"75794a3c","owner()":"8da5cb5b","ownerOf(uint256)":"6352211e","renounceOwnership()":"715018a6","safeTransferFrom(address,address,uint256)":"42842e0e","safeTransferFrom(address,address,uint256,bytes)":"b88d4fde","setApprovalForAll(address,bool)":"a22cb465","supportsInterface(bytes4)":"01ffc9a7","symbol()":"95d89b41","tokenURI(uint256)":"c87b56dd","tokensOfOwner(address)":"8462151c","transferFrom(address,address,uint256)":"23b872dd","transferOwnership(address)":"f2fde38b"},"id":42}