{"abi":[{"type":"constructor","inputs":[],"stateMutability":"nonpayable"},{"type":"function","name":"approve","inputs":[{"name":"to","type":"address","internalType":"address"},{"name":"tokenId","type":"uint256","internalType":"uint256"}],"outputs":[],"stateMutability":"nonpayable"},{"type":"function","name":"balanceOf","inputs":[{"name":"owner","type":"address","internalType":"address"}],"outputs":[{"name":"","type":"uint256","internalType":"uint256"}],"stateMutability":"view"},{"type":"function","name":"cardStats","inputs":[{"name":"","type":"uint256","internalType":"uint256"}],"outputs":[{"name":"classType","type":"uint8","internalType":"enum CardGame.Class"},{"name":"element","type":"uint8","internalType":"enum CardGame.Element"},{"name":"rarity","type":"uint8","internalType":"enum CardGame.Rarity"},{"name":"attack","type":"uint8","internalType":"uint8"},{"name":"defense","type":"uint8","internalType":"uint8"}],"stateMutability":"view"},{"type":"function","name":"claimStarterPack","inputs":[],"outputs":[],"stateMutability":"nonpayable"},{"type":"function","name":"getApproved","inputs":[{"name":"tokenId","type":"uint256","internalType":"uint256"}],"outputs":[{"name":"","type":"address","internalType":"address"}],"stateMutability":"view"},{"type":"function","name":"getCardStats","inputs":[{"name":"tokenId","type":"uint256","internalType":"uint256"}],"outputs":[{"name":"","type":"tuple","internalType":"struct CardGame.CardStats","components":[{"name":"classType","type":"uint8","internalType":"enum CardGame.Class"},{"name":"element","type":"uint8","internalType":"enum CardGame.Element"},{"name":"rarity","type":"uint8","internalType":"enum CardGame.Rarity"},{"name":"attack","type":"uint8","internalType":"uint8"},{"name":"defense","type":"uint8","internalType":"uint8"}]}],"stateMutability":"view"},{"type":"function","name":"hasClaimedStarterPack","inputs":[{"name":"","type":"address","internalType":"address"}],"outputs":[{"name":"","type":"bool","internalType":"bool"}],"stateMutability":"view"},{"type":"function","name":"isApprovedForAll","inputs":[{"name":"owner","type":"address","internalType":"address"},{"name":"operator","type":"address","internalType":"address"}],"outputs":[{"name":"","type":"bool","internalType":"bool"}],"stateMutability":"view"},{"type":"function","name":"name","inputs":[],"outputs":[{"name":"","type":"string","internalType":"string"}],"stateMutability":"view"},{"type":"function","name":"nextTokenId","inputs":[],"outputs":[{"name":"","type":"uint256","internalType":"uint256"}],"stateMutability":"view"},{"type":"function","name":"owner","inputs":[],"outputs":[{"name":"","type":"address","internalType":"address"}],"stateMutability":"view"},{"type":"function","name":"ownerOf","inputs":[{"name":"tokenId","type":"uint256","internalType":"uint256"}],"outputs":[{"name":"","type":"address","internalType":"address"}],"stateMutability":"view"},{"type":"function","name":"renounceOwnership","inputs":[],"outputs":[],"stateMutability":"nonpayable"},{"type":"function","name":"safeTransferFrom","inputs":[{"name":"from","type":"address","internalType":"address"},{"name":"to","type":"address","internalType":"address"},{"name":"tokenId","type":"uint256","internalType":"uint256"}],"outputs":[],"stateMutability":"nonpayable"},{"type":"function","name":"safeTransferFrom","inputs":[{"name":"from","type":"address","internalType":"address"},{"name":"to","type":"address","internalType":"address"},{"name":"tokenId","type":"uint256","internalType":"uint256"},{"name":"data","type":"bytes","internalType":"bytes"}],"outputs":[],"stateMutability":"nonpayable"},{"type":"function","name":"setApprovalForAll","inputs":[{"name":"operator","type":"address","internalType":"address"},{"name":"approved","type":"bool","internalType":"bool"}],"outputs":[],"stateMutability":"nonpayable"},{"type":"function","name":"supportsInterface","inputs":[{"name":"interfaceId","type":"bytes4","internalType":"bytes4"}],"outputs":[{"name":"","type":"bool","internalType":"bool"}],"stateMutability":"view"},{"type":"function","name":"symbol","inputs":[],"outputs":[{"name":"","type":"string","internalType":"string"}],"stateMutability":"view"},{"type":"function","name":"tokenURI","inputs":[{"name":"tokenId","type":"uint256","internalType":"uint256"}],"outputs":[{"name":"","type":"string","internalType":"string"}],"stateMutability":"view"},{"type":"function","name":"transferFrom","inputs":[{"name":"from","type":"address","internalType":"address"},{"name":"to","type":"address","internalType":"address"},{"name":"tokenId","type":"uint256","internalType":"uint256"}],"outputs":[],"stateMutability":"nonpayable"},{"type":"function","name":"transferOwnership","inputs":[{"name":"newOwner","type":"address","internalType":"address"}],"outputs":[],"stateMutability":"nonpayable"},{"type":"event","name":"Approval","inputs":[{"name":"owner","type":"address","indexed":true,"internalType":"address"},{"name":"approved","type":"address","indexed":true,"internalType":"address"},{"name":"tokenId","type":"uint256","indexed":true,"internalType":"uint256"}],"anonymous":false},{"type":"event","name":"ApprovalForAll","inputs":[{"name":"owner","type":"address","indexed":true,"internalType":"address"},{"name":"operator","type":"address","indexed":true,"internalType":"address"},{"name":"approved","type":"bool","indexed":false,"internalType":"bool"}],"anonymous":false},{"type":"event","name":"BatchMetadataUpdate","inputs":[{"name":"_fromTokenId","type":"uint256","indexed":false,"internalType":"uint256"},{"name":"_toTokenId","type":"uint256","indexed":false,"internalType":"uint256"}],"anonymous":false},{"type":"event","name":"MetadataUpdate","inputs":[{"name":"_tokenId","type":"uint256","indexed":false,"internalType":"uint256"}],"anonymous":false},{"type":"event","name":"OwnershipTransferred","inputs":[{"name":"previousOwner","type":"address","indexed":true,"internalType":"address"},{"name":"newOwner","type":"address","indexed":true,"internalType":"address"}],"anonymous":false},{"type":"event","name":"Transfer","inputs":[{"name":"from","type":"address","indexed":true,"internalType":"address"},{"name":"to","type":"address","indexed":true,"internalType":"address"},{"name":"tokenId","type":"uint256","indexed":true,"internalType":"uint256"}],"anonymous":false},{"type":"error","name":"ERC721IncorrectOwner","inputs":[{"name":"sender","type":"address","internalType":"address"},{"name":"tokenId","type":"uint256","internalType":"uint256"},{"name":"owner","type":"address","internalType":"address"}]},{"type":"error","name":"ERC721InsufficientApproval","inputs":[{"name":"operator","type":"address","internalType":"address"},{"name":"tokenId","type":"uint256","internalType":"uint256"}]},{"type":"error","name":"ERC721InvalidApprover","inputs":[{"name":"approver","type":"address","internalType":"address"}]},{"type":"error","name":"ERC721InvalidOperator","inputs":[{"name":"operator","type":"address","internalType":"address"}]},{"type":"error","name":"ERC721InvalidOwner","inputs":[{"name":"owner","type":"address","internalType":"address"}]},{"type":"error","name":"ERC721InvalidReceiver","inputs":[{"name":"receiver","type":"address","internalType":"address"}]},{"type":"error","name":"ERC721InvalidSender","inputs":[{"name":"sender","type":"address","internalType":"address"}]},{"type":"error","name":"ERC721NonexistentToken","inputs":[{"name":"tokenId","type":"uint256","internalType":"uint256"}]},{"type":"error","name":"OwnableInvalidOwner","inputs":[{"name":"owner","type":"address","internalType":"address"}]},{"type":"error","name":"OwnableUnauthorizedAccount","inputs":[{"name":"account","type":"address","internalType":"address"}]}],"bytecode":{"object":"0x60806040526001600855348015610014575f5ffd5b50336040518060400160405280600a81526020017f426174746c6543617264000000000000000000000000000000000000000000008152506040518060400160405280600481526020017f4243524400000000000000000000000000000000000000000000000000000000815250815f90816100909190610428565b5080600190816100a09190610428565b5050505f73ffffffffffffffffffffffffffffffffffffffff168173ffffffffffffffffffffffffffffffffffffffff1603610113575f6040517f1e4fbdf700000000000000000000000000000000000000000000000000000000815260040161010a9190610536565b60405180910390fd5b6101228161012860201b60201c565b5061054f565b5f60075f9054906101000a900473ffffffffffffffffffffffffffffffffffffffff1690508160075f6101000a81548173ffffffffffffffffffffffffffffffffffffffff021916908373ffffffffffffffffffffffffffffffffffffffff1602179055508173ffffffffffffffffffffffffffffffffffffffff168173ffffffffffffffffffffffffffffffffffffffff167f8be0079c531659141344cd1fd0a4f28419497f9722a3daafe3b4186f6b6457e060405160405180910390a35050565b5f81519050919050565b7f4e487b71000000000000000000000000000000000000000000000000000000005f52604160045260245ffd5b7f4e487b71000000000000000000000000000000000000000000000000000000005f52602260045260245ffd5b5f600282049050600182168061026657607f821691505b60208210810361027957610278610222565b5b50919050565b5f819050815f5260205f209050919050565b5f6020601f8301049050919050565b5f82821b905092915050565b5f600883026102db7fffffffffffffffffffffffffffffffffffffffffffffffffffffffffffffffff826102a0565b6102e586836102a0565b95508019841693508086168417925050509392505050565b5f819050919050565b5f819050919050565b5f61032961032461031f846102fd565b610306565b6102fd565b9050919050565b5f819050919050565b6103428361030f565b61035661034e82610330565b8484546102ac565b825550505050565b5f5f905090565b61036d61035e565b610378818484610339565b505050565b5b8181101561039b576103905f82610365565b60018101905061037e565b5050565b601f8211156103e0576103b18161027f565b6103ba84610291565b810160208510156103c9578190505b6103dd6103d585610291565b83018261037d565b50505b505050565b5f82821c905092915050565b5f6104005f19846008026103e5565b1980831691505092915050565b5f61041883836103f1565b9150826002028217905092915050565b610431826101eb565b67ffffffffffffffff81111561044a576104496101f5565b5b610454825461024f565b61045f82828561039f565b5f60209050601f831160018114610490575f841561047e578287015190505b610488858261040d565b8655506104ef565b601f19841661049e8661027f565b5f5b828110156104c5578489015182556001820191506020850194506020810190506104a0565b868310156104e257848901516104de601f8916826103f1565b8355505b6001600288020188555050505b505050505050565b5f73ffffffffffffffffffffffffffffffffffffffff82169050919050565b5f610520826104f7565b9050919050565b61053081610516565b82525050565b5f6020820190506105495f830184610527565b92915050565b612ec78061055c5f395ff3fe608060405234801561000f575f5ffd5b5060043610610135575f3560e01c806375794a3c116100b6578063b88d4fde1161007a578063b88d4fde14610329578063c87b56dd14610345578063d44888fe14610375578063e86badf4146103a5578063e985e9c5146103d5578063f2fde38b1461040557610135565b806375794a3c146102a95780638da5cb5b146102c757806395d89b41146102e55780639cd51d2514610303578063a22cb4651461030d57610135565b806342842e0e116100fd57806342842e0e146101ef5780634c77fe2a1461020b5780636352211e1461023f57806370a082311461026f578063715018a61461029f57610135565b806301ffc9a71461013957806306fdde0314610169578063081812fc14610187578063095ea7b3146101b757806323b872dd146101d3575b5f5ffd5b610153600480360381019061014e9190612074565b610421565b60405161016091906120b9565b60405180910390f35b610171610481565b60405161017e9190612142565b60405180910390f35b6101a1600480360381019061019c9190612195565b610510565b6040516101ae91906121ff565b60405180910390f35b6101d160048036038101906101cc9190612242565b61052b565b005b6101ed60048036038101906101e89190612280565b610541565b005b61020960048036038101906102049190612280565b610640565b005b61022560048036038101906102209190612195565b61065f565b6040516102369594939291906123ea565b60405180910390f35b61025960048036038101906102549190612195565b6106cd565b60405161026691906121ff565b60405180910390f35b6102896004803603810190610284919061243b565b6106de565b6040516102969190612475565b60405180910390f35b6102a7610794565b005b6102b16107a7565b6040516102be9190612475565b60405180910390f35b6102cf6107ad565b6040516102dc91906121ff565b60405180910390f35b6102ed6107d5565b6040516102fa9190612142565b60405180910390f35b61030b610865565b005b610327600480360381019061032291906124b8565b61096b565b005b610343600480360381019061033e9190612622565b610981565b005b61035f600480360381019061035a9190612195565b6109a6565b60405161036c9190612142565b60405180910390f35b61038f600480360381019061038a9190612195565b610ab1565b60405161039c9190612744565b60405180910390f35b6103bf60048036038101906103ba919061243b565b610bc1565b6040516103cc91906120b9565b60405180910390f35b6103ef60048036038101906103ea919061275d565b610bde565b6040516103fc91906120b9565b60405180910390f35b61041f600480360381019061041a919061243b565b610c6c565b005b5f634906490660e01b7bffffffffffffffffffffffffffffffffffffffffffffffffffffffff1916827bffffffffffffffffffffffffffffffffffffffffffffffffffffffff1916148061047a575061047982610cf0565b5b9050919050565b60605f805461048f906127c8565b80601f01602080910402602001604051908101604052809291908181526020018280546104bb906127c8565b80156105065780601f106104dd57610100808354040283529160200191610506565b820191905f5260205f20905b8154815290600101906020018083116104e957829003601f168201915b5050505050905090565b5f61051a82610dd1565b5061052482610e57565b9050919050565b61053d8282610538610e90565b610e97565b5050565b5f73ffffffffffffffffffffffffffffffffffffffff168273ffffffffffffffffffffffffffffffffffffffff16036105b1575f6040517f64a0ae920000000000000000000000000000000000000000000000000000000081526004016105a891906121ff565b60405180910390fd5b5f6105c483836105bf610e90565b610ea9565b90508373ffffffffffffffffffffffffffffffffffffffff168173ffffffffffffffffffffffffffffffffffffffff161461063a578382826040517f64283d7b000000000000000000000000000000000000000000000000000000008152600401610631939291906127f8565b60405180910390fd5b50505050565b61065a83838360405180602001604052805f815250610981565b505050565b6009602052805f5260405f205f91509050805f015f9054906101000a900460ff1690805f0160019054906101000a900460ff1690805f0160029054906101000a900460ff1690805f0160039054906101000a900460ff1690805f0160049054906101000a900460ff16905085565b5f6106d782610dd1565b9050919050565b5f5f73ffffffffffffffffffffffffffffffffffffffff168273ffffffffffffffffffffffffffffffffffffffff160361074f575f6040517f89c62b6400000000000000000000000000000000000000000000000000000000815260040161074691906121ff565b60405180910390fd5b60035f8373ffffffffffffffffffffffffffffffffffffffff1673ffffffffffffffffffffffffffffffffffffffff1681526020019081526020015f20549050919050565b61079c6110b4565b6107a55f61113b565b565b60085481565b5f60075f9054906101000a900473ffffffffffffffffffffffffffffffffffffffff16905090565b6060600180546107e4906127c8565b80601f0160208091040260200160405190810160405280929190818152602001828054610810906127c8565b801561085b5780601f106108325761010080835404028352916020019161085b565b820191905f5260205f20905b81548152906001019060200180831161083e57829003601f168201915b5050505050905090565b600a5f3373ffffffffffffffffffffffffffffffffffffffff1673ffffffffffffffffffffffffffffffffffffffff1681526020019081526020015f205f9054906101000a900460ff16156108ef576040517f08c379a00000000000000000000000000000000000000000000000000000000081526004016108e690612877565b60405180910390fd5b6001600a5f3373ffffffffffffffffffffffffffffffffffffffff1673ffffffffffffffffffffffffffffffffffffffff1681526020019081526020015f205f6101000a81548160ff0219169083151502179055505f5f90505b60058110156109685761095b336111fe565b8080600101915050610949565b50565b61097d610976610e90565b8383611349565b5050565b61098c848484610541565b6109a0610997610e90565b858585856114b2565b50505050565b60606109b182610dd1565b505f60065f8481526020019081526020015f2080546109cf906127c8565b80601f01602080910402602001604051908101604052809291908181526020018280546109fb906127c8565b8015610a465780601f10610a1d57610100808354040283529160200191610a46565b820191905f5260205f20905b815481529060010190602001808311610a2957829003601f168201915b505050505090505f610a5661165e565b90505f815103610a6a578192505050610aac565b5f82511115610a9e578082604051602001610a869291906128cf565b60405160208183030381529060405292505050610aac565b610aa784611674565b925050505b919050565b610ab9611fa8565b60095f8381526020019081526020015f206040518060a00160405290815f82015f9054906101000a900460ff166002811115610af857610af76122d0565b5b6002811115610b0a57610b096122d0565b5b81526020015f820160019054906101000a900460ff166002811115610b3257610b316122d0565b5b6002811115610b4457610b436122d0565b5b81526020015f820160029054906101000a900460ff166003811115610b6c57610b6b6122d0565b5b6003811115610b7e57610b7d6122d0565b5b81526020015f820160039054906101000a900460ff1660ff1660ff1681526020015f820160049054906101000a900460ff1660ff1660ff16815250509050919050565b600a602052805f5260405f205f915054906101000a900460ff1681565b5f60055f8473ffffffffffffffffffffffffffffffffffffffff1673ffffffffffffffffffffffffffffffffffffffff1681526020019081526020015f205f8373ffffffffffffffffffffffffffffffffffffffff1673ffffffffffffffffffffffffffffffffffffffff1681526020019081526020015f205f9054906101000a900460ff16905092915050565b610c746110b4565b5f73ffffffffffffffffffffffffffffffffffffffff168173ffffffffffffffffffffffffffffffffffffffff1603610ce4575f6040517f1e4fbdf7000000000000000000000000000000000000000000000000000000008152600401610cdb91906121ff565b60405180910390fd5b610ced8161113b565b50565b5f7f80ac58cd000000000000000000000000000000000000000000000000000000007bffffffffffffffffffffffffffffffffffffffffffffffffffffffff1916827bffffffffffffffffffffffffffffffffffffffffffffffffffffffff19161480610dba57507f5b5e139f000000000000000000000000000000000000000000000000000000007bffffffffffffffffffffffffffffffffffffffffffffffffffffffff1916827bffffffffffffffffffffffffffffffffffffffffffffffffffffffff1916145b80610dca5750610dc9826116da565b5b9050919050565b5f5f610ddc83611743565b90505f73ffffffffffffffffffffffffffffffffffffffff168173ffffffffffffffffffffffffffffffffffffffff1603610e4e57826040517f7e273289000000000000000000000000000000000000000000000000000000008152600401610e459190612475565b60405180910390fd5b80915050919050565b5f60045f8381526020019081526020015f205f9054906101000a900473ffffffffffffffffffffffffffffffffffffffff169050919050565b5f33905090565b610ea4838383600161177c565b505050565b5f5f610eb484611743565b90505f73ffffffffffffffffffffffffffffffffffffffff168373ffffffffffffffffffffffffffffffffffffffff1614610ef557610ef481848661193b565b5b5f73ffffffffffffffffffffffffffffffffffffffff168173ffffffffffffffffffffffffffffffffffffffff1614610f8057610f345f855f5f61177c565b600160035f8373ffffffffffffffffffffffffffffffffffffffff1673ffffffffffffffffffffffffffffffffffffffff1681526020019081526020015f205f82825403925050819055505b5f73ffffffffffffffffffffffffffffffffffffffff168573ffffffffffffffffffffffffffffffffffffffff1614610fff57600160035f8773ffffffffffffffffffffffffffffffffffffffff1673ffffffffffffffffffffffffffffffffffffffff1681526020019081526020015f205f82825401925050819055505b8460025f8681526020019081526020015f205f6101000a81548173ffffffffffffffffffffffffffffffffffffffff021916908373ffffffffffffffffffffffffffffffffffffffff160217905550838573ffffffffffffffffffffffffffffffffffffffff168273ffffffffffffffffffffffffffffffffffffffff167fddf252ad1be2c89b69c2b068fc378daa952ba7f163c4a11628f55a4df523b3ef60405160405180910390a4809150509392505050565b6110bc610e90565b73ffffffffffffffffffffffffffffffffffffffff166110da6107ad565b73ffffffffffffffffffffffffffffffffffffffff1614611139576110fd610e90565b6040517f118cdaa700000000000000000000000000000000000000000000000000000000815260040161113091906121ff565b60405180910390fd5b565b5f60075f9054906101000a900473ffffffffffffffffffffffffffffffffffffffff1690508160075f6101000a81548173ffffffffffffffffffffffffffffffffffffffff021916908373ffffffffffffffffffffffffffffffffffffffff1602179055508173ffffffffffffffffffffffffffffffffffffffff168173ffffffffffffffffffffffffffffffffffffffff167f8be0079c531659141344cd1fd0a4f28419497f9722a3daafe3b4186f6b6457e060405160405180910390a35050565b5f60085f8154809291906112119061291f565b9190505590505f611222825f6119fe565b90508060095f8481526020019081526020015f205f820151815f015f6101000a81548160ff0219169083600281111561125e5761125d6122d0565b5b02179055506020820151815f0160016101000a81548160ff0219169083600281111561128d5761128c6122d0565b5b02179055506040820151815f0160026101000a81548160ff021916908360038111156112bc576112bb6122d0565b5b02179055506060820151815f0160036101000a81548160ff021916908360ff1602179055506080820151815f0160046101000a81548160ff021916908360ff16021790555090505061130e8383611b40565b5f61131883611b5d565b60405160200161132891906129fa565b60405160208183030381529060405290506113438382611c27565b50505050565b5f73ffffffffffffffffffffffffffffffffffffffff168273ffffffffffffffffffffffffffffffffffffffff16036113b957816040517f5b08ba180000000000000000000000000000000000000000000000000000000081526004016113b091906121ff565b60405180910390fd5b8060055f8573ffffffffffffffffffffffffffffffffffffffff1673ffffffffffffffffffffffffffffffffffffffff1681526020019081526020015f205f8473ffffffffffffffffffffffffffffffffffffffff1673ffffffffffffffffffffffffffffffffffffffff1681526020019081526020015f205f6101000a81548160ff0219169083151502179055508173ffffffffffffffffffffffffffffffffffffffff168373ffffffffffffffffffffffffffffffffffffffff167f17307eab39ab6107e8899845ad3d59bd9653f200f220920489ca2b5937696c31836040516114a591906120b9565b60405180910390a3505050565b5f8373ffffffffffffffffffffffffffffffffffffffff163b1115611657578273ffffffffffffffffffffffffffffffffffffffff1663150b7a02868685856040518563ffffffff1660e01b81526004016115109493929190612a78565b6020604051808303815f875af192505050801561154b57506040513d601f19601f820116820180604052508101906115489190612ad6565b60015b6115cc573d805f8114611579576040519150601f19603f3d011682016040523d82523d5f602084013e61157e565b606091505b505f8151036115c457836040517f64a0ae920000000000000000000000000000000000000000000000000000000081526004016115bb91906121ff565b60405180910390fd5b805181602001fd5b63150b7a0260e01b7bffffffffffffffffffffffffffffffffffffffffffffffffffffffff1916817bffffffffffffffffffffffffffffffffffffffffffffffffffffffff19161461165557836040517f64a0ae9200000000000000000000000000000000000000000000000000000000815260040161164c91906121ff565b60405180910390fd5b505b5050505050565b606060405180602001604052805f815250905090565b606061167f82610dd1565b505f61168961165e565b90505f8151116116a75760405180602001604052805f8152506116d2565b806116b184611b5d565b6040516020016116c29291906128cf565b6040516020818303038152906040525b915050919050565b5f7f01ffc9a7000000000000000000000000000000000000000000000000000000007bffffffffffffffffffffffffffffffffffffffffffffffffffffffff1916827bffffffffffffffffffffffffffffffffffffffffffffffffffffffff1916149050919050565b5f60025f8381526020019081526020015f205f9054906101000a900473ffffffffffffffffffffffffffffffffffffffff169050919050565b80806117b457505f73ffffffffffffffffffffffffffffffffffffffff168273ffffffffffffffffffffffffffffffffffffffff1614155b156118e6575f6117c384610dd1565b90505f73ffffffffffffffffffffffffffffffffffffffff168373ffffffffffffffffffffffffffffffffffffffff161415801561182d57508273ffffffffffffffffffffffffffffffffffffffff168173ffffffffffffffffffffffffffffffffffffffff1614155b8015611840575061183e8184610bde565b155b1561188257826040517fa9fbf51f00000000000000000000000000000000000000000000000000000000815260040161187991906121ff565b60405180910390fd5b81156118e457838573ffffffffffffffffffffffffffffffffffffffff168273ffffffffffffffffffffffffffffffffffffffff167f8c5be1e5ebec7d5bd14f71427d1e84f3dd0314c0f7b2291e5b200ac8c7c3b92560405160405180910390a45b505b8360045f8581526020019081526020015f205f6101000a81548173ffffffffffffffffffffffffffffffffffffffff021916908373ffffffffffffffffffffffffffffffffffffffff16021790555050505050565b611946838383611c81565b6119f9575f73ffffffffffffffffffffffffffffffffffffffff168373ffffffffffffffffffffffffffffffffffffffff16036119ba57806040517f7e2732890000000000000000000000000000000000000000000000000000000081526004016119b19190612475565b60405180910390fd5b81816040517f177e802f0000000000000000000000000000000000000000000000000000000081526004016119f0929190612b01565b60405180910390fd5b505050565b611a06611fa8565b5f83604051602001611a189190612b48565b604051602081830303815290604052805190602001205f1c90505f600382611a409190612b8f565b6002811115611a5257611a516122d0565b5b90505f6003600a84611a649190612bbf565b611a6e9190612b8f565b6002811115611a8057611a7f6122d0565b5b90505f600590505f600385611a959190612b8f565b8260ff16611aa39190612bef565b90505f6003606487611ab59190612bbf565b611abf9190612b8f565b8360ff16611acd9190612bef565b90506040518060a00160405280866002811115611aed57611aec6122d0565b5b8152602001856002811115611b0557611b046122d0565b5b8152602001896003811115611b1d57611b1c6122d0565b5b81526020018360ff1681526020018260ff16815250965050505050505092915050565b611b59828260405180602001604052805f815250611d41565b5050565b60605f6001611b6b84611d64565b0190505f8167ffffffffffffffff811115611b8957611b886124fe565b5b6040519080825280601f01601f191660200182016040528015611bbb5781602001600182028036833780820191505090505b5090505f82602001820190505b600115611c1c578080600190039150507f3031323334353637383961626364656600000000000000000000000000000000600a86061a8153600a8581611c1157611c10612b62565b5b0494505f8503611bc8575b819350505050919050565b8060065f8481526020019081526020015f209081611c459190612dc2565b507ff8e1a15aba9398e019f0b49df1a4fde98ee17ae345cb5f6b5e2c27f5033e8ce782604051611c759190612475565b60405180910390a15050565b5f5f73ffffffffffffffffffffffffffffffffffffffff168373ffffffffffffffffffffffffffffffffffffffff1614158015611d3857508273ffffffffffffffffffffffffffffffffffffffff168473ffffffffffffffffffffffffffffffffffffffff161480611cf95750611cf88484610bde565b5b80611d3757508273ffffffffffffffffffffffffffffffffffffffff16611d1f83610e57565b73ffffffffffffffffffffffffffffffffffffffff16145b5b90509392505050565b611d4b8383611eb5565b611d5f611d56610e90565b5f8585856114b2565b505050565b5f5f5f90507a184f03e93ff9f4daa797ed6e38ed64bf6a1f0100000000000000008310611dc0577a184f03e93ff9f4daa797ed6e38ed64bf6a1f0100000000000000008381611db657611db5612b62565b5b0492506040810190505b6d04ee2d6d415b85acef81000000008310611dfd576d04ee2d6d415b85acef81000000008381611df357611df2612b62565b5b0492506020810190505b662386f26fc100008310611e2c57662386f26fc100008381611e2257611e21612b62565b5b0492506010810190505b6305f5e1008310611e55576305f5e1008381611e4b57611e4a612b62565b5b0492506008810190505b6127108310611e7a576127108381611e7057611e6f612b62565b5b0492506004810190505b60648310611e9d5760648381611e9357611e92612b62565b5b0492506002810190505b600a8310611eac576001810190505b80915050919050565b5f73ffffffffffffffffffffffffffffffffffffffff168273ffffffffffffffffffffffffffffffffffffffff1603611f25575f6040517f64a0ae92000000000000000000000000000000000000000000000000000000008152600401611f1c91906121ff565b60405180910390fd5b5f611f3183835f610ea9565b90505f73ffffffffffffffffffffffffffffffffffffffff168173ffffffffffffffffffffffffffffffffffffffff1614611fa3575f6040517f73c6ac6e000000000000000000000000000000000000000000000000000000008152600401611f9a91906121ff565b60405180910390fd5b505050565b6040518060a001604052805f6002811115611fc657611fc56122d0565b5b81526020015f6002811115611fde57611fdd6122d0565b5b81526020015f6003811115611ff657611ff56122d0565b5b81526020015f60ff1681526020015f60ff1681525090565b5f604051905090565b5f5ffd5b5f5ffd5b5f7fffffffff0000000000000000000000000000000000000000000000000000000082169050919050565b6120538161201f565b811461205d575f5ffd5b50565b5f8135905061206e8161204a565b92915050565b5f6020828403121561208957612088612017565b5b5f61209684828501612060565b91505092915050565b5f8115159050919050565b6120b38161209f565b82525050565b5f6020820190506120cc5f8301846120aa565b92915050565b5f81519050919050565b5f82825260208201905092915050565b8281835e5f83830152505050565b5f601f19601f8301169050919050565b5f612114826120d2565b61211e81856120dc565b935061212e8185602086016120ec565b612137816120fa565b840191505092915050565b5f6020820190508181035f83015261215a818461210a565b905092915050565b5f819050919050565b61217481612162565b811461217e575f5ffd5b50565b5f8135905061218f8161216b565b92915050565b5f602082840312156121aa576121a9612017565b5b5f6121b784828501612181565b91505092915050565b5f73ffffffffffffffffffffffffffffffffffffffff82169050919050565b5f6121e9826121c0565b9050919050565b6121f9816121df565b82525050565b5f6020820190506122125f8301846121f0565b92915050565b612221816121df565b811461222b575f5ffd5b50565b5f8135905061223c81612218565b92915050565b5f5f6040838503121561225857612257612017565b5b5f6122658582860161222e565b925050602061227685828601612181565b9150509250929050565b5f5f5f6060848603121561229757612296612017565b5b5f6122a48682870161222e565b93505060206122b58682870161222e565b92505060406122c686828701612181565b9150509250925092565b7f4e487b71000000000000000000000000000000000000000000000000000000005f52602160045260245ffd5b6003811061230e5761230d6122d0565b5b50565b5f81905061231e826122fd565b919050565b5f61232d82612311565b9050919050565b61233d81612323565b82525050565b60038110612354576123536122d0565b5b50565b5f81905061236482612343565b919050565b5f61237382612357565b9050919050565b61238381612369565b82525050565b6004811061239a576123996122d0565b5b50565b5f8190506123aa82612389565b919050565b5f6123b98261239d565b9050919050565b6123c9816123af565b82525050565b5f60ff82169050919050565b6123e4816123cf565b82525050565b5f60a0820190506123fd5f830188612334565b61240a602083018761237a565b61241760408301866123c0565b61242460608301856123db565b61243160808301846123db565b9695505050505050565b5f602082840312156124505761244f612017565b5b5f61245d8482850161222e565b91505092915050565b61246f81612162565b82525050565b5f6020820190506124885f830184612466565b92915050565b6124978161209f565b81146124a1575f5ffd5b50565b5f813590506124b28161248e565b92915050565b5f5f604083850312156124ce576124cd612017565b5b5f6124db8582860161222e565b92505060206124ec858286016124a4565b9150509250929050565b5f5ffd5b5f5ffd5b7f4e487b71000000000000000000000000000000000000000000000000000000005f52604160045260245ffd5b612534826120fa565b810181811067ffffffffffffffff82111715612553576125526124fe565b5b80604052505050565b5f61256561200e565b9050612571828261252b565b919050565b5f67ffffffffffffffff8211156125905761258f6124fe565b5b612599826120fa565b9050602081019050919050565b828183375f83830152505050565b5f6125c66125c184612576565b61255c565b9050828152602081018484840111156125e2576125e16124fa565b5b6125ed8482856125a6565b509392505050565b5f82601f830112612609576126086124f6565b5b81356126198482602086016125b4565b91505092915050565b5f5f5f5f6080858703121561263a57612639612017565b5b5f6126478782880161222e565b94505060206126588782880161222e565b935050604061266987828801612181565b925050606085013567ffffffffffffffff81111561268a5761268961201b565b5b612696878288016125f5565b91505092959194509250565b6126ab81612323565b82525050565b6126ba81612369565b82525050565b6126c9816123af565b82525050565b6126d8816123cf565b82525050565b60a082015f8201516126f25f8501826126a2565b50602082015161270560208501826126b1565b50604082015161271860408501826126c0565b50606082015161272b60608501826126cf565b50608082015161273e60808501826126cf565b50505050565b5f60a0820190506127575f8301846126de565b92915050565b5f5f6040838503121561277357612772612017565b5b5f6127808582860161222e565b92505060206127918582860161222e565b9150509250929050565b7f4e487b71000000000000000000000000000000000000000000000000000000005f52602260045260245ffd5b5f60028204905060018216806127df57607f821691505b6020821081036127f2576127f161279b565b5b50919050565b5f60608201905061280b5f8301866121f0565b6128186020830185612466565b61282560408301846121f0565b949350505050565b7f416c726561647920636c61696d656400000000000000000000000000000000005f82015250565b5f612861600f836120dc565b915061286c8261282d565b602082019050919050565b5f6020820190508181035f83015261288e81612855565b9050919050565b5f81905092915050565b5f6128a9826120d2565b6128b38185612895565b93506128c38185602086016120ec565b80840191505092915050565b5f6128da828561289f565b91506128e6828461289f565b91508190509392505050565b7f4e487b71000000000000000000000000000000000000000000000000000000005f52601160045260245ffd5b5f61292982612162565b91507fffffffffffffffffffffffffffffffffffffffffffffffffffffffffffffffff820361295b5761295a6128f2565b5b600182019050919050565b7f697066733a2f2f516d2e2e2e2f000000000000000000000000000000000000005f82015250565b5f61299a600d83612895565b91506129a582612966565b600d82019050919050565b7f2e6a736f6e0000000000000000000000000000000000000000000000000000005f82015250565b5f6129e4600583612895565b91506129ef826129b0565b600582019050919050565b5f612a048261298e565b9150612a10828461289f565b9150612a1b826129d8565b915081905092915050565b5f81519050919050565b5f82825260208201905092915050565b5f612a4a82612a26565b612a548185612a30565b9350612a648185602086016120ec565b612a6d816120fa565b840191505092915050565b5f608082019050612a8b5f8301876121f0565b612a9860208301866121f0565b612aa56040830185612466565b8181036060830152612ab78184612a40565b905095945050505050565b5f81519050612ad08161204a565b92915050565b5f60208284031215612aeb57612aea612017565b5b5f612af884828501612ac2565b91505092915050565b5f604082019050612b145f8301856121f0565b612b216020830184612466565b9392505050565b5f819050919050565b612b42612b3d82612162565b612b28565b82525050565b5f612b538284612b31565b60208201915081905092915050565b7f4e487b71000000000000000000000000000000000000000000000000000000005f52601260045260245ffd5b5f612b9982612162565b9150612ba483612162565b925082612bb457612bb3612b62565b5b828206905092915050565b5f612bc982612162565b9150612bd483612162565b925082612be457612be3612b62565b5b828204905092915050565b5f612bf982612162565b9150612c0483612162565b9250828201905080821115612c1c57612c1b6128f2565b5b92915050565b5f819050815f5260205f209050919050565b5f6020601f8301049050919050565b5f82821b905092915050565b5f60088302612c7e7fffffffffffffffffffffffffffffffffffffffffffffffffffffffffffffffff82612c43565b612c888683612c43565b95508019841693508086168417925050509392505050565b5f819050919050565b5f612cc3612cbe612cb984612162565b612ca0565b612162565b9050919050565b5f819050919050565b612cdc83612ca9565b612cf0612ce882612cca565b848454612c4f565b825550505050565b5f5f905090565b612d07612cf8565b612d12818484612cd3565b505050565b5b81811015612d3557612d2a5f82612cff565b600181019050612d18565b5050565b601f821115612d7a57612d4b81612c22565b612d5484612c34565b81016020851015612d63578190505b612d77612d6f85612c34565b830182612d17565b50505b505050565b5f82821c905092915050565b5f612d9a5f1984600802612d7f565b1980831691505092915050565b5f612db28383612d8b565b9150826002028217905092915050565b612dcb826120d2565b67ffffffffffffffff811115612de457612de36124fe565b5b612dee82546127c8565b612df9828285612d39565b5f60209050601f831160018114612e2a575f8415612e18578287015190505b612e228582612da7565b865550612e89565b601f198416612e3886612c22565b5f5b82811015612e5f57848901518255600182019150602085019450602081019050612e3a565b86831015612e7c5784890151612e78601f891682612d8b565b8355505b6001600288020188555050505b50505050505056fea264697066735822122083c93c52d47847717caa37b90ee2b8562837a2b2f97fbd3d51333537aac0261e64736f6c634300081e0033","linkReferences":{}},"methodIdentifiers":{"approve(address,uint256)":"095ea7b3","balanceOf(address)":"70a08231","cardStats(uint256)":"4c77fe2a","claimStarterPack()":"9cd51d25","getApproved(uint256)":"081812fc","getCardStats(uint256)":"d44888fe","hasClaimedStarterPack(address)":"e86badf4","isApprovedForAll(address,address)":"e985e9c5","name()":"06fdde03","nextTokenId()":"75794a3c","owner()":"8da5cb5b","ownerOf(uint256)":"6352211e","renounceOwnership()":"715018a6","safeTransferFrom(address,address,uint256)":"42842e0e","safeTransferFrom(address,address,uint256,bytes)":"b88d4fde","setApprovalForAll(address,bool)":"a22cb465","supportsInterface(bytes4)":"01ffc9a7","symbol()":"95d89b41","tokenURI(uint256)":"c87b56dd","transferFrom(address,address,uint256)":"23b872dd","transferOwnership(address)":"f2fde38b"},"id":42}