{"abi":[{"type":"constructor","inputs":[],"stateMutability":"nonpayable"},{"type":"function","name":"approve","inputs":[{"name":"to","type":"address","internalType":"address"},{"name":"tokenId","type":"uint256","internalType":"uint256"}],"outputs":[],"stateMutability":"nonpayable"},{"type":"function","name":"balanceOf","inputs":[{"name":"owner","type":"address","internalType":"address"}],"outputs":[{"name":"","type":"uint256","internalType":"uint256"}],"stateMutability":"view"},{"type":"function","name":"cardStats","inputs":[{"name":"","type":"uint256","internalType":"uint256"}],"outputs":[{"name":"classType","type":"uint8","internalType":"enum CardGame.Class"},{"name":"element","type":"uint8","internalType":"enum CardGame.Element"},{"name":"rarity","type":"uint8","internalType":"enum CardGame.Rarity"},{"name":"attack","type":"uint8","internalType":"uint8"},{"name":"defense","type":"uint8","internalType":"uint8"}],"stateMutability":"view"},{"type":"function","name":"claimStarterPack","inputs":[],"outputs":[],"stateMutability":"nonpayable"},{"type":"function","name":"getApproved","inputs":[{"name":"tokenId","type":"uint256","internalType":"uint256"}],"outputs":[{"name":"","type":"address","internalType":"address"}],"stateMutability":"view"},{"type":"function","name":"getCardStats","inputs":[{"name":"tokenId","type":"uint256","internalType":"uint256"}],"outputs":[{"name":"","type":"tuple","internalType":"struct CardGame.CardStats","components":[{"name":"classType","type":"uint8","internalType":"enum CardGame.Class"},{"name":"element","type":"uint8","internalType":"enum CardGame.Element"},{"name":"rarity","type":"uint8","internalType":"enum CardGame.Rarity"},{"name":"attack","type":"uint8","internalType":"uint8"},{"name":"defense","type":"uint8","internalType":"uint8"}]}],"stateMutability":"view"},{"type":"function","name":"hasClaimedStarterPack","inputs":[{"name":"","type":"address","internalType":"address"}],"outputs":[{"name":"","type":"bool","internalType":"bool"}],"stateMutability":"view"},{"type":"function","name":"isApprovedForAll","inputs":[{"name":"owner","type":"address","internalType":"address"},{"name":"operator","type":"address","internalType":"address"}],"outputs":[{"name":"","type":"bool","internalType":"bool"}],"stateMutability":"view"},{"type":"function","name":"name","inputs":[],"outputs":[{"name":"","type":"string","internalType":"string"}],"stateMutability":"view"},{"type":"function","name":"nextTokenId","inputs":[],"outputs":[{"name":"","type":"uint256","internalType":"uint256"}],"stateMutability":"view"},{"type":"function","name":"owner","inputs":[],"outputs":[{"name":"","type":"address","internalType":"address"}],"stateMutability":"view"},{"type":"function","name":"ownerOf","inputs":[{"name":"tokenId","type":"uint256","internalType":"uint256"}],"outputs":[{"name":"","type":"address","internalType":"address"}],"stateMutability":"view"},{"type":"function","name":"renounceOwnership","inputs":[],"outputs":[],"stateMutability":"nonpayable"},{"type":"function","name":"safeTransferFrom","inputs":[{"name":"from","type":"address","internalType":"address"},{"name":"to","type":"address","internalType":"address"},{"name":"tokenId","type":"uint256","internalType":"uint256"}],"outputs":[],"stateMutability":"nonpayable"},{"type":"function","name":"safeTransferFrom","inputs":[{"name":"from","type":"address","internalType":"address"},{"name":"to","type":"address","internalType":"address"},{"name":"tokenId","type":"uint256","internalType":"uint256"},{"name":"data","type":"bytes","internalType":"bytes"}],"outputs":[],"stateMutability":"nonpayable"},{"type":"function","name":"setApprovalForAll","inputs":[{"name":"operator","type":"address","internalType":"address"},{"name":"approved","type":"bool","internalType":"bool"}],"outputs":[],"stateMutability":"nonpayable"},{"type":"function","name":"supportsInterface","inputs":[{"name":"interfaceId","type":"bytes4","internalType":"bytes4"}],"outputs":[{"name":"","type":"bool","internalType":"bool"}],"stateMutability":"view"},{"type":"function","name":"symbol","inputs":[],"outputs":[{"name":"","type":"string","internalType":"string"}],"stateMutability":"view"},{"type":"function","name":"tokenURI","inputs":[{"name":"tokenId","type":"uint256","internalType":"uint256"}],"outputs":[{"name":"","type":"string","internalType":"string"}],"stateMutability":"view"},{"type":"function","name":"tokensOfOwner","inputs":[{"name":"owner","type":"address","internalType":"address"}],"outputs":[{"name":"","type":"uint256[]","internalType":"uint256[]"}],"stateMutability":"view"},{"type":"function","name":"transferFrom","inputs":[{"name":"from","type":"address","internalType":"address"},{"name":"to","type":"address","internalType":"address"},{"name":"tokenId","type":"uint256","internalType":"uint256"}],"outputs":[],"stateMutability":"nonpayable"},{"type":"function","name":"transferOwnership","inputs":[{"name":"newOwner","type":"address","internalType":"address"}],"outputs":[],"stateMutability":"nonpayable"},{"type":"event","name":"Approval","inputs":[{"name":"owner","type":"address","indexed":true,"internalType":"address"},{"name":"approved","type":"address","indexed":true,"internalType":"address"},{"name":"tokenId","type":"uint256","indexed":true,"internalType":"uint256"}],"anonymous":false},{"type":"event","name":"ApprovalForAll","inputs":[{"name":"owner","type":"address","indexed":true,"internalType":"address"},{"name":"operator","type":"address","indexed":true,"internalType":"address"},{"name":"approved","type":"bool","indexed":false,"internalType":"bool"}],"anonymous":false},{"type":"event","name":"BatchMetadataUpdate","inputs":[{"name":"_fromTokenId","type":"uint256","indexed":false,"internalType":"uint256"},{"name":"_toTokenId","type":"uint256","indexed":false,"internalType":"uint256"}],"anonymous":false},{"type":"event","name":"MetadataUpdate","inputs":[{"name":"_tokenId","type":"uint256","indexed":false,"internalType":"uint256"}],"anonymous":false},{"type":"event","name":"OwnershipTransferred","inputs":[{"name":"previousOwner","type":"address","indexed":true,"internalType":"address"},{"name":"newOwner","type":"address","indexed":true,"internalType":"address"}],"anonymous":false},{"type":"event","name":"StarterPackClaimed","inputs":[{"name":"user","type":"address","indexed":true,"internalType":"address"},{"name":"hasClaimedStarterPack","type":"bool","indexed":false,"internalType":"bool"}],"anonymous":false},{"type":"event","name":"Transfer","inputs":[{"name":"from","type":"address","indexed":true,"internalType":"address"},{"name":"to","type":"address","indexed":true,"internalType":"address"},{"name":"tokenId","type":"uint256","indexed":true,"internalType":"uint256"}],"anonymous":false},{"type":"error","name":"ERC721IncorrectOwner","inputs":[{"name":"sender","type":"address","internalType":"address"},{"name":"tokenId","type":"uint256","internalType":"uint256"},{"name":"owner","type":"address","internalType":"address"}]},{"type":"error","name":"ERC721InsufficientApproval","inputs":[{"name":"operator","type":"address","internalType":"address"},{"name":"tokenId","type":"uint256","internalType":"uint256"}]},{"type":"error","name":"ERC721InvalidApprover","inputs":[{"name":"approver","type":"address","internalType":"address"}]},{"type":"error","name":"ERC721InvalidOperator","inputs":[{"name":"operator","type":"address","internalType":"address"}]},{"type":"error","name":"ERC721InvalidOwner","inputs":[{"name":"owner","type":"address","internalType":"address"}]},{"type":"error","name":"ERC721InvalidReceiver","inputs":[{"name":"receiver","type":"address","internalType":"address"}]},{"type":"error","name":"ERC721InvalidSender","inputs":[{"name":"sender","type":"address","internalType":"address"}]},{"type":"error","name":"ERC721NonexistentToken","inputs":[{"name":"tokenId","type":"uint256","internalType":"uint256"}]},{"type":"error","name":"OwnableInvalidOwner","inputs":[{"name":"owner","type":"address","internalType":"address"}]},{"type":"error","name":"OwnableUnauthorizedAccount","inputs":[{"name":"account","type":"address","internalType":"address"}]}],"bytecode":{"object":"0x60806040526001600855348015610014575f5ffd5b50336040518060400160405280600a81526020017f426174746c6543617264000000000000000000000000000000000000000000008152506040518060400160405280600481526020017f4243524400000000000000000000000000000000000000000000000000000000815250815f90816100909190610428565b5080600190816100a09190610428565b5050505f73ffffffffffffffffffffffffffffffffffffffff168173ffffffffffffffffffffffffffffffffffffffff1603610113575f6040517f1e4fbdf700000000000000000000000000000000000000000000000000000000815260040161010a9190610536565b60405180910390fd5b6101228161012860201b60201c565b5061054f565b5f60075f9054906101000a900473ffffffffffffffffffffffffffffffffffffffff1690508160075f6101000a81548173ffffffffffffffffffffffffffffffffffffffff021916908373ffffffffffffffffffffffffffffffffffffffff1602179055508173ffffffffffffffffffffffffffffffffffffffff168173ffffffffffffffffffffffffffffffffffffffff167f8be0079c531659141344cd1fd0a4f28419497f9722a3daafe3b4186f6b6457e060405160405180910390a35050565b5f81519050919050565b7f4e487b71000000000000000000000000000000000000000000000000000000005f52604160045260245ffd5b7f4e487b71000000000000000000000000000000000000000000000000000000005f52602260045260245ffd5b5f600282049050600182168061026657607f821691505b60208210810361027957610278610222565b5b50919050565b5f819050815f5260205f209050919050565b5f6020601f8301049050919050565b5f82821b905092915050565b5f600883026102db7fffffffffffffffffffffffffffffffffffffffffffffffffffffffffffffffff826102a0565b6102e586836102a0565b95508019841693508086168417925050509392505050565b5f819050919050565b5f819050919050565b5f61032961032461031f846102fd565b610306565b6102fd565b9050919050565b5f819050919050565b6103428361030f565b61035661034e82610330565b8484546102ac565b825550505050565b5f5f905090565b61036d61035e565b610378818484610339565b505050565b5b8181101561039b576103905f82610365565b60018101905061037e565b5050565b601f8211156103e0576103b18161027f565b6103ba84610291565b810160208510156103c9578190505b6103dd6103d585610291565b83018261037d565b50505b505050565b5f82821c905092915050565b5f6104005f19846008026103e5565b1980831691505092915050565b5f61041883836103f1565b9150826002028217905092915050565b610431826101eb565b67ffffffffffffffff81111561044a576104496101f5565b5b610454825461024f565b61045f82828561039f565b5f60209050601f831160018114610490575f841561047e578287015190505b610488858261040d565b8655506104ef565b601f19841661049e8661027f565b5f5b828110156104c5578489015182556001820191506020850194506020810190506104a0565b868310156104e257848901516104de601f8916826103f1565b8355505b6001600288020188555050505b505050505050565b5f73ffffffffffffffffffffffffffffffffffffffff82169050919050565b5f610520826104f7565b9050919050565b61053081610516565b82525050565b5f6020820190506105495f830184610527565b92915050565b6131bd8061055c5f395ff3fe608060405234801561000f575f5ffd5b5060043610610140575f3560e01c80638462151c116100b6578063b88d4fde1161007a578063b88d4fde14610364578063c87b56dd14610380578063d44888fe146103b0578063e86badf4146103e0578063e985e9c514610410578063f2fde38b1461044057610140565b80638462151c146102d25780638da5cb5b1461030257806395d89b41146103205780639cd51d251461033e578063a22cb4651461034857610140565b806342842e0e1161010857806342842e0e146101fa5780634c77fe2a146102165780636352211e1461024a57806370a082311461027a578063715018a6146102aa57806375794a3c146102b457610140565b806301ffc9a71461014457806306fdde0314610174578063081812fc14610192578063095ea7b3146101c257806323b872dd146101de575b5f5ffd5b61015e60048036038101906101599190612227565b61045c565b60405161016b919061226c565b60405180910390f35b61017c6104bc565b60405161018991906122f5565b60405180910390f35b6101ac60048036038101906101a79190612348565b61054b565b6040516101b991906123b2565b60405180910390f35b6101dc60048036038101906101d791906123f5565b610566565b005b6101f860048036038101906101f39190612433565b61057c565b005b610214600480360381019061020f9190612433565b61067b565b005b610230600480360381019061022b9190612348565b61069a565b60405161024195949392919061259d565b60405180910390f35b610264600480360381019061025f9190612348565b610708565b60405161027191906123b2565b60405180910390f35b610294600480360381019061028f91906125ee565b610719565b6040516102a19190612628565b60405180910390f35b6102b26107cf565b005b6102bc6107e2565b6040516102c99190612628565b60405180910390f35b6102ec60048036038101906102e791906125ee565b6107e8565b6040516102f991906126f8565b60405180910390f35b61030a610962565b60405161031791906123b2565b60405180910390f35b61032861098a565b60405161033591906122f5565b60405180910390f35b610346610a1a565b005b610362600480360381019061035d9190612742565b610b1e565b005b61037e600480360381019061037991906128ac565b610b34565b005b61039a60048036038101906103959190612348565b610b59565b6040516103a791906122f5565b60405180910390f35b6103ca60048036038101906103c59190612348565b610c64565b6040516103d791906129ce565b60405180910390f35b6103fa60048036038101906103f591906125ee565b610d74565b604051610407919061226c565b60405180910390f35b61042a600480360381019061042591906129e7565b610d91565b604051610437919061226c565b60405180910390f35b61045a600480360381019061045591906125ee565b610e1f565b005b5f634906490660e01b7bffffffffffffffffffffffffffffffffffffffffffffffffffffffff1916827bffffffffffffffffffffffffffffffffffffffffffffffffffffffff191614806104b557506104b482610ea3565b5b9050919050565b60605f80546104ca90612a52565b80601f01602080910402602001604051908101604052809291908181526020018280546104f690612a52565b80156105415780601f1061051857610100808354040283529160200191610541565b820191905f5260205f20905b81548152906001019060200180831161052457829003601f168201915b5050505050905090565b5f61055582610f84565b5061055f8261100a565b9050919050565b6105788282610573611043565b61104a565b5050565b5f73ffffffffffffffffffffffffffffffffffffffff168273ffffffffffffffffffffffffffffffffffffffff16036105ec575f6040517f64a0ae920000000000000000000000000000000000000000000000000000000081526004016105e391906123b2565b60405180910390fd5b5f6105ff83836105fa611043565b61105c565b90508373ffffffffffffffffffffffffffffffffffffffff168173ffffffffffffffffffffffffffffffffffffffff1614610675578382826040517f64283d7b00000000000000000000000000000000000000000000000000000000815260040161066c93929190612a82565b60405180910390fd5b50505050565b61069583838360405180602001604052805f815250610b34565b505050565b6009602052805f5260405f205f91509050805f015f9054906101000a900460ff1690805f0160019054906101000a900460ff1690805f0160029054906101000a900460ff1690805f0160039054906101000a900460ff1690805f0160049054906101000a900460ff16905085565b5f61071282610f84565b9050919050565b5f5f73ffffffffffffffffffffffffffffffffffffffff168273ffffffffffffffffffffffffffffffffffffffff160361078a575f6040517f89c62b6400000000000000000000000000000000000000000000000000000000815260040161078191906123b2565b60405180910390fd5b60035f8373ffffffffffffffffffffffffffffffffffffffff1673ffffffffffffffffffffffffffffffffffffffff1681526020019081526020015f20549050919050565b6107d7611267565b6107e05f6112ee565b565b60085481565b60605f6107f483610719565b90505f8167ffffffffffffffff81111561081157610810612788565b5b60405190808252806020026020018201604052801561083f5781602001602082028036833780820191505090505b5090505f5f90505f61271090505f600190505b81811115801561086157508483105b15610955573073ffffffffffffffffffffffffffffffffffffffff16636352211e826040518263ffffffff1660e01b815260040161089f9190612628565b602060405180830381865afa9250505080156108d957506040513d601f19601f820116820180604052508101906108d69190612acb565b60015b15610942578773ffffffffffffffffffffffffffffffffffffffff168173ffffffffffffffffffffffffffffffffffffffff1603610940578185858151811061092557610924612af6565b5b602002602001018181525050838061093c90612b50565b9450505b505b808061094d90612b50565b915050610852565b5082945050505050919050565b5f60075f9054906101000a900473ffffffffffffffffffffffffffffffffffffffff16905090565b60606001805461099990612a52565b80601f01602080910402602001604051908101604052809291908181526020018280546109c590612a52565b8015610a105780601f106109e757610100808354040283529160200191610a10565b820191905f5260205f20905b8154815290600101906020018083116109f357829003601f168201915b5050505050905090565b5f600a5f3373ffffffffffffffffffffffffffffffffffffffff1673ffffffffffffffffffffffffffffffffffffffff1681526020019081526020015f205f9054906101000a900460ff1690508015610aa8576040517f08c379a0000000000000000000000000000000000000000000000000000000008152600401610a9f90612be1565b60405180910390fd5b3373ffffffffffffffffffffffffffffffffffffffff167f07dcc58b329a6d4c410612d6fe28ef59fc1efe3ecdfc0cfb8263732e1bd7b21082604051610aee919061226c565b60405180910390a25f5f90505b6005811015610b1a57610b0d336113b1565b8080600101915050610afb565b5050565b610b30610b29611043565b83836114fc565b5050565b610b3f84848461057c565b610b53610b4a611043565b85858585611665565b50505050565b6060610b6482610f84565b505f60065f8481526020019081526020015f208054610b8290612a52565b80601f0160208091040260200160405190810160405280929190818152602001828054610bae90612a52565b8015610bf95780601f10610bd057610100808354040283529160200191610bf9565b820191905f5260205f20905b815481529060010190602001808311610bdc57829003601f168201915b505050505090505f610c09611811565b90505f815103610c1d578192505050610c5f565b5f82511115610c51578082604051602001610c39929190612c39565b60405160208183030381529060405292505050610c5f565b610c5a84611827565b925050505b919050565b610c6c61215b565b60095f8381526020019081526020015f206040518060a00160405290815f82015f9054906101000a900460ff166002811115610cab57610caa612483565b5b6002811115610cbd57610cbc612483565b5b81526020015f820160019054906101000a900460ff166002811115610ce557610ce4612483565b5b6002811115610cf757610cf6612483565b5b81526020015f820160029054906101000a900460ff166003811115610d1f57610d1e612483565b5b6003811115610d3157610d30612483565b5b81526020015f820160039054906101000a900460ff1660ff1660ff1681526020015f820160049054906101000a900460ff1660ff1660ff16815250509050919050565b600a602052805f5260405f205f915054906101000a900460ff1681565b5f60055f8473ffffffffffffffffffffffffffffffffffffffff1673ffffffffffffffffffffffffffffffffffffffff1681526020019081526020015f205f8373ffffffffffffffffffffffffffffffffffffffff1673ffffffffffffffffffffffffffffffffffffffff1681526020019081526020015f205f9054906101000a900460ff16905092915050565b610e27611267565b5f73ffffffffffffffffffffffffffffffffffffffff168173ffffffffffffffffffffffffffffffffffffffff1603610e97575f6040517f1e4fbdf7000000000000000000000000000000000000000000000000000000008152600401610e8e91906123b2565b60405180910390fd5b610ea0816112ee565b50565b5f7f80ac58cd000000000000000000000000000000000000000000000000000000007bffffffffffffffffffffffffffffffffffffffffffffffffffffffff1916827bffffffffffffffffffffffffffffffffffffffffffffffffffffffff19161480610f6d57507f5b5e139f000000000000000000000000000000000000000000000000000000007bffffffffffffffffffffffffffffffffffffffffffffffffffffffff1916827bffffffffffffffffffffffffffffffffffffffffffffffffffffffff1916145b80610f7d5750610f7c8261188d565b5b9050919050565b5f5f610f8f836118f6565b90505f73ffffffffffffffffffffffffffffffffffffffff168173ffffffffffffffffffffffffffffffffffffffff160361100157826040517f7e273289000000000000000000000000000000000000000000000000000000008152600401610ff89190612628565b60405180910390fd5b80915050919050565b5f60045f8381526020019081526020015f205f9054906101000a900473ffffffffffffffffffffffffffffffffffffffff169050919050565b5f33905090565b611057838383600161192f565b505050565b5f5f611067846118f6565b90505f73ffffffffffffffffffffffffffffffffffffffff168373ffffffffffffffffffffffffffffffffffffffff16146110a8576110a7818486611aee565b5b5f73ffffffffffffffffffffffffffffffffffffffff168173ffffffffffffffffffffffffffffffffffffffff1614611133576110e75f855f5f61192f565b600160035f8373ffffffffffffffffffffffffffffffffffffffff1673ffffffffffffffffffffffffffffffffffffffff1681526020019081526020015f205f82825403925050819055505b5f73ffffffffffffffffffffffffffffffffffffffff168573ffffffffffffffffffffffffffffffffffffffff16146111b257600160035f8773ffffffffffffffffffffffffffffffffffffffff1673ffffffffffffffffffffffffffffffffffffffff1681526020019081526020015f205f82825401925050819055505b8460025f8681526020019081526020015f205f6101000a81548173ffffffffffffffffffffffffffffffffffffffff021916908373ffffffffffffffffffffffffffffffffffffffff160217905550838573ffffffffffffffffffffffffffffffffffffffff168273ffffffffffffffffffffffffffffffffffffffff167fddf252ad1be2c89b69c2b068fc378daa952ba7f163c4a11628f55a4df523b3ef60405160405180910390a4809150509392505050565b61126f611043565b73ffffffffffffffffffffffffffffffffffffffff1661128d610962565b73ffffffffffffffffffffffffffffffffffffffff16146112ec576112b0611043565b6040517f118cdaa70000000000000000000000000000000000000000000000000000000081526004016112e391906123b2565b60405180910390fd5b565b5f60075f9054906101000a900473ffffffffffffffffffffffffffffffffffffffff1690508160075f6101000a81548173ffffffffffffffffffffffffffffffffffffffff021916908373ffffffffffffffffffffffffffffffffffffffff1602179055508173ffffffffffffffffffffffffffffffffffffffff168173ffffffffffffffffffffffffffffffffffffffff167f8be0079c531659141344cd1fd0a4f28419497f9722a3daafe3b4186f6b6457e060405160405180910390a35050565b5f60085f8154809291906113c490612b50565b9190505590505f6113d5825f611bb1565b90508060095f8481526020019081526020015f205f820151815f015f6101000a81548160ff0219169083600281111561141157611410612483565b5b02179055506020820151815f0160016101000a81548160ff021916908360028111156114405761143f612483565b5b02179055506040820151815f0160026101000a81548160ff0219169083600381111561146f5761146e612483565b5b02179055506060820151815f0160036101000a81548160ff021916908360ff1602179055506080820151815f0160046101000a81548160ff021916908360ff1602179055509050506114c18383611cf3565b5f6114cb83611d10565b6040516020016114db9190612cf0565b60405160208183030381529060405290506114f68382611dda565b50505050565b5f73ffffffffffffffffffffffffffffffffffffffff168273ffffffffffffffffffffffffffffffffffffffff160361156c57816040517f5b08ba1800000000000000000000000000000000000000000000000000000000815260040161156391906123b2565b60405180910390fd5b8060055f8573ffffffffffffffffffffffffffffffffffffffff1673ffffffffffffffffffffffffffffffffffffffff1681526020019081526020015f205f8473ffffffffffffffffffffffffffffffffffffffff1673ffffffffffffffffffffffffffffffffffffffff1681526020019081526020015f205f6101000a81548160ff0219169083151502179055508173ffffffffffffffffffffffffffffffffffffffff168373ffffffffffffffffffffffffffffffffffffffff167f17307eab39ab6107e8899845ad3d59bd9653f200f220920489ca2b5937696c3183604051611658919061226c565b60405180910390a3505050565b5f8373ffffffffffffffffffffffffffffffffffffffff163b111561180a578273ffffffffffffffffffffffffffffffffffffffff1663150b7a02868685856040518563ffffffff1660e01b81526004016116c39493929190612d6e565b6020604051808303815f875af19250505080156116fe57506040513d601f19601f820116820180604052508101906116fb9190612dcc565b60015b61177f573d805f811461172c576040519150601f19603f3d011682016040523d82523d5f602084013e611731565b606091505b505f81510361177757836040517f64a0ae9200000000000000000000000000000000000000000000000000000000815260040161176e91906123b2565b60405180910390fd5b805181602001fd5b63150b7a0260e01b7bffffffffffffffffffffffffffffffffffffffffffffffffffffffff1916817bffffffffffffffffffffffffffffffffffffffffffffffffffffffff19161461180857836040517f64a0ae920000000000000000000000000000000000000000000000000000000081526004016117ff91906123b2565b60405180910390fd5b505b5050505050565b606060405180602001604052805f815250905090565b606061183282610f84565b505f61183c611811565b90505f81511161185a5760405180602001604052805f815250611885565b8061186484611d10565b604051602001611875929190612c39565b6040516020818303038152906040525b915050919050565b5f7f01ffc9a7000000000000000000000000000000000000000000000000000000007bffffffffffffffffffffffffffffffffffffffffffffffffffffffff1916827bffffffffffffffffffffffffffffffffffffffffffffffffffffffff1916149050919050565b5f60025f8381526020019081526020015f205f9054906101000a900473ffffffffffffffffffffffffffffffffffffffff169050919050565b808061196757505f73ffffffffffffffffffffffffffffffffffffffff168273ffffffffffffffffffffffffffffffffffffffff1614155b15611a99575f61197684610f84565b90505f73ffffffffffffffffffffffffffffffffffffffff168373ffffffffffffffffffffffffffffffffffffffff16141580156119e057508273ffffffffffffffffffffffffffffffffffffffff168173ffffffffffffffffffffffffffffffffffffffff1614155b80156119f357506119f18184610d91565b155b15611a3557826040517fa9fbf51f000000000000000000000000000000000000000000000000000000008152600401611a2c91906123b2565b60405180910390fd5b8115611a9757838573ffffffffffffffffffffffffffffffffffffffff168273ffffffffffffffffffffffffffffffffffffffff167f8c5be1e5ebec7d5bd14f71427d1e84f3dd0314c0f7b2291e5b200ac8c7c3b92560405160405180910390a45b505b8360045f8581526020019081526020015f205f6101000a81548173ffffffffffffffffffffffffffffffffffffffff021916908373ffffffffffffffffffffffffffffffffffffffff16021790555050505050565b611af9838383611e34565b611bac575f73ffffffffffffffffffffffffffffffffffffffff168373ffffffffffffffffffffffffffffffffffffffff1603611b6d57806040517f7e273289000000000000000000000000000000000000000000000000000000008152600401611b649190612628565b60405180910390fd5b81816040517f177e802f000000000000000000000000000000000000000000000000000000008152600401611ba3929190612df7565b60405180910390fd5b505050565b611bb961215b565b5f83604051602001611bcb9190612e3e565b604051602081830303815290604052805190602001205f1c90505f600382611bf39190612e85565b6002811115611c0557611c04612483565b5b90505f6003600a84611c179190612eb5565b611c219190612e85565b6002811115611c3357611c32612483565b5b90505f600590505f600385611c489190612e85565b8260ff16611c569190612ee5565b90505f6003606487611c689190612eb5565b611c729190612e85565b8360ff16611c809190612ee5565b90506040518060a00160405280866002811115611ca057611c9f612483565b5b8152602001856002811115611cb857611cb7612483565b5b8152602001896003811115611cd057611ccf612483565b5b81526020018360ff1681526020018260ff16815250965050505050505092915050565b611d0c828260405180602001604052805f815250611ef4565b5050565b60605f6001611d1e84611f17565b0190505f8167ffffffffffffffff811115611d3c57611d3b612788565b5b6040519080825280601f01601f191660200182016040528015611d6e5781602001600182028036833780820191505090505b5090505f82602001820190505b600115611dcf578080600190039150507f3031323334353637383961626364656600000000000000000000000000000000600a86061a8153600a8581611dc457611dc3612e58565b5b0494505f8503611d7b575b819350505050919050565b8060065f8481526020019081526020015f209081611df891906130b8565b507ff8e1a15aba9398e019f0b49df1a4fde98ee17ae345cb5f6b5e2c27f5033e8ce782604051611e289190612628565b60405180910390a15050565b5f5f73ffffffffffffffffffffffffffffffffffffffff168373ffffffffffffffffffffffffffffffffffffffff1614158015611eeb57508273ffffffffffffffffffffffffffffffffffffffff168473ffffffffffffffffffffffffffffffffffffffff161480611eac5750611eab8484610d91565b5b80611eea57508273ffffffffffffffffffffffffffffffffffffffff16611ed28361100a565b73ffffffffffffffffffffffffffffffffffffffff16145b5b90509392505050565b611efe8383612068565b611f12611f09611043565b5f858585611665565b505050565b5f5f5f90507a184f03e93ff9f4daa797ed6e38ed64bf6a1f0100000000000000008310611f73577a184f03e93ff9f4daa797ed6e38ed64bf6a1f0100000000000000008381611f6957611f68612e58565b5b0492506040810190505b6d04ee2d6d415b85acef81000000008310611fb0576d04ee2d6d415b85acef81000000008381611fa657611fa5612e58565b5b0492506020810190505b662386f26fc100008310611fdf57662386f26fc100008381611fd557611fd4612e58565b5b0492506010810190505b6305f5e1008310612008576305f5e1008381611ffe57611ffd612e58565b5b0492506008810190505b612710831061202d57612710838161202357612022612e58565b5b0492506004810190505b60648310612050576064838161204657612045612e58565b5b0492506002810190505b600a831061205f576001810190505b80915050919050565b5f73ffffffffffffffffffffffffffffffffffffffff168273ffffffffffffffffffffffffffffffffffffffff16036120d8575f6040517f64a0ae920000000000000000000000000000000000000000000000000000000081526004016120cf91906123b2565b60405180910390fd5b5f6120e483835f61105c565b90505f73ffffffffffffffffffffffffffffffffffffffff168173ffffffffffffffffffffffffffffffffffffffff1614612156575f6040517f73c6ac6e00000000000000000000000000000000000000000000000000000000815260040161214d91906123b2565b60405180910390fd5b505050565b6040518060a001604052805f600281111561217957612178612483565b5b81526020015f600281111561219157612190612483565b5b81526020015f60038111156121a9576121a8612483565b5b81526020015f60ff1681526020015f60ff1681525090565b5f604051905090565b5f5ffd5b5f5ffd5b5f7fffffffff0000000000000000000000000000000000000000000000000000000082169050919050565b612206816121d2565b8114612210575f5ffd5b50565b5f81359050612221816121fd565b92915050565b5f6020828403121561223c5761223b6121ca565b5b5f61224984828501612213565b91505092915050565b5f8115159050919050565b61226681612252565b82525050565b5f60208201905061227f5f83018461225d565b92915050565b5f81519050919050565b5f82825260208201905092915050565b8281835e5f83830152505050565b5f601f19601f8301169050919050565b5f6122c782612285565b6122d1818561228f565b93506122e181856020860161229f565b6122ea816122ad565b840191505092915050565b5f6020820190508181035f83015261230d81846122bd565b905092915050565b5f819050919050565b61232781612315565b8114612331575f5ffd5b50565b5f813590506123428161231e565b92915050565b5f6020828403121561235d5761235c6121ca565b5b5f61236a84828501612334565b91505092915050565b5f73ffffffffffffffffffffffffffffffffffffffff82169050919050565b5f61239c82612373565b9050919050565b6123ac81612392565b82525050565b5f6020820190506123c55f8301846123a3565b92915050565b6123d481612392565b81146123de575f5ffd5b50565b5f813590506123ef816123cb565b92915050565b5f5f6040838503121561240b5761240a6121ca565b5b5f612418858286016123e1565b925050602061242985828601612334565b9150509250929050565b5f5f5f6060848603121561244a576124496121ca565b5b5f612457868287016123e1565b9350506020612468868287016123e1565b925050604061247986828701612334565b9150509250925092565b7f4e487b71000000000000000000000000000000000000000000000000000000005f52602160045260245ffd5b600381106124c1576124c0612483565b5b50565b5f8190506124d1826124b0565b919050565b5f6124e0826124c4565b9050919050565b6124f0816124d6565b82525050565b6003811061250757612506612483565b5b50565b5f819050612517826124f6565b919050565b5f6125268261250a565b9050919050565b6125368161251c565b82525050565b6004811061254d5761254c612483565b5b50565b5f81905061255d8261253c565b919050565b5f61256c82612550565b9050919050565b61257c81612562565b82525050565b5f60ff82169050919050565b61259781612582565b82525050565b5f60a0820190506125b05f8301886124e7565b6125bd602083018761252d565b6125ca6040830186612573565b6125d7606083018561258e565b6125e4608083018461258e565b9695505050505050565b5f60208284031215612603576126026121ca565b5b5f612610848285016123e1565b91505092915050565b61262281612315565b82525050565b5f60208201905061263b5f830184612619565b92915050565b5f81519050919050565b5f82825260208201905092915050565b5f819050602082019050919050565b61267381612315565b82525050565b5f612684838361266a565b60208301905092915050565b5f602082019050919050565b5f6126a682612641565b6126b0818561264b565b93506126bb8361265b565b805f5b838110156126eb5781516126d28882612679565b97506126dd83612690565b9250506001810190506126be565b5085935050505092915050565b5f6020820190508181035f830152612710818461269c565b905092915050565b61272181612252565b811461272b575f5ffd5b50565b5f8135905061273c81612718565b92915050565b5f5f60408385031215612758576127576121ca565b5b5f612765858286016123e1565b92505060206127768582860161272e565b9150509250929050565b5f5ffd5b5f5ffd5b7f4e487b71000000000000000000000000000000000000000000000000000000005f52604160045260245ffd5b6127be826122ad565b810181811067ffffffffffffffff821117156127dd576127dc612788565b5b80604052505050565b5f6127ef6121c1565b90506127fb82826127b5565b919050565b5f67ffffffffffffffff82111561281a57612819612788565b5b612823826122ad565b9050602081019050919050565b828183375f83830152505050565b5f61285061284b84612800565b6127e6565b90508281526020810184848401111561286c5761286b612784565b5b612877848285612830565b509392505050565b5f82601f83011261289357612892612780565b5b81356128a384826020860161283e565b91505092915050565b5f5f5f5f608085870312156128c4576128c36121ca565b5b5f6128d1878288016123e1565b94505060206128e2878288016123e1565b93505060406128f387828801612334565b925050606085013567ffffffffffffffff811115612914576129136121ce565b5b6129208782880161287f565b91505092959194509250565b612935816124d6565b82525050565b6129448161251c565b82525050565b61295381612562565b82525050565b61296281612582565b82525050565b60a082015f82015161297c5f85018261292c565b50602082015161298f602085018261293b565b5060408201516129a2604085018261294a565b5060608201516129b56060850182612959565b5060808201516129c86080850182612959565b50505050565b5f60a0820190506129e15f830184612968565b92915050565b5f5f604083850312156129fd576129fc6121ca565b5b5f612a0a858286016123e1565b9250506020612a1b858286016123e1565b9150509250929050565b7f4e487b71000000000000000000000000000000000000000000000000000000005f52602260045260245ffd5b5f6002820490506001821680612a6957607f821691505b602082108103612a7c57612a7b612a25565b5b50919050565b5f606082019050612a955f8301866123a3565b612aa26020830185612619565b612aaf60408301846123a3565b949350505050565b5f81519050612ac5816123cb565b92915050565b5f60208284031215612ae057612adf6121ca565b5b5f612aed84828501612ab7565b91505092915050565b7f4e487b71000000000000000000000000000000000000000000000000000000005f52603260045260245ffd5b7f4e487b71000000000000000000000000000000000000000000000000000000005f52601160045260245ffd5b5f612b5a82612315565b91507fffffffffffffffffffffffffffffffffffffffffffffffffffffffffffffffff8203612b8c57612b8b612b23565b5b600182019050919050565b7f416c726561647920636c61696d656400000000000000000000000000000000005f82015250565b5f612bcb600f8361228f565b9150612bd682612b97565b602082019050919050565b5f6020820190508181035f830152612bf881612bbf565b9050919050565b5f81905092915050565b5f612c1382612285565b612c1d8185612bff565b9350612c2d81856020860161229f565b80840191505092915050565b5f612c448285612c09565b9150612c508284612c09565b91508190509392505050565b7f697066733a2f2f516d2e2e2e2f000000000000000000000000000000000000005f82015250565b5f612c90600d83612bff565b9150612c9b82612c5c565b600d82019050919050565b7f2e6a736f6e0000000000000000000000000000000000000000000000000000005f82015250565b5f612cda600583612bff565b9150612ce582612ca6565b600582019050919050565b5f612cfa82612c84565b9150612d068284612c09565b9150612d1182612cce565b915081905092915050565b5f81519050919050565b5f82825260208201905092915050565b5f612d4082612d1c565b612d4a8185612d26565b9350612d5a81856020860161229f565b612d63816122ad565b840191505092915050565b5f608082019050612d815f8301876123a3565b612d8e60208301866123a3565b612d9b6040830185612619565b8181036060830152612dad8184612d36565b905095945050505050565b5f81519050612dc6816121fd565b92915050565b5f60208284031215612de157612de06121ca565b5b5f612dee84828501612db8565b91505092915050565b5f604082019050612e0a5f8301856123a3565b612e176020830184612619565b9392505050565b5f819050919050565b612e38612e3382612315565b612e1e565b82525050565b5f612e498284612e27565b60208201915081905092915050565b7f4e487b71000000000000000000000000000000000000000000000000000000005f52601260045260245ffd5b5f612e8f82612315565b9150612e9a83612315565b925082612eaa57612ea9612e58565b5b828206905092915050565b5f612ebf82612315565b9150612eca83612315565b925082612eda57612ed9612e58565b5b828204905092915050565b5f612eef82612315565b9150612efa83612315565b9250828201905080821115612f1257612f11612b23565b5b92915050565b5f819050815f5260205f209050919050565b5f6020601f8301049050919050565b5f82821b905092915050565b5f60088302612f747fffffffffffffffffffffffffffffffffffffffffffffffffffffffffffffffff82612f39565b612f7e8683612f39565b95508019841693508086168417925050509392505050565b5f819050919050565b5f612fb9612fb4612faf84612315565b612f96565b612315565b9050919050565b5f819050919050565b612fd283612f9f565b612fe6612fde82612fc0565b848454612f45565b825550505050565b5f5f905090565b612ffd612fee565b613008818484612fc9565b505050565b5b8181101561302b576130205f82612ff5565b60018101905061300e565b5050565b601f8211156130705761304181612f18565b61304a84612f2a565b81016020851015613059578190505b61306d61306585612f2a565b83018261300d565b50505b505050565b5f82821c905092915050565b5f6130905f1984600802613075565b1980831691505092915050565b5f6130a88383613081565b9150826002028217905092915050565b6130c182612285565b67ffffffffffffffff8111156130da576130d9612788565b5b6130e48254612a52565b6130ef82828561302f565b5f60209050601f831160018114613120575f841561310e578287015190505b613118858261309d565b86555061317f565b601f19841661312e86612f18565b5f5b8281101561315557848901518255600182019150602085019450602081019050613130565b86831015613172578489015161316e601f891682613081565b8355505b6001600288020188555050505b50505050505056fea2646970667358221220f6b617b06d507b6cca71e2e6743407de30be7c9acd51e92ba9ce93f67e543cd764736f6c634300081e0033","linkReferences":{}},"methodIdentifiers":{"approve(address,uint256)":"095ea7b3","balanceOf(address)":"70a08231","cardStats(uint256)":"4c77fe2a","claimStarterPack()":"9cd51d25","getApproved(uint256)":"081812fc","getCardStats(uint256)":"d44888fe","hasClaimedStarterPack(address)":"e86badf4","isApprovedForAll(address,address)":"e985e9c5","name()":"06fdde03","nextTokenId()":"75794a3c","owner()":"8da5cb5b","ownerOf(uint256)":"6352211e","renounceOwnership()":"715018a6","safeTransferFrom(address,address,uint256)":"42842e0e","safeTransferFrom(address,address,uint256,bytes)":"b88d4fde","setApprovalForAll(address,bool)":"a22cb465","supportsInterface(bytes4)":"01ffc9a7","symbol()":"95d89b41","tokenURI(uint256)":"c87b56dd","tokensOfOwner(address)":"8462151c","transferFrom(address,address,uint256)":"23b872dd","transferOwnership(address)":"f2fde38b"},"id":20}