{"abi":[{"type":"constructor","inputs":[],"stateMutability":"nonpayable"},{"type":"function","name":"allPlayers","inputs":[{"name":"","type":"uint256","internalType":"uint256"}],"outputs":[{"name":"","type":"address","internalType":"address"}],"stateMutability":"view"},{"type":"function","name":"approve","inputs":[{"name":"to","type":"address","internalType":"address"},{"name":"tokenId","type":"uint256","internalType":"uint256"}],"outputs":[],"stateMutability":"nonpayable"},{"type":"function","name":"balanceOf","inputs":[{"name":"owner","type":"address","internalType":"address"}],"outputs":[{"name":"","type":"uint256","internalType":"uint256"}],"stateMutability":"view"},{"type":"function","name":"callbackGasLimit","inputs":[],"outputs":[{"name":"","type":"uint32","internalType":"uint32"}],"stateMutability":"view"},{"type":"function","name":"cardStats","inputs":[{"name":"","type":"uint256","internalType":"uint256"}],"outputs":[{"name":"classType","type":"uint8","internalType":"enum CardGame.Class"},{"name":"element","type":"uint8","internalType":"enum CardGame.Element"},{"name":"rarity","type":"uint8","internalType":"enum CardGame.Rarity"},{"name":"attack","type":"uint8","internalType":"uint8"},{"name":"defense","type":"uint8","internalType":"uint8"}],"stateMutability":"view"},{"type":"function","name":"claimStarterPack","inputs":[],"outputs":[],"stateMutability":"nonpayable"},{"type":"function","name":"getAllPlayers","inputs":[],"outputs":[{"name":"","type":"address[]","internalType":"address[]"}],"stateMutability":"view"},{"type":"function","name":"getApproved","inputs":[{"name":"tokenId","type":"uint256","internalType":"uint256"}],"outputs":[{"name":"","type":"address","internalType":"address"}],"stateMutability":"view"},{"type":"function","name":"getCardStats","inputs":[{"name":"tokenId","type":"uint256","internalType":"uint256"}],"outputs":[{"name":"","type":"tuple","internalType":"struct CardGame.CardStats","components":[{"name":"classType","type":"uint8","internalType":"enum CardGame.Class"},{"name":"element","type":"uint8","internalType":"enum CardGame.Element"},{"name":"rarity","type":"uint8","internalType":"enum CardGame.Rarity"},{"name":"attack","type":"uint8","internalType":"uint8"},{"name":"defense","type":"uint8","internalType":"uint8"}]}],"stateMutability":"view"},{"type":"function","name":"hasClaimedStarterPack","inputs":[{"name":"","type":"address","internalType":"address"}],"outputs":[{"name":"","type":"bool","internalType":"bool"}],"stateMutability":"view"},{"type":"function","name":"isApprovedForAll","inputs":[{"name":"owner","type":"address","internalType":"address"},{"name":"operator","type":"address","internalType":"address"}],"outputs":[{"name":"","type":"bool","internalType":"bool"}],"stateMutability":"view"},{"type":"function","name":"isPlayer","inputs":[{"name":"","type":"address","internalType":"address"}],"outputs":[{"name":"","type":"bool","internalType":"bool"}],"stateMutability":"view"},{"type":"function","name":"keyHash","inputs":[],"outputs":[{"name":"","type":"bytes32","internalType":"bytes32"}],"stateMutability":"view"},{"type":"function","name":"mintCardWithForcedRarity","inputs":[{"name":"to","type":"address","internalType":"address"},{"name":"seed","type":"uint256","internalType":"uint256"},{"name":"rarityIndex","type":"uint8","internalType":"uint8"}],"outputs":[{"name":"","type":"uint256","internalType":"uint256"}],"stateMutability":"nonpayable"},{"type":"function","name":"name","inputs":[],"outputs":[{"name":"","type":"string","internalType":"string"}],"stateMutability":"view"},{"type":"function","name":"nextTokenId","inputs":[],"outputs":[{"name":"","type":"uint256","internalType":"uint256"}],"stateMutability":"view"},{"type":"function","name":"numWords","inputs":[],"outputs":[{"name":"","type":"uint32","internalType":"uint32"}],"stateMutability":"view"},{"type":"function","name":"owner","inputs":[],"outputs":[{"name":"","type":"address","internalType":"address"}],"stateMutability":"view"},{"type":"function","name":"ownerOf","inputs":[{"name":"tokenId","type":"uint256","internalType":"uint256"}],"outputs":[{"name":"","type":"address","internalType":"address"}],"stateMutability":"view"},{"type":"function","name":"rawFulfillRandomWords","inputs":[{"name":"requestId","type":"uint256","internalType":"uint256"},{"name":"randomWords","type":"uint256[]","internalType":"uint256[]"}],"outputs":[],"stateMutability":"nonpayable"},{"type":"function","name":"renounceOwnership","inputs":[],"outputs":[],"stateMutability":"nonpayable"},{"type":"function","name":"requestConfirmations","inputs":[],"outputs":[{"name":"","type":"uint16","internalType":"uint16"}],"stateMutability":"view"},{"type":"function","name":"requestToSender","inputs":[{"name":"","type":"uint256","internalType":"uint256"}],"outputs":[{"name":"","type":"address","internalType":"address"}],"stateMutability":"view"},{"type":"function","name":"safeTransferFrom","inputs":[{"name":"from","type":"address","internalType":"address"},{"name":"to","type":"address","internalType":"address"},{"name":"tokenId","type":"uint256","internalType":"uint256"}],"outputs":[],"stateMutability":"nonpayable"},{"type":"function","name":"safeTransferFrom","inputs":[{"name":"from","type":"address","internalType":"address"},{"name":"to","type":"address","internalType":"address"},{"name":"tokenId","type":"uint256","internalType":"uint256"},{"name":"data","type":"bytes","internalType":"bytes"}],"outputs":[],"stateMutability":"nonpayable"},{"type":"function","name":"setApprovalForAll","inputs":[{"name":"operator","type":"address","internalType":"address"},{"name":"approved","type":"bool","internalType":"bool"}],"outputs":[],"stateMutability":"nonpayable"},{"type":"function","name":"subscriptionId","inputs":[],"outputs":[{"name":"","type":"uint256","internalType":"uint256"}],"stateMutability":"view"},{"type":"function","name":"supportsInterface","inputs":[{"name":"interfaceId","type":"bytes4","internalType":"bytes4"}],"outputs":[{"name":"","type":"bool","internalType":"bool"}],"stateMutability":"view"},{"type":"function","name":"symbol","inputs":[],"outputs":[{"name":"","type":"string","internalType":"string"}],"stateMutability":"view"},{"type":"function","name":"tokenURI","inputs":[{"name":"tokenId","type":"uint256","internalType":"uint256"}],"outputs":[{"name":"","type":"string","internalType":"string"}],"stateMutability":"view"},{"type":"function","name":"tokensOfOwner","inputs":[{"name":"owner","type":"address","internalType":"address"}],"outputs":[{"name":"","type":"uint256[]","internalType":"uint256[]"}],"stateMutability":"view"},{"type":"function","name":"transferFrom","inputs":[{"name":"from","type":"address","internalType":"address"},{"name":"to","type":"address","internalType":"address"},{"name":"tokenId","type":"uint256","internalType":"uint256"}],"outputs":[],"stateMutability":"nonpayable"},{"type":"function","name":"transferOwnership","inputs":[{"name":"newOwner","type":"address","internalType":"address"}],"outputs":[],"stateMutability":"nonpayable"},{"type":"event","name":"Approval","inputs":[{"name":"owner","type":"address","indexed":true,"internalType":"address"},{"name":"approved","type":"address","indexed":true,"internalType":"address"},{"name":"tokenId","type":"uint256","indexed":true,"internalType":"uint256"}],"anonymous":false},{"type":"event","name":"ApprovalForAll","inputs":[{"name":"owner","type":"address","indexed":true,"internalType":"address"},{"name":"operator","type":"address","indexed":true,"internalType":"address"},{"name":"approved","type":"bool","indexed":false,"internalType":"bool"}],"anonymous":false},{"type":"event","name":"BatchMetadataUpdate","inputs":[{"name":"_fromTokenId","type":"uint256","indexed":false,"internalType":"uint256"},{"name":"_toTokenId","type":"uint256","indexed":false,"internalType":"uint256"}],"anonymous":false},{"type":"event","name":"CardMinted","inputs":[{"name":"to","type":"address","indexed":true,"internalType":"address"},{"name":"tokenId","type":"uint256","indexed":false,"internalType":"uint256"},{"name":"stats","type":"tuple","indexed":false,"internalType":"struct CardGame.CardStats","components":[{"name":"classType","type":"uint8","internalType":"enum CardGame.Class"},{"name":"element","type":"uint8","internalType":"enum CardGame.Element"},{"name":"rarity","type":"uint8","internalType":"enum CardGame.Rarity"},{"name":"attack","type":"uint8","internalType":"uint8"},{"name":"defense","type":"uint8","internalType":"uint8"}]}],"anonymous":false},{"type":"event","name":"MetadataUpdate","inputs":[{"name":"_tokenId","type":"uint256","indexed":false,"internalType":"uint256"}],"anonymous":false},{"type":"event","name":"OwnershipTransferred","inputs":[{"name":"previousOwner","type":"address","indexed":true,"internalType":"address"},{"name":"newOwner","type":"address","indexed":true,"internalType":"address"}],"anonymous":false},{"type":"event","name":"StarterPackRequested","inputs":[{"name":"player","type":"address","indexed":true,"internalType":"address"},{"name":"requestId","type":"uint256","indexed":false,"internalType":"uint256"}],"anonymous":false},{"type":"event","name":"Transfer","inputs":[{"name":"from","type":"address","indexed":true,"internalType":"address"},{"name":"to","type":"address","indexed":true,"internalType":"address"},{"name":"tokenId","type":"uint256","indexed":true,"internalType":"uint256"}],"anonymous":false},{"type":"error","name":"ERC721IncorrectOwner","inputs":[{"name":"sender","type":"address","internalType":"address"},{"name":"tokenId","type":"uint256","internalType":"uint256"},{"name":"owner","type":"address","internalType":"address"}]},{"type":"error","name":"ERC721InsufficientApproval","inputs":[{"name":"operator","type":"address","internalType":"address"},{"name":"tokenId","type":"uint256","internalType":"uint256"}]},{"type":"error","name":"ERC721InvalidApprover","inputs":[{"name":"approver","type":"address","internalType":"address"}]},{"type":"error","name":"ERC721InvalidOperator","inputs":[{"name":"operator","type":"address","internalType":"address"}]},{"type":"error","name":"ERC721InvalidOwner","inputs":[{"name":"owner","type":"address","internalType":"address"}]},{"type":"error","name":"ERC721InvalidReceiver","inputs":[{"name":"receiver","type":"address","internalType":"address"}]},{"type":"error","name":"ERC721InvalidSender","inputs":[{"name":"sender","type":"address","internalType":"address"}]},{"type":"error","name":"ERC721NonexistentToken","inputs":[{"name":"tokenId","type":"uint256","internalType":"uint256"}]},{"type":"error","name":"OnlyCoordinatorCanFulfill","inputs":[{"name":"have","type":"address","internalType":"address"},{"name":"want","type":"address","internalType":"address"}]},{"type":"error","name":"OwnableInvalidOwner","inputs":[{"name":"owner","type":"address","internalType":"address"}]},{"type":"error","name":"OwnableUnauthorizedAccount","inputs":[{"name":"account","type":"address","internalType":"address"}]}],"bytecode":{"object":"0x60a060405260016008557f67f966e532ace711c99fe264a3680753c6281ac53e5cc8153c169baa3c6132b1600f557f787d74caea10b2b357790d5b5247c2f63d1d91572a9846f780606e4d953677ae5f1b6010556203d09060115f6101000a81548163ffffffff021916908363ffffffff1602179055506003601160046101000a81548161ffff021916908361ffff1602179055506005601160066101000a81548163ffffffff021916908363ffffffff1602179055503480156100c1575f5ffd5b5033739ddfaca8183c41ad55329bdeed9f6a8d53168b1b6040518060400160405280600a81526020017f426174746c6543617264000000000000000000000000000000000000000000008152506040518060400160405280600481526020017f4243524400000000000000000000000000000000000000000000000000000000815250815f90816101529190610573565b5080600190816101629190610573565b5050508073ffffffffffffffffffffffffffffffffffffffff1660808173ffffffffffffffffffffffffffffffffffffffff1681525050505f73ffffffffffffffffffffffffffffffffffffffff168173ffffffffffffffffffffffffffffffffffffffff160361020a575f6040517f1e4fbdf70000000000000000000000000000000000000000000000000000000081526004016102019190610681565b60405180910390fd5b6102198161027360201b60201c565b50739ddfaca8183c41ad55329bdeed9f6a8d53168b1b600e5f6101000a81548173ffffffffffffffffffffffffffffffffffffffff021916908373ffffffffffffffffffffffffffffffffffffffff16021790555061069a565b5f60075f9054906101000a900473ffffffffffffffffffffffffffffffffffffffff1690508160075f6101000a81548173ffffffffffffffffffffffffffffffffffffffff021916908373ffffffffffffffffffffffffffffffffffffffff1602179055508173ffffffffffffffffffffffffffffffffffffffff168173ffffffffffffffffffffffffffffffffffffffff167f8be0079c531659141344cd1fd0a4f28419497f9722a3daafe3b4186f6b6457e060405160405180910390a35050565b5f81519050919050565b7f4e487b71000000000000000000000000000000000000000000000000000000005f52604160045260245ffd5b7f4e487b71000000000000000000000000000000000000000000000000000000005f52602260045260245ffd5b5f60028204905060018216806103b157607f821691505b6020821081036103c4576103c361036d565b5b50919050565b5f819050815f5260205f209050919050565b5f6020601f8301049050919050565b5f82821b905092915050565b5f600883026104267fffffffffffffffffffffffffffffffffffffffffffffffffffffffffffffffff826103eb565b61043086836103eb565b95508019841693508086168417925050509392505050565b5f819050919050565b5f819050919050565b5f61047461046f61046a84610448565b610451565b610448565b9050919050565b5f819050919050565b61048d8361045a565b6104a16104998261047b565b8484546103f7565b825550505050565b5f5f905090565b6104b86104a9565b6104c3818484610484565b505050565b5b818110156104e6576104db5f826104b0565b6001810190506104c9565b5050565b601f82111561052b576104fc816103ca565b610505846103dc565b81016020851015610514578190505b610528610520856103dc565b8301826104c8565b50505b505050565b5f82821c905092915050565b5f61054b5f1984600802610530565b1980831691505092915050565b5f610563838361053c565b9150826002028217905092915050565b61057c82610336565b67ffffffffffffffff81111561059557610594610340565b5b61059f825461039a565b6105aa8282856104ea565b5f60209050601f8311600181146105db575f84156105c9578287015190505b6105d38582610558565b86555061063a565b601f1984166105e9866103ca565b5f5b82811015610610578489015182556001820191506020850194506020810190506105eb565b8683101561062d5784890151610629601f89168261053c565b8355505b6001600288020188555050505b505050505050565b5f73ffffffffffffffffffffffffffffffffffffffff82169050919050565b5f61066b82610642565b9050919050565b61067b81610661565b82525050565b5f6020820190506106945f830184610672565b92915050565b6080516140166106b95f395f8181610825015261087901526140165ff3fe608060405234801561000f575f5ffd5b50600436106101f9575f3560e01c806375794a3c11610118578063b0fb162f116100ab578063d44888fe1161007a578063d44888fe146105db578063e86badf41461060b578063e985e9c51461063b578063efa1c4821461066b578063f2fde38b14610689576101f9565b8063b0fb162f14610541578063b678647a1461055f578063b88d4fde1461058f578063c87b56dd146105ab576101f9565b806395d89b41116100e757806395d89b41146104cd5780639cd51d25146104eb5780639d44f4e2146104f5578063a22cb46514610525576101f9565b806375794a3c146104435780637ccfd7fc146104615780638462151c1461047f5780638da5cb5b146104af576101f9565b806323b872dd1161019057806361728f391161015f57806361728f39146103bb5780636352211e146103d957806370a0823114610409578063715018a614610439576101f9565b806323b872dd1461033157806324f746971461034d57806342842e0e1461036b5780634c77fe2a14610387576101f9565b8063095ea7b3116101cc578063095ea7b3146102ab57806309c1ba2e146102c757806309c95e10146102e55780631fe543e314610315576101f9565b806301ffc9a7146101fd5780630544ce5e1461022d57806306fdde031461025d578063081812fc1461027b575b5f5ffd5b61021760048036038101906102129190612c13565b6106a5565b6040516102249190612c58565b60405180910390f35b61024760048036038101906102429190612ca4565b610705565b6040516102549190612d0e565b60405180910390f35b610265610740565b6040516102729190612d97565b60405180910390f35b61029560048036038101906102909190612ca4565b6107cf565b6040516102a29190612d0e565b60405180910390f35b6102c560048036038101906102c09190612de1565b6107ea565b005b6102cf610800565b6040516102dc9190612e2e565b60405180910390f35b6102ff60048036038101906102fa9190612e47565b610806565b60405161030c9190612c58565b60405180910390f35b61032f600480360381019061032a9190612fb2565b610823565b005b61034b6004803603810190610346919061300c565b6108e3565b005b6103556109e2565b604051610362919061307a565b60405180910390f35b6103856004803603810190610380919061300c565b6109f7565b005b6103a1600480360381019061039c9190612ca4565b610a16565b6040516103b29594939291906131ad565b60405180910390f35b6103c3610a84565b6040516103d09190613216565b60405180910390f35b6103f360048036038101906103ee9190612ca4565b610a8a565b6040516104009190612d0e565b60405180910390f35b610423600480360381019061041e9190612e47565b610a9b565b6040516104309190612e2e565b60405180910390f35b610441610b51565b005b61044b610b64565b6040516104589190612e2e565b60405180910390f35b610469610b6a565b604051610476919061307a565b60405180910390f35b61049960048036038101906104949190612e47565b610b80565b6040516104a691906132e6565b60405180910390f35b6104b7610d04565b6040516104c49190612d0e565b60405180910390f35b6104d5610d2c565b6040516104e29190612d97565b60405180910390f35b6104f3610dbc565b005b61050f600480360381019061050a9190613330565b611017565b60405161051c9190612e2e565b60405180910390f35b61053f600480360381019061053a91906133aa565b61128e565b005b6105496112a4565b6040516105569190613404565b60405180910390f35b61057960048036038101906105749190612ca4565b6112b8565b6040516105869190612d0e565b60405180910390f35b6105a960048036038101906105a491906134cd565b6112e8565b005b6105c560048036038101906105c09190612ca4565b61130d565b6040516105d29190612d97565b60405180910390f35b6105f560048036038101906105f09190612ca4565b611418565b60405161060291906135ef565b60405180910390f35b61062560048036038101906106209190612e47565b611528565b6040516106329190612c58565b60405180910390f35b61065560048036038101906106509190613608565b611545565b6040516106629190612c58565b60405180910390f35b6106736115d3565b60405161068091906136fd565b60405180910390f35b6106a3600480360381019061069e9190612e47565b61165e565b005b5f634906490660e01b7bffffffffffffffffffffffffffffffffffffffffffffffffffffffff1916827bffffffffffffffffffffffffffffffffffffffffffffffffffffffff191614806106fe57506106fd826116e2565b5b9050919050565b600d8181548110610714575f80fd5b905f5260205f20015f915054906101000a900473ffffffffffffffffffffffffffffffffffffffff1681565b60605f805461074e9061374a565b80601f016020809104026020016040519081016040528092919081815260200182805461077a9061374a565b80156107c55780601f1061079c576101008083540402835291602001916107c5565b820191905f5260205f20905b8154815290600101906020018083116107a857829003601f168201915b5050505050905090565b5f6107d9826117c3565b506107e382611849565b9050919050565b6107fc82826107f7611882565b611889565b5050565b600f5481565b600c602052805f5260405f205f915054906101000a900460ff1681565b7f000000000000000000000000000000000000000000000000000000000000000073ffffffffffffffffffffffffffffffffffffffff163373ffffffffffffffffffffffffffffffffffffffff16146108d557337f00000000000000000000000000000000000000000000000000000000000000006040517f1cf993f40000000000000000000000000000000000000000000000000000000081526004016108cc92919061377a565b60405180910390fd5b6108df828261189b565b5050565b5f73ffffffffffffffffffffffffffffffffffffffff168273ffffffffffffffffffffffffffffffffffffffff1603610953575f6040517f64a0ae9200000000000000000000000000000000000000000000000000000000815260040161094a9190612d0e565b60405180910390fd5b5f6109668383610961611882565b611914565b90508373ffffffffffffffffffffffffffffffffffffffff168173ffffffffffffffffffffffffffffffffffffffff16146109dc578382826040517f64283d7b0000000000000000000000000000000000000000000000000000000081526004016109d3939291906137a1565b60405180910390fd5b50505050565b60115f9054906101000a900463ffffffff1681565b610a1183838360405180602001604052805f8152506112e8565b505050565b6009602052805f5260405f205f91509050805f015f9054906101000a900460ff1690805f0160019054906101000a900460ff1690805f0160029054906101000a900460ff1690805f0160039054906101000a900460ff1690805f0160049054906101000a900460ff16905085565b60105481565b5f610a94826117c3565b9050919050565b5f5f73ffffffffffffffffffffffffffffffffffffffff168273ffffffffffffffffffffffffffffffffffffffff1603610b0c575f6040517f89c62b64000000000000000000000000000000000000000000000000000000008152600401610b039190612d0e565b60405180910390fd5b60035f8373ffffffffffffffffffffffffffffffffffffffff1673ffffffffffffffffffffffffffffffffffffffff1681526020019081526020015f20549050919050565b610b59611b1f565b610b625f611ba6565b565b60085481565b601160069054906101000a900463ffffffff1681565b60605f610b8c83610a9b565b90505f8167ffffffffffffffff811115610ba957610ba8612e76565b5b604051908082528060200260200182016040528015610bd75781602001602082028036833780820191505090505b5090505f5f90505f6001600854610bee9190613803565b90505f600190505b818111158015610c0557508483105b15610cf7573073ffffffffffffffffffffffffffffffffffffffff16636352211e826040518263ffffffff1660e01b8152600401610c439190612e2e565b602060405180830381865afa925050508015610c7d57506040513d601f19601f82011682018060405250810190610c7a919061384a565b60015b15610ce4578773ffffffffffffffffffffffffffffffffffffffff168173ffffffffffffffffffffffffffffffffffffffff1603610ce25781858580610cc290613875565b965081518110610cd557610cd46138bc565b5b6020026020010181815250505b505b8080610cef90613875565b915050610bf6565b5082945050505050919050565b5f60075f9054906101000a900473ffffffffffffffffffffffffffffffffffffffff16905090565b606060018054610d3b9061374a565b80601f0160208091040260200160405190810160405280929190818152602001828054610d679061374a565b8015610db25780601f10610d8957610100808354040283529160200191610db2565b820191905f5260205f20905b815481529060010190602001808311610d9557829003601f168201915b5050505050905090565b600a5f3373ffffffffffffffffffffffffffffffffffffffff1673ffffffffffffffffffffffffffffffffffffffff1681526020019081526020015f205f9054906101000a900460ff1615610e46576040517f08c379a0000000000000000000000000000000000000000000000000000000008152600401610e3d90613933565b60405180910390fd5b6001600a5f3373ffffffffffffffffffffffffffffffffffffffff1673ffffffffffffffffffffffffffffffffffffffff1681526020019081526020015f205f6101000a81548160ff0219169083151502179055505f600e5f9054906101000a900473ffffffffffffffffffffffffffffffffffffffff1673ffffffffffffffffffffffffffffffffffffffff16635d3b1d30601054600f54601160049054906101000a900461ffff1660115f9054906101000a900463ffffffff16601160069054906101000a900463ffffffff166040518663ffffffff1660e01b8152600401610f35959493929190613973565b6020604051808303815f875af1158015610f51573d5f5f3e3d5ffd5b505050506040513d601f19601f82011682018060405250810190610f7591906139d8565b905033600b5f8381526020019081526020015f205f6101000a81548173ffffffffffffffffffffffffffffffffffffffff021916908373ffffffffffffffffffffffffffffffffffffffff1602179055503373ffffffffffffffffffffffffffffffffffffffff167f5ba05d13e356b2d7cd47284a86b8f90e6360133447936b1e0b28fab868a435018260405161100c9190612e2e565b60405180910390a250565b5f60018260ff1610158015611030575060038260ff1611155b61106f576040517f08c379a000000000000000000000000000000000000000000000000000000000815260040161106690613a4d565b60405180910390fd5b5f60038461107d9190613a98565b600281111561108f5761108e613093565b5b90505f6003600a866110a19190613ac8565b6110ab9190613a98565b60028111156110bd576110bc613093565b5b90505f8460ff1660038111156110d6576110d5613093565b5b90505f606480886110e79190613ac8565b6110f19190613a98565b90505f6064612710896111049190613ac8565b61110e9190613a98565b90505f60085f81548092919061112390613875565b9190505590506111338a82611c69565b6040518060a0016040528087600281111561115157611150613093565b5b815260200186600281111561116957611168613093565b5b815260200185600381111561118157611180613093565b5b81526020018460ff1681526020018360ff1681525060095f8381526020019081526020015f205f820151815f015f6101000a81548160ff021916908360028111156111cf576111ce613093565b5b02179055506020820151815f0160016101000a81548160ff021916908360028111156111fe576111fd613093565b5b02179055506040820151815f0160026101000a81548160ff0219169083600381111561122d5761122c613093565b5b02179055506060820151815f0160036101000a81548160ff021916908360ff1602179055506080820151815f0160046101000a81548160ff021916908360ff16021790555090505061127e8a611c86565b8096505050505050509392505050565b6112a0611299611882565b8383611d8d565b5050565b601160049054906101000a900461ffff1681565b600b602052805f5260405f205f915054906101000a900473ffffffffffffffffffffffffffffffffffffffff1681565b6112f38484846108e3565b6113076112fe611882565b85858585611ef6565b50505050565b6060611318826117c3565b505f60065f8481526020019081526020015f2080546113369061374a565b80601f01602080910402602001604051908101604052809291908181526020018280546113629061374a565b80156113ad5780601f10611384576101008083540402835291602001916113ad565b820191905f5260205f20905b81548152906001019060200180831161139057829003601f168201915b505050505090505f6113bd6120a2565b90505f8151036113d1578192505050611413565b5f825111156114055780826040516020016113ed929190613b32565b60405160208183030381529060405292505050611413565b61140e846120b8565b925050505b919050565b611420612b47565b60095f8381526020019081526020015f206040518060a00160405290815f82015f9054906101000a900460ff16600281111561145f5761145e613093565b5b600281111561147157611470613093565b5b81526020015f820160019054906101000a900460ff16600281111561149957611498613093565b5b60028111156114ab576114aa613093565b5b81526020015f820160029054906101000a900460ff1660038111156114d3576114d2613093565b5b60038111156114e5576114e4613093565b5b81526020015f820160039054906101000a900460ff1660ff1660ff1681526020015f820160049054906101000a900460ff1660ff1660ff16815250509050919050565b600a602052805f5260405f205f915054906101000a900460ff1681565b5f60055f8473ffffffffffffffffffffffffffffffffffffffff1673ffffffffffffffffffffffffffffffffffffffff1681526020019081526020015f205f8373ffffffffffffffffffffffffffffffffffffffff1673ffffffffffffffffffffffffffffffffffffffff1681526020019081526020015f205f9054906101000a900460ff16905092915050565b6060600d80548060200260200160405190810160405280929190818152602001828054801561165457602002820191905f5260205f20905b815f9054906101000a900473ffffffffffffffffffffffffffffffffffffffff1673ffffffffffffffffffffffffffffffffffffffff168152602001906001019080831161160b575b5050505050905090565b611666611b1f565b5f73ffffffffffffffffffffffffffffffffffffffff168173ffffffffffffffffffffffffffffffffffffffff16036116d6575f6040517f1e4fbdf70000000000000000000000000000000000000000000000000000000081526004016116cd9190612d0e565b60405180910390fd5b6116df81611ba6565b50565b5f7f80ac58cd000000000000000000000000000000000000000000000000000000007bffffffffffffffffffffffffffffffffffffffffffffffffffffffff1916827bffffffffffffffffffffffffffffffffffffffffffffffffffffffff191614806117ac57507f5b5e139f000000000000000000000000000000000000000000000000000000007bffffffffffffffffffffffffffffffffffffffffffffffffffffffff1916827bffffffffffffffffffffffffffffffffffffffffffffffffffffffff1916145b806117bc57506117bb8261211e565b5b9050919050565b5f5f6117ce83612187565b90505f73ffffffffffffffffffffffffffffffffffffffff168173ffffffffffffffffffffffffffffffffffffffff160361184057826040517f7e2732890000000000000000000000000000000000000000000000000000000081526004016118379190612e2e565b60405180910390fd5b80915050919050565b5f60045f8381526020019081526020015f205f9054906101000a900473ffffffffffffffffffffffffffffffffffffffff169050919050565b5f33905090565b61189683838360016121c0565b505050565b5f600b5f8481526020019081526020015f205f9054906101000a900473ffffffffffffffffffffffffffffffffffffffff1690505f5f90505b825181101561190e57611901828483815181106118f4576118f36138bc565b5b602002602001015161237f565b80806001019150506118d4565b50505050565b5f5f61191f84612187565b90505f73ffffffffffffffffffffffffffffffffffffffff168373ffffffffffffffffffffffffffffffffffffffff16146119605761195f818486612524565b5b5f73ffffffffffffffffffffffffffffffffffffffff168173ffffffffffffffffffffffffffffffffffffffff16146119eb5761199f5f855f5f6121c0565b600160035f8373ffffffffffffffffffffffffffffffffffffffff1673ffffffffffffffffffffffffffffffffffffffff1681526020019081526020015f205f82825403925050819055505b5f73ffffffffffffffffffffffffffffffffffffffff168573ffffffffffffffffffffffffffffffffffffffff1614611a6a57600160035f8773ffffffffffffffffffffffffffffffffffffffff1673ffffffffffffffffffffffffffffffffffffffff1681526020019081526020015f205f82825401925050819055505b8460025f8681526020019081526020015f205f6101000a81548173ffffffffffffffffffffffffffffffffffffffff021916908373ffffffffffffffffffffffffffffffffffffffff160217905550838573ffffffffffffffffffffffffffffffffffffffff168273ffffffffffffffffffffffffffffffffffffffff167fddf252ad1be2c89b69c2b068fc378daa952ba7f163c4a11628f55a4df523b3ef60405160405180910390a4809150509392505050565b611b27611882565b73ffffffffffffffffffffffffffffffffffffffff16611b45610d04565b73ffffffffffffffffffffffffffffffffffffffff1614611ba457611b68611882565b6040517f118cdaa7000000000000000000000000000000000000000000000000000000008152600401611b9b9190612d0e565b60405180910390fd5b565b5f60075f9054906101000a900473ffffffffffffffffffffffffffffffffffffffff1690508160075f6101000a81548173ffffffffffffffffffffffffffffffffffffffff021916908373ffffffffffffffffffffffffffffffffffffffff1602179055508173ffffffffffffffffffffffffffffffffffffffff168173ffffffffffffffffffffffffffffffffffffffff167f8be0079c531659141344cd1fd0a4f28419497f9722a3daafe3b4186f6b6457e060405160405180910390a35050565b611c82828260405180602001604052805f8152506125e7565b5050565b600c5f8273ffffffffffffffffffffffffffffffffffffffff1673ffffffffffffffffffffffffffffffffffffffff1681526020019081526020015f205f9054906101000a900460ff16611d8a576001600c5f8373ffffffffffffffffffffffffffffffffffffffff1673ffffffffffffffffffffffffffffffffffffffff1681526020019081526020015f205f6101000a81548160ff021916908315150217905550600d81908060018154018082558091505060019003905f5260205f20015f9091909190916101000a81548173ffffffffffffffffffffffffffffffffffffffff021916908373ffffffffffffffffffffffffffffffffffffffff1602179055505b50565b5f73ffffffffffffffffffffffffffffffffffffffff168273ffffffffffffffffffffffffffffffffffffffff1603611dfd57816040517f5b08ba18000000000000000000000000000000000000000000000000000000008152600401611df49190612d0e565b60405180910390fd5b8060055f8573ffffffffffffffffffffffffffffffffffffffff1673ffffffffffffffffffffffffffffffffffffffff1681526020019081526020015f205f8473ffffffffffffffffffffffffffffffffffffffff1673ffffffffffffffffffffffffffffffffffffffff1681526020019081526020015f205f6101000a81548160ff0219169083151502179055508173ffffffffffffffffffffffffffffffffffffffff168373ffffffffffffffffffffffffffffffffffffffff167f17307eab39ab6107e8899845ad3d59bd9653f200f220920489ca2b5937696c3183604051611ee99190612c58565b60405180910390a3505050565b5f8373ffffffffffffffffffffffffffffffffffffffff163b111561209b578273ffffffffffffffffffffffffffffffffffffffff1663150b7a02868685856040518563ffffffff1660e01b8152600401611f549493929190613ba7565b6020604051808303815f875af1925050508015611f8f57506040513d601f19601f82011682018060405250810190611f8c9190613c05565b60015b612010573d805f8114611fbd576040519150601f19603f3d011682016040523d82523d5f602084013e611fc2565b606091505b505f81510361200857836040517f64a0ae92000000000000000000000000000000000000000000000000000000008152600401611fff9190612d0e565b60405180910390fd5b805181602001fd5b63150b7a0260e01b7bffffffffffffffffffffffffffffffffffffffffffffffffffffffff1916817bffffffffffffffffffffffffffffffffffffffffffffffffffffffff19161461209957836040517f64a0ae920000000000000000000000000000000000000000000000000000000081526004016120909190612d0e565b60405180910390fd5b505b5050505050565b606060405180602001604052805f815250905090565b60606120c3826117c3565b505f6120cd6120a2565b90505f8151116120eb5760405180602001604052805f815250612116565b806120f58461260a565b604051602001612106929190613b32565b6040516020818303038152906040525b915050919050565b5f7f01ffc9a7000000000000000000000000000000000000000000000000000000007bffffffffffffffffffffffffffffffffffffffffffffffffffffffff1916827bffffffffffffffffffffffffffffffffffffffffffffffffffffffff1916149050919050565b5f60025f8381526020019081526020015f205f9054906101000a900473ffffffffffffffffffffffffffffffffffffffff169050919050565b80806121f857505f73ffffffffffffffffffffffffffffffffffffffff168273ffffffffffffffffffffffffffffffffffffffff1614155b1561232a575f612207846117c3565b90505f73ffffffffffffffffffffffffffffffffffffffff168373ffffffffffffffffffffffffffffffffffffffff161415801561227157508273ffffffffffffffffffffffffffffffffffffffff168173ffffffffffffffffffffffffffffffffffffffff1614155b801561228457506122828184611545565b155b156122c657826040517fa9fbf51f0000000000000000000000000000000000000000000000000000000081526004016122bd9190612d0e565b60405180910390fd5b811561232857838573ffffffffffffffffffffffffffffffffffffffff168273ffffffffffffffffffffffffffffffffffffffff167f8c5be1e5ebec7d5bd14f71427d1e84f3dd0314c0f7b2291e5b200ac8c7c3b92560405160405180910390a45b505b8360045f8581526020019081526020015f205f6101000a81548173ffffffffffffffffffffffffffffffffffffffff021916908373ffffffffffffffffffffffffffffffffffffffff16021790555050505050565b5f60085f81548092919061239290613875565b9190505590505f6123a3835f6126d4565b90508060095f8481526020019081526020015f205f820151815f015f6101000a81548160ff021916908360028111156123df576123de613093565b5b02179055506020820151815f0160016101000a81548160ff0219169083600281111561240e5761240d613093565b5b02179055506040820151815f0160026101000a81548160ff0219169083600381111561243d5761243c613093565b5b02179055506060820151815f0160036101000a81548160ff021916908360ff1602179055506080820151815f0160046101000a81548160ff021916908360ff16021790555090505061248f8483611c69565b5f6124998361260a565b6040516020016124a99190613cc4565b60405160208183030381529060405290506124c483826127e9565b6124cd85611c86565b8473ffffffffffffffffffffffffffffffffffffffff167fbefb1ba1b22d2bc3e91e22921511252ade113c9e6df90818029496fea8ec57018484604051612515929190613cf0565b60405180910390a25050505050565b61252f838383612843565b6125e2575f73ffffffffffffffffffffffffffffffffffffffff168373ffffffffffffffffffffffffffffffffffffffff16036125a357806040517f7e27328900000000000000000000000000000000000000000000000000000000815260040161259a9190612e2e565b60405180910390fd5b81816040517f177e802f0000000000000000000000000000000000000000000000000000000081526004016125d9929190613d17565b60405180910390fd5b505050565b6125f18383612903565b6126056125fc611882565b5f858585611ef6565b505050565b60605f6001612618846129f6565b0190505f8167ffffffffffffffff81111561263657612635612e76565b5b6040519080825280601f01601f1916602001820160405280156126685781602001600182028036833780820191505090505b5090505f82602001820190505b6001156126c9578080600190039150507f3031323334353637383961626364656600000000000000000000000000000000600a86061a8153600a85816126be576126bd613a6b565b5b0494505f8503612675575b819350505050919050565b6126dc612b47565b5f6003846126ea9190613a98565b60028111156126fc576126fb613093565b5b90505f6003600a8661270e9190613ac8565b6127189190613a98565b600281111561272a57612729613093565b5b90505f600590505f60038761273f9190613a98565b8260ff1661274d9190613d3e565b90505f600360648961275f9190613ac8565b6127699190613a98565b8360ff166127779190613d3e565b90506040518060a0016040528086600281111561279757612796613093565b5b81526020018560028111156127af576127ae613093565b5b81526020018860038111156127c7576127c6613093565b5b81526020018360ff1681526020018260ff168152509550505050505092915050565b8060065f8481526020019081526020015f2090816128079190613f11565b507ff8e1a15aba9398e019f0b49df1a4fde98ee17ae345cb5f6b5e2c27f5033e8ce7826040516128379190612e2e565b60405180910390a15050565b5f5f73ffffffffffffffffffffffffffffffffffffffff168373ffffffffffffffffffffffffffffffffffffffff16141580156128fa57508273ffffffffffffffffffffffffffffffffffffffff168473ffffffffffffffffffffffffffffffffffffffff1614806128bb57506128ba8484611545565b5b806128f957508273ffffffffffffffffffffffffffffffffffffffff166128e183611849565b73ffffffffffffffffffffffffffffffffffffffff16145b5b90509392505050565b5f73ffffffffffffffffffffffffffffffffffffffff168273ffffffffffffffffffffffffffffffffffffffff1603612973575f6040517f64a0ae9200000000000000000000000000000000000000000000000000000000815260040161296a9190612d0e565b60405180910390fd5b5f61297f83835f611914565b90505f73ffffffffffffffffffffffffffffffffffffffff168173ffffffffffffffffffffffffffffffffffffffff16146129f1575f6040517f73c6ac6e0000000000000000000000000000000000000000000000000000000081526004016129e89190612d0e565b60405180910390fd5b505050565b5f5f5f90507a184f03e93ff9f4daa797ed6e38ed64bf6a1f0100000000000000008310612a52577a184f03e93ff9f4daa797ed6e38ed64bf6a1f0100000000000000008381612a4857612a47613a6b565b5b0492506040810190505b6d04ee2d6d415b85acef81000000008310612a8f576d04ee2d6d415b85acef81000000008381612a8557612a84613a6b565b5b0492506020810190505b662386f26fc100008310612abe57662386f26fc100008381612ab457612ab3613a6b565b5b0492506010810190505b6305f5e1008310612ae7576305f5e1008381612add57612adc613a6b565b5b0492506008810190505b6127108310612b0c576127108381612b0257612b01613a6b565b5b0492506004810190505b60648310612b2f5760648381612b2557612b24613a6b565b5b0492506002810190505b600a8310612b3e576001810190505b80915050919050565b6040518060a001604052805f6002811115612b6557612b64613093565b5b81526020015f6002811115612b7d57612b7c613093565b5b81526020015f6003811115612b9557612b94613093565b5b81526020015f60ff1681526020015f60ff1681525090565b5f604051905090565b5f5ffd5b5f5ffd5b5f7fffffffff0000000000000000000000000000000000000000000000000000000082169050919050565b612bf281612bbe565b8114612bfc575f5ffd5b50565b5f81359050612c0d81612be9565b92915050565b5f60208284031215612c2857612c27612bb6565b5b5f612c3584828501612bff565b91505092915050565b5f8115159050919050565b612c5281612c3e565b82525050565b5f602082019050612c6b5f830184612c49565b92915050565b5f819050919050565b612c8381612c71565b8114612c8d575f5ffd5b50565b5f81359050612c9e81612c7a565b92915050565b5f60208284031215612cb957612cb8612bb6565b5b5f612cc684828501612c90565b91505092915050565b5f73ffffffffffffffffffffffffffffffffffffffff82169050919050565b5f612cf882612ccf565b9050919050565b612d0881612cee565b82525050565b5f602082019050612d215f830184612cff565b92915050565b5f81519050919050565b5f82825260208201905092915050565b8281835e5f83830152505050565b5f601f19601f8301169050919050565b5f612d6982612d27565b612d738185612d31565b9350612d83818560208601612d41565b612d8c81612d4f565b840191505092915050565b5f6020820190508181035f830152612daf8184612d5f565b905092915050565b612dc081612cee565b8114612dca575f5ffd5b50565b5f81359050612ddb81612db7565b92915050565b5f5f60408385031215612df757612df6612bb6565b5b5f612e0485828601612dcd565b9250506020612e1585828601612c90565b9150509250929050565b612e2881612c71565b82525050565b5f602082019050612e415f830184612e1f565b92915050565b5f60208284031215612e5c57612e5b612bb6565b5b5f612e6984828501612dcd565b91505092915050565b5f5ffd5b7f4e487b71000000000000000000000000000000000000000000000000000000005f52604160045260245ffd5b612eac82612d4f565b810181811067ffffffffffffffff82111715612ecb57612eca612e76565b5b80604052505050565b5f612edd612bad565b9050612ee98282612ea3565b919050565b5f67ffffffffffffffff821115612f0857612f07612e76565b5b602082029050602081019050919050565b5f5ffd5b5f612f2f612f2a84612eee565b612ed4565b90508083825260208201905060208402830185811115612f5257612f51612f19565b5b835b81811015612f7b5780612f678882612c90565b845260208401935050602081019050612f54565b5050509392505050565b5f82601f830112612f9957612f98612e72565b5b8135612fa9848260208601612f1d565b91505092915050565b5f5f60408385031215612fc857612fc7612bb6565b5b5f612fd585828601612c90565b925050602083013567ffffffffffffffff811115612ff657612ff5612bba565b5b61300285828601612f85565b9150509250929050565b5f5f5f6060848603121561302357613022612bb6565b5b5f61303086828701612dcd565b935050602061304186828701612dcd565b925050604061305286828701612c90565b9150509250925092565b5f63ffffffff82169050919050565b6130748161305c565b82525050565b5f60208201905061308d5f83018461306b565b92915050565b7f4e487b71000000000000000000000000000000000000000000000000000000005f52602160045260245ffd5b600381106130d1576130d0613093565b5b50565b5f8190506130e1826130c0565b919050565b5f6130f0826130d4565b9050919050565b613100816130e6565b82525050565b6003811061311757613116613093565b5b50565b5f81905061312782613106565b919050565b5f6131368261311a565b9050919050565b6131468161312c565b82525050565b6004811061315d5761315c613093565b5b50565b5f81905061316d8261314c565b919050565b5f61317c82613160565b9050919050565b61318c81613172565b82525050565b5f60ff82169050919050565b6131a781613192565b82525050565b5f60a0820190506131c05f8301886130f7565b6131cd602083018761313d565b6131da6040830186613183565b6131e7606083018561319e565b6131f4608083018461319e565b9695505050505050565b5f819050919050565b613210816131fe565b82525050565b5f6020820190506132295f830184613207565b92915050565b5f81519050919050565b5f82825260208201905092915050565b5f819050602082019050919050565b61326181612c71565b82525050565b5f6132728383613258565b60208301905092915050565b5f602082019050919050565b5f6132948261322f565b61329e8185613239565b93506132a983613249565b805f5b838110156132d95781516132c08882613267565b97506132cb8361327e565b9250506001810190506132ac565b5085935050505092915050565b5f6020820190508181035f8301526132fe818461328a565b905092915050565b61330f81613192565b8114613319575f5ffd5b50565b5f8135905061332a81613306565b92915050565b5f5f5f6060848603121561334757613346612bb6565b5b5f61335486828701612dcd565b935050602061336586828701612c90565b92505060406133768682870161331c565b9150509250925092565b61338981612c3e565b8114613393575f5ffd5b50565b5f813590506133a481613380565b92915050565b5f5f604083850312156133c0576133bf612bb6565b5b5f6133cd85828601612dcd565b92505060206133de85828601613396565b9150509250929050565b5f61ffff82169050919050565b6133fe816133e8565b82525050565b5f6020820190506134175f8301846133f5565b92915050565b5f5ffd5b5f67ffffffffffffffff82111561343b5761343a612e76565b5b61344482612d4f565b9050602081019050919050565b828183375f83830152505050565b5f61347161346c84613421565b612ed4565b90508281526020810184848401111561348d5761348c61341d565b5b613498848285613451565b509392505050565b5f82601f8301126134b4576134b3612e72565b5b81356134c484826020860161345f565b91505092915050565b5f5f5f5f608085870312156134e5576134e4612bb6565b5b5f6134f287828801612dcd565b945050602061350387828801612dcd565b935050604061351487828801612c90565b925050606085013567ffffffffffffffff81111561353557613534612bba565b5b613541878288016134a0565b91505092959194509250565b613556816130e6565b82525050565b6135658161312c565b82525050565b61357481613172565b82525050565b61358381613192565b82525050565b60a082015f82015161359d5f85018261354d565b5060208201516135b0602085018261355c565b5060408201516135c3604085018261356b565b5060608201516135d6606085018261357a565b5060808201516135e9608085018261357a565b50505050565b5f60a0820190506136025f830184613589565b92915050565b5f5f6040838503121561361e5761361d612bb6565b5b5f61362b85828601612dcd565b925050602061363c85828601612dcd565b9150509250929050565b5f81519050919050565b5f82825260208201905092915050565b5f819050602082019050919050565b61367881612cee565b82525050565b5f613689838361366f565b60208301905092915050565b5f602082019050919050565b5f6136ab82613646565b6136b58185613650565b93506136c083613660565b805f5b838110156136f05781516136d7888261367e565b97506136e283613695565b9250506001810190506136c3565b5085935050505092915050565b5f6020820190508181035f83015261371581846136a1565b905092915050565b7f4e487b71000000000000000000000000000000000000000000000000000000005f52602260045260245ffd5b5f600282049050600182168061376157607f821691505b6020821081036137745761377361371d565b5b50919050565b5f60408201905061378d5f830185612cff565b61379a6020830184612cff565b9392505050565b5f6060820190506137b45f830186612cff565b6137c16020830185612e1f565b6137ce6040830184612cff565b949350505050565b7f4e487b71000000000000000000000000000000000000000000000000000000005f52601160045260245ffd5b5f61380d82612c71565b915061381883612c71565b92508282039050818111156138305761382f6137d6565b5b92915050565b5f8151905061384481612db7565b92915050565b5f6020828403121561385f5761385e612bb6565b5b5f61386c84828501613836565b91505092915050565b5f61387f82612c71565b91507fffffffffffffffffffffffffffffffffffffffffffffffffffffffffffffffff82036138b1576138b06137d6565b5b600182019050919050565b7f4e487b71000000000000000000000000000000000000000000000000000000005f52603260045260245ffd5b7f416c726561647920636c61696d656400000000000000000000000000000000005f82015250565b5f61391d600f83612d31565b9150613928826138e9565b602082019050919050565b5f6020820190508181035f83015261394a81613911565b9050919050565b5f67ffffffffffffffff82169050919050565b61396d81613951565b82525050565b5f60a0820190506139865f830188613207565b6139936020830187613964565b6139a060408301866133f5565b6139ad606083018561306b565b6139ba608083018461306b565b9695505050505050565b5f815190506139d281612c7a565b92915050565b5f602082840312156139ed576139ec612bb6565b5b5f6139fa848285016139c4565b91505092915050565b7f496e76616c6964207261726974790000000000000000000000000000000000005f82015250565b5f613a37600e83612d31565b9150613a4282613a03565b602082019050919050565b5f6020820190508181035f830152613a6481613a2b565b9050919050565b7f4e487b71000000000000000000000000000000000000000000000000000000005f52601260045260245ffd5b5f613aa282612c71565b9150613aad83612c71565b925082613abd57613abc613a6b565b5b828206905092915050565b5f613ad282612c71565b9150613add83612c71565b925082613aed57613aec613a6b565b5b828204905092915050565b5f81905092915050565b5f613b0c82612d27565b613b168185613af8565b9350613b26818560208601612d41565b80840191505092915050565b5f613b3d8285613b02565b9150613b498284613b02565b91508190509392505050565b5f81519050919050565b5f82825260208201905092915050565b5f613b7982613b55565b613b838185613b5f565b9350613b93818560208601612d41565b613b9c81612d4f565b840191505092915050565b5f608082019050613bba5f830187612cff565b613bc76020830186612cff565b613bd46040830185612e1f565b8181036060830152613be68184613b6f565b905095945050505050565b5f81519050613bff81612be9565b92915050565b5f60208284031215613c1a57613c19612bb6565b5b5f613c2784828501613bf1565b91505092915050565b7f697066733a2f2f516d2e2e2e2f000000000000000000000000000000000000005f82015250565b5f613c64600d83613af8565b9150613c6f82613c30565b600d82019050919050565b7f2e6a736f6e0000000000000000000000000000000000000000000000000000005f82015250565b5f613cae600583613af8565b9150613cb982613c7a565b600582019050919050565b5f613cce82613c58565b9150613cda8284613b02565b9150613ce582613ca2565b915081905092915050565b5f60c082019050613d035f830185612e1f565b613d106020830184613589565b9392505050565b5f604082019050613d2a5f830185612cff565b613d376020830184612e1f565b9392505050565b5f613d4882612c71565b9150613d5383612c71565b9250828201905080821115613d6b57613d6a6137d6565b5b92915050565b5f819050815f5260205f209050919050565b5f6020601f8301049050919050565b5f82821b905092915050565b5f60088302613dcd7fffffffffffffffffffffffffffffffffffffffffffffffffffffffffffffffff82613d92565b613dd78683613d92565b95508019841693508086168417925050509392505050565b5f819050919050565b5f613e12613e0d613e0884612c71565b613def565b612c71565b9050919050565b5f819050919050565b613e2b83613df8565b613e3f613e3782613e19565b848454613d9e565b825550505050565b5f5f905090565b613e56613e47565b613e61818484613e22565b505050565b5b81811015613e8457613e795f82613e4e565b600181019050613e67565b5050565b601f821115613ec957613e9a81613d71565b613ea384613d83565b81016020851015613eb2578190505b613ec6613ebe85613d83565b830182613e66565b50505b505050565b5f82821c905092915050565b5f613ee95f1984600802613ece565b1980831691505092915050565b5f613f018383613eda565b9150826002028217905092915050565b613f1a82612d27565b67ffffffffffffffff811115613f3357613f32612e76565b5b613f3d825461374a565b613f48828285613e88565b5f60209050601f831160018114613f79575f8415613f67578287015190505b613f718582613ef6565b865550613fd8565b601f198416613f8786613d71565b5f5b82811015613fae57848901518255600182019150602085019450602081019050613f89565b86831015613fcb5784890151613fc7601f891682613eda565b8355505b6001600288020188555050505b50505050505056fea2646970667358221220ffce806a696594aa17c85d27d76d74bf68ec6a4e8710ccb3007fae199f56993b64736f6c634300081e0033","linkReferences":{}},"methodIdentifiers":{"allPlayers(uint256)":"0544ce5e","approve(address,uint256)":"095ea7b3","balanceOf(address)":"70a08231","callbackGasLimit()":"24f74697","cardStats(uint256)":"4c77fe2a","claimStarterPack()":"9cd51d25","getAllPlayers()":"efa1c482","getApproved(uint256)":"081812fc","getCardStats(uint256)":"d44888fe","hasClaimedStarterPack(address)":"e86badf4","isApprovedForAll(address,address)":"e985e9c5","isPlayer(address)":"09c95e10","keyHash()":"61728f39","mintCardWithForcedRarity(address,uint256,uint8)":"9d44f4e2","name()":"06fdde03","nextTokenId()":"75794a3c","numWords()":"7ccfd7fc","owner()":"8da5cb5b","ownerOf(uint256)":"6352211e","rawFulfillRandomWords(uint256,uint256[])":"1fe543e3","renounceOwnership()":"715018a6","requestConfirmations()":"b0fb162f","requestToSender(uint256)":"b678647a","safeTransferFrom(address,address,uint256)":"42842e0e","safeTransferFrom(address,address,uint256,bytes)":"b88d4fde","setApprovalForAll(address,bool)":"a22cb465","subscriptionId()":"09c1ba2e","supportsInterface(bytes4)":"01ffc9a7","symbol()":"95d89b41","tokenURI(uint256)":"c87b56dd","tokensOfOwner(address)":"8462151c","transferFrom(address,address,uint256)":"23b872dd","transferOwnership(address)":"f2fde38b"},"id":44}